{
  "_format": "hh3-artifact-1",
  "contractName": "Minter",
  "sourceName": "contracts/Minter.sol",
  "abi": [
    {
      "inputs": [],
      "stateMutability": "nonpayable",
      "type": "constructor"
    },
    {
      "inputs": [],
      "name": "AccessControlBadConfirmation",
      "type": "error"
    },
    {
      "inputs": [
        {
          "internalType": "uint48",
          "name": "schedule",
          "type": "uint48"
        }
      ],
      "name": "AccessControlEnforcedDefaultAdminDelay",
      "type": "error"
    },
    {
      "inputs": [],
      "name": "AccessControlEnforcedDefaultAdminRules",
      "type": "error"
    },
    {
      "inputs": [
        {
          "internalType": "address",
          "name": "defaultAdmin",
          "type": "address"
        }
      ],
      "name": "AccessControlInvalidDefaultAdmin",
      "type": "error"
    },
    {
      "inputs": [
        {
          "internalType": "address",
          "name": "account",
          "type": "address"
        },
        {
          "internalType": "bytes32",
          "name": "neededRole",
          "type": "bytes32"
        }
      ],
      "name": "AccessControlUnauthorizedAccount",
      "type": "error"
    },
    {
      "inputs": [
        {
          "internalType": "address",
          "name": "target",
          "type": "address"
        }
      ],
      "name": "AddressEmptyCode",
      "type": "error"
    },
    {
      "inputs": [
        {
          "internalType": "address",
          "name": "token",
          "type": "address"
        },
        {
          "internalType": "uint8",
          "name": "decimals",
          "type": "uint8"
        }
      ],
      "name": "CollateralDecimalsTooHigh",
      "type": "error"
    },
    {
      "inputs": [
        {
          "internalType": "address",
          "name": "implementation",
          "type": "address"
        }
      ],
      "name": "ERC1967InvalidImplementation",
      "type": "error"
    },
    {
      "inputs": [],
      "name": "ERC1967NonPayable",
      "type": "error"
    },
    {
      "inputs": [],
      "name": "FailedCall",
      "type": "error"
    },
    {
      "inputs": [
        {
          "internalType": "address",
          "name": "token",
          "type": "address"
        },
        {
          "internalType": "uint256",
          "name": "requested",
          "type": "uint256"
        },
        {
          "internalType": "uint256",
          "name": "available",
          "type": "uint256"
        }
      ],
      "name": "InsufficientRedeemVaultBalance",
      "type": "error"
    },
    {
      "inputs": [
        {
          "internalType": "address",
          "name": "token",
          "type": "address"
        }
      ],
      "name": "InvalidCollateralToken",
      "type": "error"
    },
    {
      "inputs": [],
      "name": "InvalidInitialization",
      "type": "error"
    },
    {
      "inputs": [],
      "name": "InvalidRedeemAmount",
      "type": "error"
    },
    {
      "inputs": [],
      "name": "NotInitializing",
      "type": "error"
    },
    {
      "inputs": [],
      "name": "ReentrancyGuardReentrantCall",
      "type": "error"
    },
    {
      "inputs": [
        {
          "internalType": "uint8",
          "name": "bits",
          "type": "uint8"
        },
        {
          "internalType": "uint256",
          "name": "value",
          "type": "uint256"
        }
      ],
      "name": "SafeCastOverflowedUintDowncast",
      "type": "error"
    },
    {
      "inputs": [
        {
          "internalType": "address",
          "name": "token",
          "type": "address"
        }
      ],
      "name": "SafeERC20FailedOperation",
      "type": "error"
    },
    {
      "inputs": [
        {
          "internalType": "address",
          "name": "token",
          "type": "address"
        }
      ],
      "name": "TokenAlreadyWhitelisted",
      "type": "error"
    },
    {
      "inputs": [
        {
          "internalType": "address",
          "name": "token",
          "type": "address"
        }
      ],
      "name": "TokenNotInWhitelist",
      "type": "error"
    },
    {
      "inputs": [
        {
          "internalType": "address",
          "name": "token",
          "type": "address"
        }
      ],
      "name": "TokenNotWhitelisted",
      "type": "error"
    },
    {
      "inputs": [],
      "name": "UUPSUnauthorizedCallContext",
      "type": "error"
    },
    {
      "inputs": [
        {
          "internalType": "bytes32",
          "name": "slot",
          "type": "bytes32"
        }
      ],
      "name": "UUPSUnsupportedProxiableUUID",
      "type": "error"
    },
    {
      "inputs": [],
      "name": "ZeroAddress",
      "type": "error"
    },
    {
      "inputs": [],
      "name": "ZeroAmount",
      "type": "error"
    },
    {
      "anonymous": false,
      "inputs": [
        {
          "indexed": true,
          "internalType": "address",
          "name": "token",
          "type": "address"
        }
      ],
      "name": "CollateralTokenAdded",
      "type": "event"
    },
    {
      "anonymous": false,
      "inputs": [
        {
          "indexed": true,
          "internalType": "address",
          "name": "token",
          "type": "address"
        }
      ],
      "name": "CollateralTokenRemoved",
      "type": "event"
    },
    {
      "anonymous": false,
      "inputs": [],
      "name": "DefaultAdminDelayChangeCanceled",
      "type": "event"
    },
    {
      "anonymous": false,
      "inputs": [
        {
          "indexed": false,
          "internalType": "uint48",
          "name": "newDelay",
          "type": "uint48"
        },
        {
          "indexed": false,
          "internalType": "uint48",
          "name": "effectSchedule",
          "type": "uint48"
        }
      ],
      "name": "DefaultAdminDelayChangeScheduled",
      "type": "event"
    },
    {
      "anonymous": false,
      "inputs": [],
      "name": "DefaultAdminTransferCanceled",
      "type": "event"
    },
    {
      "anonymous": false,
      "inputs": [
        {
          "indexed": true,
          "internalType": "address",
          "name": "newAdmin",
          "type": "address"
        },
        {
          "indexed": false,
          "internalType": "uint48",
          "name": "acceptSchedule",
          "type": "uint48"
        }
      ],
      "name": "DefaultAdminTransferScheduled",
      "type": "event"
    },
    {
      "anonymous": false,
      "inputs": [
        {
          "indexed": true,
          "internalType": "address",
          "name": "user",
          "type": "address"
        },
        {
          "indexed": true,
          "internalType": "address",
          "name": "collateralToken",
          "type": "address"
        },
        {
          "indexed": false,
          "internalType": "uint256",
          "name": "collateralAmount",
          "type": "uint256"
        },
        {
          "indexed": false,
          "internalType": "uint256",
          "name": "tokenAmount",
          "type": "uint256"
        }
      ],
      "name": "Deposited",
      "type": "event"
    },
    {
      "anonymous": false,
      "inputs": [
        {
          "indexed": false,
          "internalType": "uint64",
          "name": "version",
          "type": "uint64"
        }
      ],
      "name": "Initialized",
      "type": "event"
    },
    {
      "anonymous": false,
      "inputs": [
        {
          "indexed": true,
          "internalType": "address",
          "name": "token",
          "type": "address"
        },
        {
          "indexed": false,
          "internalType": "uint256",
          "name": "amount",
          "type": "uint256"
        },
        {
          "indexed": true,
          "internalType": "address",
          "name": "depositor",
          "type": "address"
        }
      ],
      "name": "RedeemVaultDeposited",
      "type": "event"
    },
    {
      "anonymous": false,
      "inputs": [
        {
          "indexed": true,
          "internalType": "address",
          "name": "token",
          "type": "address"
        },
        {
          "indexed": false,
          "internalType": "uint256",
          "name": "amount",
          "type": "uint256"
        },
        {
          "indexed": true,
          "internalType": "address",
          "name": "to",
          "type": "address"
        }
      ],
      "name": "RedeemVaultWithdrawn",
      "type": "event"
    },
    {
      "anonymous": false,
      "inputs": [
        {
          "indexed": true,
          "internalType": "address",
          "name": "user",
          "type": "address"
        },
        {
          "indexed": true,
          "internalType": "address",
          "name": "collateralToken",
          "type": "address"
        },
        {
          "indexed": false,
          "internalType": "uint256",
          "name": "tokenAmount",
          "type": "uint256"
        },
        {
          "indexed": false,
          "internalType": "uint256",
          "name": "collateralAmount",
          "type": "uint256"
        }
      ],
      "name": "Redeemed",
      "type": "event"
    },
    {
      "anonymous": false,
      "inputs": [
        {
          "indexed": true,
          "internalType": "bytes32",
          "name": "role",
          "type": "bytes32"
        },
        {
          "indexed": true,
          "internalType": "bytes32",
          "name": "previousAdminRole",
          "type": "bytes32"
        },
        {
          "indexed": true,
          "internalType": "bytes32",
          "name": "newAdminRole",
          "type": "bytes32"
        }
      ],
      "name": "RoleAdminChanged",
      "type": "event"
    },
    {
      "anonymous": false,
      "inputs": [
        {
          "indexed": true,
          "internalType": "bytes32",
          "name": "role",
          "type": "bytes32"
        },
        {
          "indexed": true,
          "internalType": "address",
          "name": "account",
          "type": "address"
        },
        {
          "indexed": true,
          "internalType": "address",
          "name": "sender",
          "type": "address"
        }
      ],
      "name": "RoleGranted",
      "type": "event"
    },
    {
      "anonymous": false,
      "inputs": [
        {
          "indexed": true,
          "internalType": "bytes32",
          "name": "role",
          "type": "bytes32"
        },
        {
          "indexed": true,
          "internalType": "address",
          "name": "account",
          "type": "address"
        },
        {
          "indexed": true,
          "internalType": "address",
          "name": "sender",
          "type": "address"
        }
      ],
      "name": "RoleRevoked",
      "type": "event"
    },
    {
      "anonymous": false,
      "inputs": [
        {
          "indexed": true,
          "internalType": "address",
          "name": "oldVault",
          "type": "address"
        },
        {
          "indexed": true,
          "internalType": "address",
          "name": "newVault",
          "type": "address"
        }
      ],
      "name": "TreasuryVaultUpdated",
      "type": "event"
    },
    {
      "anonymous": false,
      "inputs": [
        {
          "indexed": true,
          "internalType": "address",
          "name": "implementation",
          "type": "address"
        }
      ],
      "name": "Upgraded",
      "type": "event"
    },
    {
      "inputs": [],
      "name": "DEFAULT_ADMIN_ROLE",
      "outputs": [
        {
          "internalType": "bytes32",
          "name": "",
          "type": "bytes32"
        }
      ],
      "stateMutability": "view",
      "type": "function"
    },
    {
      "inputs": [],
      "name": "UPGRADE_INTERFACE_VERSION",
      "outputs": [
        {
          "internalType": "string",
          "name": "",
          "type": "string"
        }
      ],
      "stateMutability": "view",
      "type": "function"
    },
    {
      "inputs": [],
      "name": "acceptDefaultAdminTransfer",
      "outputs": [],
      "stateMutability": "nonpayable",
      "type": "function"
    },
    {
      "inputs": [
        {
          "internalType": "address",
          "name": "token",
          "type": "address"
        }
      ],
      "name": "addCollateralToken",
      "outputs": [],
      "stateMutability": "nonpayable",
      "type": "function"
    },
    {
      "inputs": [
        {
          "internalType": "address",
          "name": "newAdmin",
          "type": "address"
        }
      ],
      "name": "beginDefaultAdminTransfer",
      "outputs": [],
      "stateMutability": "nonpayable",
      "type": "function"
    },
    {
      "inputs": [],
      "name": "cancelDefaultAdminTransfer",
      "outputs": [],
      "stateMutability": "nonpayable",
      "type": "function"
    },
    {
      "inputs": [
        {
          "internalType": "uint48",
          "name": "newDelay",
          "type": "uint48"
        }
      ],
      "name": "changeDefaultAdminDelay",
      "outputs": [],
      "stateMutability": "nonpayable",
      "type": "function"
    },
    {
      "inputs": [],
      "name": "defaultAdmin",
      "outputs": [
        {
          "internalType": "address",
          "name": "",
          "type": "address"
        }
      ],
      "stateMutability": "view",
      "type": "function"
    },
    {
      "inputs": [],
      "name": "defaultAdminDelay",
      "outputs": [
        {
          "internalType": "uint48",
          "name": "",
          "type": "uint48"
        }
      ],
      "stateMutability": "view",
      "type": "function"
    },
    {
      "inputs": [],
      "name": "defaultAdminDelayIncreaseWait",
      "outputs": [
        {
          "internalType": "uint48",
          "name": "",
          "type": "uint48"
        }
      ],
      "stateMutability": "view",
      "type": "function"
    },
    {
      "inputs": [
        {
          "internalType": "address",
          "name": "collateralToken",
          "type": "address"
        },
        {
          "internalType": "uint256",
          "name": "amount",
          "type": "uint256"
        }
      ],
      "name": "deposit",
      "outputs": [],
      "stateMutability": "nonpayable",
      "type": "function"
    },
    {
      "inputs": [
        {
          "internalType": "address",
          "name": "token",
          "type": "address"
        },
        {
          "internalType": "uint256",
          "name": "amount",
          "type": "uint256"
        }
      ],
      "name": "depositToRedeemVault",
      "outputs": [],
      "stateMutability": "nonpayable",
      "type": "function"
    },
    {
      "inputs": [],
      "name": "getCollateralTokens",
      "outputs": [
        {
          "internalType": "address[]",
          "name": "",
          "type": "address[]"
        }
      ],
      "stateMutability": "view",
      "type": "function"
    },
    {
      "inputs": [
        {
          "internalType": "address",
          "name": "token",
          "type": "address"
        }
      ],
      "name": "getRedeemVaultBalance",
      "outputs": [
        {
          "internalType": "uint256",
          "name": "",
          "type": "uint256"
        }
      ],
      "stateMutability": "view",
      "type": "function"
    },
    {
      "inputs": [
        {
          "internalType": "bytes32",
          "name": "role",
          "type": "bytes32"
        }
      ],
      "name": "getRoleAdmin",
      "outputs": [
        {
          "internalType": "bytes32",
          "name": "",
          "type": "bytes32"
        }
      ],
      "stateMutability": "view",
      "type": "function"
    },
    {
      "inputs": [
        {
          "internalType": "bytes32",
          "name": "role",
          "type": "bytes32"
        },
        {
          "internalType": "address",
          "name": "account",
          "type": "address"
        }
      ],
      "name": "grantRole",
      "outputs": [],
      "stateMutability": "nonpayable",
      "type": "function"
    },
    {
      "inputs": [
        {
          "internalType": "bytes32",
          "name": "role",
          "type": "bytes32"
        },
        {
          "internalType": "address",
          "name": "account",
          "type": "address"
        }
      ],
      "name": "hasRole",
      "outputs": [
        {
          "internalType": "bool",
          "name": "",
          "type": "bool"
        }
      ],
      "stateMutability": "view",
      "type": "function"
    },
    {
      "inputs": [
        {
          "internalType": "address",
          "name": "token_",
          "type": "address"
        },
        {
          "internalType": "address",
          "name": "admin_",
          "type": "address"
        },
        {
          "internalType": "address",
          "name": "treasuryVault_",
          "type": "address"
        }
      ],
      "name": "initialize",
      "outputs": [],
      "stateMutability": "nonpayable",
      "type": "function"
    },
    {
      "inputs": [
        {
          "internalType": "address",
          "name": "token",
          "type": "address"
        }
      ],
      "name": "isCollateralToken",
      "outputs": [
        {
          "internalType": "bool",
          "name": "",
          "type": "bool"
        }
      ],
      "stateMutability": "view",
      "type": "function"
    },
    {
      "inputs": [],
      "name": "owner",
      "outputs": [
        {
          "internalType": "address",
          "name": "",
          "type": "address"
        }
      ],
      "stateMutability": "view",
      "type": "function"
    },
    {
      "inputs": [],
      "name": "pendingDefaultAdmin",
      "outputs": [
        {
          "internalType": "address",
          "name": "newAdmin",
          "type": "address"
        },
        {
          "internalType": "uint48",
          "name": "schedule",
          "type": "uint48"
        }
      ],
      "stateMutability": "view",
      "type": "function"
    },
    {
      "inputs": [],
      "name": "pendingDefaultAdminDelay",
      "outputs": [
        {
          "internalType": "uint48",
          "name": "newDelay",
          "type": "uint48"
        },
        {
          "internalType": "uint48",
          "name": "schedule",
          "type": "uint48"
        }
      ],
      "stateMutability": "view",
      "type": "function"
    },
    {
      "inputs": [],
      "name": "proxiableUUID",
      "outputs": [
        {
          "internalType": "bytes32",
          "name": "",
          "type": "bytes32"
        }
      ],
      "stateMutability": "view",
      "type": "function"
    },
    {
      "inputs": [
        {
          "internalType": "address",
          "name": "collateralToken",
          "type": "address"
        },
        {
          "internalType": "uint256",
          "name": "tokenAmount",
          "type": "uint256"
        }
      ],
      "name": "redeem",
      "outputs": [],
      "stateMutability": "nonpayable",
      "type": "function"
    },
    {
      "inputs": [
        {
          "internalType": "address",
          "name": "token",
          "type": "address"
        }
      ],
      "name": "removeCollateralToken",
      "outputs": [],
      "stateMutability": "nonpayable",
      "type": "function"
    },
    {
      "inputs": [
        {
          "internalType": "bytes32",
          "name": "role",
          "type": "bytes32"
        },
        {
          "internalType": "address",
          "name": "account",
          "type": "address"
        }
      ],
      "name": "renounceRole",
      "outputs": [],
      "stateMutability": "nonpayable",
      "type": "function"
    },
    {
      "inputs": [
        {
          "internalType": "bytes32",
          "name": "role",
          "type": "bytes32"
        },
        {
          "internalType": "address",
          "name": "account",
          "type": "address"
        }
      ],
      "name": "revokeRole",
      "outputs": [],
      "stateMutability": "nonpayable",
      "type": "function"
    },
    {
      "inputs": [],
      "name": "rollbackDefaultAdminDelay",
      "outputs": [],
      "stateMutability": "nonpayable",
      "type": "function"
    },
    {
      "inputs": [
        {
          "internalType": "address",
          "name": "newVault",
          "type": "address"
        }
      ],
      "name": "setTreasuryVault",
      "outputs": [],
      "stateMutability": "nonpayable",
      "type": "function"
    },
    {
      "inputs": [],
      "name": "stableToken",
      "outputs": [
        {
          "internalType": "contract IStableToken",
          "name": "",
          "type": "address"
        }
      ],
      "stateMutability": "view",
      "type": "function"
    },
    {
      "inputs": [
        {
          "internalType": "bytes4",
          "name": "interfaceId",
          "type": "bytes4"
        }
      ],
      "name": "supportsInterface",
      "outputs": [
        {
          "internalType": "bool",
          "name": "",
          "type": "bool"
        }
      ],
      "stateMutability": "view",
      "type": "function"
    },
    {
      "inputs": [],
      "name": "treasuryVault",
      "outputs": [
        {
          "internalType": "address",
          "name": "",
          "type": "address"
        }
      ],
      "stateMutability": "view",
      "type": "function"
    },
    {
      "inputs": [
        {
          "internalType": "address",
          "name": "newImplementation",
          "type": "address"
        },
        {
          "internalType": "bytes",
          "name": "data",
          "type": "bytes"
        }
      ],
      "name": "upgradeToAndCall",
      "outputs": [],
      "stateMutability": "payable",
      "type": "function"
    },
    {
      "inputs": [
        {
          "internalType": "address",
          "name": "token",
          "type": "address"
        },
        {
          "internalType": "uint256",
          "name": "amount",
          "type": "uint256"
        },
        {
          "internalType": "address",
          "name": "to",
          "type": "address"
        }
      ],
      "name": "withdrawFromRedeemVault",
      "outputs": [],
      "stateMutability": "nonpayable",
      "type": "function"
    }
  ],
  "bytecode": "0x60a06040523073ffffffffffffffffffffffffffffffffffffffff1660809073ffffffffffffffffffffffffffffffffffffffff16815250348015610042575f5ffd5b5061005161005660201b60201c565b6101d1565b5f61006561015460201b60201c565b9050805f0160089054906101000a900460ff16156100af576040517ff92ee8a900000000000000000000000000000000000000000000000000000000815260040160405180910390fd5b67ffffffffffffffff8016815f015f9054906101000a900467ffffffffffffffff1667ffffffffffffffff16146101515767ffffffffffffffff815f015f6101000a81548167ffffffffffffffff021916908367ffffffffffffffff1602179055507fc7f505b2f371ae2175ee4913f4499e1f2633a7b5936321eed1cdaeb6115181d267ffffffffffffffff60405161014891906101b8565b60405180910390a15b50565b5f5f61016461016d60201b60201c565b90508091505090565b5f7ff0c57e16840df040f15088dc2f81fe391c3923bec73e23a9662efc9c229c6a005f1b905090565b5f67ffffffffffffffff82169050919050565b6101b281610196565b82525050565b5f6020820190506101cb5f8301846101a9565b92915050565b6080516144246101f75f395f818161228c015281816122e101526124a001526144245ff3fe6080604052600436106101f8575f3560e01c806391d148541161010c578063b58eb63f1161009f578063cf6eefb71161006e578063cf6eefb7146106bb578063d547741f146106e6578063d5f80c341461070e578063d602b9fd14610736578063e634c6a41461074c576101f8565b8063b58eb63f14610629578063c0c53b8b14610653578063cc8463c81461067b578063cefc1429146106a5576101f8565b8063a9d75b2b116100db578063a9d75b2b14610583578063ad3cb1cc146105ad578063af8b1c6f146105d7578063b04c4af614610601576101f8565b806391d14854146104ca57806394f9059f14610506578063a1eda53c1461052e578063a217fddf14610559576101f8565b80634766162c1161018f57806353a0b3d41161015e57806353a0b3d4146103fe578063634e93da14610426578063649a5ec71461044e57806384ef8ffc146104765780638da5cb5b146104a0576101f8565b80634766162c1461035457806347e7ef24146103905780634f1ef286146103b857806352d1902d146103d4576101f8565b8063248a9ca3116101cb578063248a9ca3146102a057806329918899146102dc5780632f2ff15d1461030457806336568abe1461032c576101f8565b806301ffc9a7146101fc578063022d63fb146102385780630aa6220b146102625780631e9a695014610278575b5f5ffd5b348015610207575f5ffd5b50610222600480360381019061021d91906135ef565b610788565b60405161022f9190613634565b60405180910390f35b348015610243575f5ffd5b5061024c610801565b604051610259919061366d565b60405180910390f35b34801561026d575f5ffd5b5061027661080b565b005b348015610283575f5ffd5b5061029e60048036038101906102999190613713565b610822565b005b3480156102ab575f5ffd5b506102c660048036038101906102c19190613784565b610afa565b6040516102d391906137be565b60405180910390f35b3480156102e7575f5ffd5b5061030260048036038101906102fd91906137d7565b610b24565b005b34801561030f575f5ffd5b5061032a60048036038101906103259190613802565b610dd5565b005b348015610337575f5ffd5b50610352600480360381019061034d9190613802565b610e1e565b005b34801561035f575f5ffd5b5061037a600480360381019061037591906137d7565b610f3d565b6040516103879190613634565b60405180910390f35b34801561039b575f5ffd5b506103b660048036038101906103b19190613713565b610f59565b005b6103d260048036038101906103cd919061397c565b61118f565b005b3480156103df575f5ffd5b506103e86111ae565b6040516103f591906137be565b60405180910390f35b348015610409575f5ffd5b50610424600480360381019061041f91906139d6565b6111df565b005b348015610431575f5ffd5b5061044c600480360381019061044791906137d7565b6113f4565b005b348015610459575f5ffd5b50610474600480360381019061046f9190613a50565b61140d565b005b348015610481575f5ffd5b5061048a611426565b6040516104979190613a8a565b60405180910390f35b3480156104ab575f5ffd5b506104b461145c565b6040516104c19190613a8a565b60405180910390f35b3480156104d5575f5ffd5b506104f060048036038101906104eb9190613802565b61146a565b6040516104fd9190613634565b60405180910390f35b348015610511575f5ffd5b5061052c600480360381019061052791906137d7565b6114db565b005b348015610539575f5ffd5b506105426115cf565b604051610550929190613aa3565b60405180910390f35b348015610564575f5ffd5b5061056d61163d565b60405161057a91906137be565b60405180910390f35b34801561058e575f5ffd5b50610597611643565b6040516105a49190613b25565b60405180910390f35b3480156105b8575f5ffd5b506105c1611667565b6040516105ce9190613b9e565b60405180910390f35b3480156105e2575f5ffd5b506105eb6116a0565b6040516105f89190613a8a565b60405180910390f35b34801561060c575f5ffd5b5061062760048036038101906106229190613713565b6116c5565b005b348015610634575f5ffd5b5061063d611806565b60405161064a9190613c75565b60405180910390f35b34801561065e575f5ffd5b5061067960048036038101906106749190613c95565b611817565b005b348015610686575f5ffd5b5061068f611aff565b60405161069c919061366d565b60405180910390f35b3480156106b0575f5ffd5b506106b9611b7d565b005b3480156106c6575f5ffd5b506106cf611c12565b6040516106dd929190613ce5565b60405180910390f35b3480156106f1575f5ffd5b5061070c60048036038101906107079190613802565b611c61565b005b348015610719575f5ffd5b50610734600480360381019061072f91906137d7565b611caa565b005b348015610741575f5ffd5b5061074a611ddf565b005b348015610757575f5ffd5b50610772600480360381019061076d91906137d7565b611df6565b60405161077f9190613d1b565b60405180910390f35b5f7f31498786000000000000000000000000000000000000000000000000000000007bffffffffffffffffffffffffffffffffffffffffffffffffffffffff1916827bffffffffffffffffffffffffffffffffffffffffffffffffffffffff191614806107fa57506107f982611e76565b5b9050919050565b5f62069780905090565b5f5f1b61081781611eef565b61081f611f03565b50565b61082a611f0f565b5f8103610863576040517f1f2a200500000000000000000000000000000000000000000000000000000000815260040160405180910390fd5b610877826002611f6390919063ffffffff16565b6108b857816040517fea3bff2e0000000000000000000000000000000000000000000000000000000081526004016108af9190613a8a565b60405180910390fd5b5f61090c8260045f8673ffffffffffffffffffffffffffffffffffffffff1673ffffffffffffffffffffffffffffffffffffffff1681526020019081526020015f205f9054906101000a900460ff16611f90565b90505f8373ffffffffffffffffffffffffffffffffffffffff166370a08231306040518263ffffffff1660e01b81526004016109489190613a8a565b602060405180830381865afa158015610963573d5f5f3e3d5ffd5b505050506040513d601f19601f820116820180604052508101906109879190613d48565b9050818110156109d2578382826040517f1b0663a60000000000000000000000000000000000000000000000000000000081526004016109c993929190613d73565b60405180910390fd5b5f5f9054906101000a900473ffffffffffffffffffffffffffffffffffffffff1673ffffffffffffffffffffffffffffffffffffffff16639dc29fac33856040518363ffffffff1660e01b8152600401610a2d929190613da8565b5f604051808303815f87803b158015610a44575f5ffd5b505af1158015610a56573d5f5f3e3d5ffd5b50505050610a8533838673ffffffffffffffffffffffffffffffffffffffff166120069092919063ffffffff16565b8373ffffffffffffffffffffffffffffffffffffffff163373ffffffffffffffffffffffffffffffffffffffff167f5cdf07ad0fc222442720b108e3ed4c4640f0fadc2ab2253e66f259a0fea834808585604051610ae4929190613dcf565b60405180910390a35050610af6612085565b5050565b5f5f610b0461209c565b9050805f015f8481526020019081526020015f2060010154915050919050565b5f5f1b610b3081611eef565b5f73ffffffffffffffffffffffffffffffffffffffff168273ffffffffffffffffffffffffffffffffffffffff1603610b95576040517fd92e233d00000000000000000000000000000000000000000000000000000000815260040160405180910390fd5b5f5f9054906101000a900473ffffffffffffffffffffffffffffffffffffffff1673ffffffffffffffffffffffffffffffffffffffff168273ffffffffffffffffffffffffffffffffffffffff1603610c2557816040517fc47118b1000000000000000000000000000000000000000000000000000000008152600401610c1c9190613a8a565b60405180910390fd5b610c398260026120c390919063ffffffff16565b610c7a57816040517f01e23575000000000000000000000000000000000000000000000000000000008152600401610c719190613a8a565b60405180910390fd5b5f8273ffffffffffffffffffffffffffffffffffffffff1663313ce5676040518163ffffffff1660e01b8152600401602060405180830381865afa158015610cc4573d5f5f3e3d5ffd5b505050506040513d601f19601f82011682018060405250810190610ce89190613e2c565b9050601260ff168160ff161115610d385782816040517f3df48395000000000000000000000000000000000000000000000000000000008152600401610d2f929190613e66565b60405180910390fd5b8060045f8573ffffffffffffffffffffffffffffffffffffffff1673ffffffffffffffffffffffffffffffffffffffff1681526020019081526020015f205f6101000a81548160ff021916908360ff1602179055508273ffffffffffffffffffffffffffffffffffffffff167fd61bc477a25fa080e2c32ed9e4417ba4861d11b873216136586ddedadcff2f0260405160405180910390a2505050565b5f5f1b8203610e10576040517f3fc3c27a00000000000000000000000000000000000000000000000000000000815260040160405180910390fd5b610e1a82826120f0565b5050565b5f610e27612112565b90505f5f1b83148015610e6c5750610e3d611426565b73ffffffffffffffffffffffffffffffffffffffff168273ffffffffffffffffffffffffffffffffffffffff16145b15610f2e575f5f610e7b611c12565b915091505f73ffffffffffffffffffffffffffffffffffffffff168273ffffffffffffffffffffffffffffffffffffffff16141580610ec05750610ebe81612139565b155b80610ed15750610ecf8161214d565b155b15610f1357806040517f19ca5ebb000000000000000000000000000000000000000000000000000000008152600401610f0a919061366d565b60405180910390fd5b825f0160146101000a81549065ffffffffffff021916905550505b610f388383612160565b505050565b5f610f52826002611f6390919063ffffffff16565b9050919050565b610f61611f0f565b5f8103610f9a576040517f1f2a200500000000000000000000000000000000000000000000000000000000815260040160405180910390fd5b610fae826002611f6390919063ffffffff16565b610fef57816040517fea3bff2e000000000000000000000000000000000000000000000000000000008152600401610fe69190613a8a565b60405180910390fd5b61103d3360015f9054906101000a900473ffffffffffffffffffffffffffffffffffffffff16838573ffffffffffffffffffffffffffffffffffffffff166121db909392919063ffffffff16565b5f6110918260045f8673ffffffffffffffffffffffffffffffffffffffff1673ffffffffffffffffffffffffffffffffffffffff1681526020019081526020015f205f9054906101000a900460ff1661225d565b90505f5f9054906101000a900473ffffffffffffffffffffffffffffffffffffffff1673ffffffffffffffffffffffffffffffffffffffff166340c10f1933836040518363ffffffff1660e01b81526004016110ee929190613da8565b5f604051808303815f87803b158015611105575f5ffd5b505af1158015611117573d5f5f3e3d5ffd5b505050508273ffffffffffffffffffffffffffffffffffffffff163373ffffffffffffffffffffffffffffffffffffffff167ff5681f9d0db1b911ac18ee83d515a1cf1051853a9eae418316a2fdf7dea427c5848460405161117a929190613dcf565b60405180910390a35061118b612085565b5050565b61119761228a565b6111a082612370565b6111aa8282612380565b5050565b5f6111b761249e565b7f360894a13ba1a3210667c828492db98dca3e2076cc3735a920a3ca505d382bbc5f1b905090565b5f5f1b6111eb81611eef565b6111f3611f0f565b5f830361122c576040517f1f2a200500000000000000000000000000000000000000000000000000000000815260040160405180910390fd5b5f73ffffffffffffffffffffffffffffffffffffffff168273ffffffffffffffffffffffffffffffffffffffff1603611291576040517fd92e233d00000000000000000000000000000000000000000000000000000000815260040160405180910390fd5b5f8473ffffffffffffffffffffffffffffffffffffffff166370a08231306040518263ffffffff1660e01b81526004016112cb9190613a8a565b602060405180830381865afa1580156112e6573d5f5f3e3d5ffd5b505050506040513d601f19601f8201168201806040525081019061130a9190613d48565b905083811015611355578484826040517f1b0663a600000000000000000000000000000000000000000000000000000000815260040161134c93929190613d73565b60405180910390fd5b61138083858773ffffffffffffffffffffffffffffffffffffffff166120069092919063ffffffff16565b8273ffffffffffffffffffffffffffffffffffffffff168573ffffffffffffffffffffffffffffffffffffffff167f812a047e4a8cc1a99e929004bf14d064e1f152009dc5f3b3af8b13b626b90e34866040516113dd9190613d1b565b60405180910390a3506113ee612085565b50505050565b5f5f1b61140081611eef565b61140982612525565b5050565b5f5f1b61141981611eef565b6114228261259f565b5050565b5f5f611430612112565b9050806001015f9054906101000a900473ffffffffffffffffffffffffffffffffffffffff1691505090565b5f611465611426565b905090565b5f5f61147461209c565b9050805f015f8581526020019081526020015f205f015f8473ffffffffffffffffffffffffffffffffffffffff1673ffffffffffffffffffffffffffffffffffffffff1681526020019081526020015f205f9054906101000a900460ff1691505092915050565b5f5f1b6114e781611eef565b6114fb82600261260590919063ffffffff16565b61153c57816040517f03e6a9d10000000000000000000000000000000000000000000000000000000081526004016115339190613a8a565b60405180910390fd5b60045f8373ffffffffffffffffffffffffffffffffffffffff1673ffffffffffffffffffffffffffffffffffffffff1681526020019081526020015f205f6101000a81549060ff02191690558173ffffffffffffffffffffffffffffffffffffffff167f066186f1dd144b0baa72e90264076813d8f2dfce7c39704ea68d159cee4305b760405160405180910390a25050565b5f5f5f6115da612112565b905080600101601a9054906101000a900465ffffffffffff1691506115fe82612139565b8015611610575061160e8261214d565b155b61161b575f5f611634565b8060010160149054906101000a900465ffffffffffff16825b92509250509091565b5f5f1b81565b5f5f9054906101000a900473ffffffffffffffffffffffffffffffffffffffff1681565b6040518060400160405280600581526020017f352e302e3000000000000000000000000000000000000000000000000000000081525081565b60015f9054906101000a900473ffffffffffffffffffffffffffffffffffffffff1681565b5f5f1b6116d181611eef565b6116d9611f0f565b5f8203611712576040517f1f2a200500000000000000000000000000000000000000000000000000000000815260040160405180910390fd5b611726836002611f6390919063ffffffff16565b61176757826040517fea3bff2e00000000000000000000000000000000000000000000000000000000815260040161175e9190613a8a565b60405180910390fd5b6117943330848673ffffffffffffffffffffffffffffffffffffffff166121db909392919063ffffffff16565b3373ffffffffffffffffffffffffffffffffffffffff168373ffffffffffffffffffffffffffffffffffffffff167f7a765deb5be302d0bd67428e9cf99f38e03d19276d42073f45d25d3169964e65846040516117f19190613d1b565b60405180910390a3611801612085565b505050565b60606118126002612632565b905090565b5f611820612651565b90505f815f0160089054906101000a900460ff161590505f825f015f9054906101000a900467ffffffffffffffff1690505f5f8267ffffffffffffffff161480156118685750825b90505f60018367ffffffffffffffff1614801561189b57505f3073ffffffffffffffffffffffffffffffffffffffff163b145b9050811580156118a9575080155b156118e0576040517ff92ee8a900000000000000000000000000000000000000000000000000000000815260040160405180910390fd5b6001855f015f6101000a81548167ffffffffffffffff021916908367ffffffffffffffff160217905550831561192d576001855f0160086101000a81548160ff0219169083151502179055505b5f73ffffffffffffffffffffffffffffffffffffffff168873ffffffffffffffffffffffffffffffffffffffff16148061199257505f73ffffffffffffffffffffffffffffffffffffffff168773ffffffffffffffffffffffffffffffffffffffff16145b806119c857505f73ffffffffffffffffffffffffffffffffffffffff168673ffffffffffffffffffffffffffffffffffffffff16145b156119ff576040517fd92e233d00000000000000000000000000000000000000000000000000000000815260040160405180910390fd5b611a0c6201518088612664565b611a1461267a565b611a1c61268c565b875f5f6101000a81548173ffffffffffffffffffffffffffffffffffffffff021916908373ffffffffffffffffffffffffffffffffffffffff1602179055508560015f6101000a81548173ffffffffffffffffffffffffffffffffffffffff021916908373ffffffffffffffffffffffffffffffffffffffff1602179055508315611af5575f855f0160086101000a81548160ff0219169083151502179055507fc7f505b2f371ae2175ee4913f4499e1f2633a7b5936321eed1cdaeb6115181d26001604051611aec9190613ed9565b60405180910390a15b5050505050505050565b5f5f611b09612112565b90505f81600101601a9054906101000a900465ffffffffffff169050611b2e81612139565b8015611b3f5750611b3e8161214d565b5b611b5e57815f01601a9054906101000a900465ffffffffffff16611b76565b8160010160149054906101000a900465ffffffffffff165b9250505090565b5f611b86611c12565b5090508073ffffffffffffffffffffffffffffffffffffffff16611ba8612696565b73ffffffffffffffffffffffffffffffffffffffff1614611c0757611bcb612696565b6040517fc22c8022000000000000000000000000000000000000000000000000000000008152600401611bfe9190613a8a565b60405180910390fd5b611c0f61269d565b50565b5f5f5f611c1d612112565b9050805f015f9054906101000a900473ffffffffffffffffffffffffffffffffffffffff16815f0160149054906101000a900465ffffffffffff1692509250509091565b5f5f1b8203611c9c576040517f3fc3c27a00000000000000000000000000000000000000000000000000000000815260040160405180910390fd5b611ca68282612776565b5050565b5f5f1b611cb681611eef565b5f73ffffffffffffffffffffffffffffffffffffffff168273ffffffffffffffffffffffffffffffffffffffff1603611d1b576040517fd92e233d00000000000000000000000000000000000000000000000000000000815260040160405180910390fd5b5f60015f9054906101000a900473ffffffffffffffffffffffffffffffffffffffff1690508260015f6101000a81548173ffffffffffffffffffffffffffffffffffffffff021916908373ffffffffffffffffffffffffffffffffffffffff1602179055508273ffffffffffffffffffffffffffffffffffffffff168173ffffffffffffffffffffffffffffffffffffffff167f778f2d251afdc17fa625a18a46d08dbd53984e3d992036151d5f53377ed96ea860405160405180910390a3505050565b5f5f1b611deb81611eef565b611df3612798565b50565b5f8173ffffffffffffffffffffffffffffffffffffffff166370a08231306040518263ffffffff1660e01b8152600401611e309190613a8a565b602060405180830381865afa158015611e4b573d5f5f3e3d5ffd5b505050506040513d601f19601f82011682018060405250810190611e6f9190613d48565b9050919050565b5f7f7965db0b000000000000000000000000000000000000000000000000000000007bffffffffffffffffffffffffffffffffffffffffffffffffffffffff1916827bffffffffffffffffffffffffffffffffffffffffffffffffffffffff19161480611ee85750611ee7826127a4565b5b9050919050565b611f0081611efb612696565b61280d565b50565b611f0d5f5f61285e565b565b5f611f18612962565b90506002815f015403611f57576040517f3ee5aeb500000000000000000000000000000000000000000000000000000000815260040160405180910390fd5b6002815f018190555050565b5f611f88835f018373ffffffffffffffffffffffffffffffffffffffff165f1b612989565b905092915050565b5f5f826012611f9f9190613f1f565b600a611fab9190614082565b90505f8185611fba91906140f9565b14611ff1576040517f918e94c500000000000000000000000000000000000000000000000000000000815260040160405180910390fd5b8084611ffd9190614129565b91505092915050565b612080838473ffffffffffffffffffffffffffffffffffffffff1663a9059cbb8585604051602401612039929190613da8565b604051602081830303815290604052915060e01b6020820180517bffffffffffffffffffffffffffffffffffffffffffffffffffffffff83818316178352505050506129a9565b505050565b5f61208e612962565b90506001815f018190555050565b5f7f02dd7bc7dec4dceedda775e58dd541e08a116c6c53815c0bd028192f7b626800905090565b5f6120e8835f018373ffffffffffffffffffffffffffffffffffffffff165f1b612a44565b905092915050565b6120f982610afa565b61210281611eef565b61210c8383612aab565b50505050565b5f7feef3dac4538c82c8ace4063ab0acd2d15cdb5883aa1dff7c2673abb3d8698400905090565b5f5f8265ffffffffffff1614159050919050565b5f428265ffffffffffff16109050919050565b612168612696565b73ffffffffffffffffffffffffffffffffffffffff168173ffffffffffffffffffffffffffffffffffffffff16146121cc576040517f6697b23200000000000000000000000000000000000000000000000000000000815260040160405180910390fd5b6121d68282612b82565b505050565b612257848573ffffffffffffffffffffffffffffffffffffffff166323b872dd86868660405160240161221093929190614159565b604051602081830303815290604052915060e01b6020820180517bffffffffffffffffffffffffffffffffffffffffffffffffffffffff83818316178352505050506129a9565b50505050565b5f81601261226b9190613f1f565b600a6122779190614082565b83612282919061418e565b905092915050565b7f000000000000000000000000000000000000000000000000000000000000000073ffffffffffffffffffffffffffffffffffffffff163073ffffffffffffffffffffffffffffffffffffffff16148061233757507f000000000000000000000000000000000000000000000000000000000000000073ffffffffffffffffffffffffffffffffffffffff1661231e612c10565b73ffffffffffffffffffffffffffffffffffffffff1614155b1561236e576040517fe07c8dba00000000000000000000000000000000000000000000000000000000815260040160405180910390fd5b565b5f5f1b61237c81611eef565b5050565b8173ffffffffffffffffffffffffffffffffffffffff166352d1902d6040518163ffffffff1660e01b8152600401602060405180830381865afa9250505080156123e857506040513d601f19601f820116820180604052508101906123e591906141e3565b60015b61242957816040517f4c9c8ce30000000000000000000000000000000000000000000000000000000081526004016124209190613a8a565b60405180910390fd5b7f360894a13ba1a3210667c828492db98dca3e2076cc3735a920a3ca505d382bbc5f1b811461248f57806040517faa1d49a400000000000000000000000000000000000000000000000000000000815260040161248691906137be565b60405180910390fd5b6124998383612c63565b505050565b7f000000000000000000000000000000000000000000000000000000000000000073ffffffffffffffffffffffffffffffffffffffff163073ffffffffffffffffffffffffffffffffffffffff1614612523576040517fe07c8dba00000000000000000000000000000000000000000000000000000000815260040160405180910390fd5b565b5f61252e611aff565b61253742612cd5565b612541919061420e565b905061254d8282612d2e565b8173ffffffffffffffffffffffffffffffffffffffff167f3377dc44241e779dd06afab5b788a35ca5f3b778836e2990bdb26a2a4b2e5ed682604051612593919061366d565b60405180910390a25050565b5f6125a982612ded565b6125b242612cd5565b6125bc919061420e565b90506125c8828261285e565b7ff1038c18cf84a56e432fdbfaf746924b7ea511dfe03a6506a0ceba4888788d9b82826040516125f9929190613aa3565b60405180910390a15050565b5f61262a835f018373ffffffffffffffffffffffffffffffffffffffff165f1b612e4b565b905092915050565b60605f612640835f01612f47565b905060608190508092505050919050565b5f5f61265b612fa0565b90508091505090565b61266c612fc9565b6126768282613009565b5050565b612682612fc9565b61268a6130c4565b565b612694612fc9565b565b5f33905090565b5f6126a6612112565b90505f5f6126b2611c12565b915091506126bf81612139565b15806126d157506126cf8161214d565b155b1561271357806040517f19ca5ebb00000000000000000000000000000000000000000000000000000000815260040161270a919061366d565b60405180910390fd5b6127265f5f1b612721611426565b612b82565b506127335f5f1b83612aab565b50825f015f6101000a81549073ffffffffffffffffffffffffffffffffffffffff0219169055825f0160146101000a81549065ffffffffffff0219169055505050565b61277f82610afa565b61278881611eef565b6127928383612b82565b50505050565b6127a25f5f612d2e565b565b5f7f01ffc9a7000000000000000000000000000000000000000000000000000000007bffffffffffffffffffffffffffffffffffffffffffffffffffffffff1916827bffffffffffffffffffffffffffffffffffffffffffffffffffffffff1916149050919050565b612817828261146a565b61285a5780826040517fe2517d3f000000000000000000000000000000000000000000000000000000008152600401612851929190614247565b60405180910390fd5b5050565b5f612867612112565b90505f81600101601a9054906101000a900465ffffffffffff16905061288c81612139565b1561290e5761289a8161214d565b156128e0578160010160149054906101000a900465ffffffffffff16825f01601a6101000a81548165ffffffffffff021916908365ffffffffffff16021790555061290d565b7f2b1fa2edafe6f7b9e97c1a9e0c3660e645beb2dcaa2d45bdbf9beaf5472e1ec560405160405180910390a15b5b838260010160146101000a81548165ffffffffffff021916908365ffffffffffff1602179055508282600101601a6101000a81548165ffffffffffff021916908365ffffffffffff16021790555050505050565b5f7f9b779b17422d0df92223018b32b4d1fa46e071723d6817e2486d003becc55f00905090565b5f5f836001015f8481526020019081526020015f20541415905092915050565b5f5f60205f8451602086015f885af1806129c8576040513d5f823e3d81fd5b3d92505f519150505f82146129e15760018114156129fc565b5f8473ffffffffffffffffffffffffffffffffffffffff163b145b15612a3e57836040517f5274afe7000000000000000000000000000000000000000000000000000000008152600401612a359190613a8a565b60405180910390fd5b50505050565b5f612a4f8383612989565b612aa157825f0182908060018154018082558091505060019003905f5260205f20015f9091909190915055825f0180549050836001015f8481526020019081526020015f208190555060019050612aa5565b5f90505b92915050565b5f5f612ab5612112565b90505f5f1b8403612b6f575f73ffffffffffffffffffffffffffffffffffffffff16612adf611426565b73ffffffffffffffffffffffffffffffffffffffff1614612b2c576040517f3fc3c27a00000000000000000000000000000000000000000000000000000000815260040160405180910390fd5b82816001015f6101000a81548173ffffffffffffffffffffffffffffffffffffffff021916908373ffffffffffffffffffffffffffffffffffffffff1602179055505b612b7984846130e3565b91505092915050565b5f5f612b8c612112565b90505f5f1b84148015612bd15750612ba2611426565b73ffffffffffffffffffffffffffffffffffffffff168373ffffffffffffffffffffffffffffffffffffffff16145b15612bfd57806001015f6101000a81549073ffffffffffffffffffffffffffffffffffffffff02191690555b612c0784846131db565b91505092915050565b5f612c3c7f360894a13ba1a3210667c828492db98dca3e2076cc3735a920a3ca505d382bbc5f1b6132d3565b5f015f9054906101000a900473ffffffffffffffffffffffffffffffffffffffff16905090565b612c6c826132dc565b8173ffffffffffffffffffffffffffffffffffffffff167fbc7cd75a20ee27fd9adebab32041f755214dbc6bffa90cc0225b39da2e5c2d3b60405160405180910390a25f81511115612cc857612cc282826133a5565b50612cd1565b612cd0613425565b5b5050565b5f65ffffffffffff8016821115612d26576030826040517f6dfcc650000000000000000000000000000000000000000000000000000000008152600401612d1d9291906142a7565b60405180910390fd5b819050919050565b5f612d37612112565b90505f612d42611c12565b91505083825f015f6101000a81548173ffffffffffffffffffffffffffffffffffffffff021916908373ffffffffffffffffffffffffffffffffffffffff16021790555082825f0160146101000a81548165ffffffffffff021916908365ffffffffffff160217905550612db581612139565b15612de7577f8886ebfc4259abdbc16601dd8fb5678e54878f47b3c34836cfc51154a960510960405160405180910390a15b50505050565b5f5f612df7611aff565b90508065ffffffffffff168365ffffffffffff1611612e21578281612e1c91906142ce565b612e43565b612e428365ffffffffffff16612e35610801565b65ffffffffffff16613461565b5b915050919050565b5f5f836001015f8481526020019081526020015f205490505f8114612f3c575f600182612e789190614307565b90505f6001865f0180549050612e8e9190614307565b9050808214612ef4575f865f018281548110612ead57612eac61433a565b5b905f5260205f200154905080875f018481548110612ece57612ecd61433a565b5b905f5260205f20018190555083876001015f8381526020019081526020015f2081905550505b855f01805480612f0757612f06614367565b5b600190038181905f5260205f20015f90559055856001015f8681526020019081526020015f205f905560019350505050612f41565b5f9150505b92915050565b6060815f01805480602002602001604051908101604052809291908181526020018280548015612f9457602002820191905f5260205f20905b815481526020019060010190808311612f80575b50505050509050919050565b5f7ff0c57e16840df040f15088dc2f81fe391c3923bec73e23a9662efc9c229c6a005f1b905090565b612fd1613477565b613007576040517fd7e6bcf800000000000000000000000000000000000000000000000000000000815260040160405180910390fd5b565b613011612fc9565b5f61301a612112565b90505f73ffffffffffffffffffffffffffffffffffffffff168273ffffffffffffffffffffffffffffffffffffffff160361308c575f6040517fc22c80220000000000000000000000000000000000000000000000000000000081526004016130839190613a8a565b60405180910390fd5b82815f01601a6101000a81548165ffffffffffff021916908365ffffffffffff1602179055506130be5f5f1b83612aab565b50505050565b6130cc612fc9565b5f6130d5612962565b90506001815f018190555050565b5f5f6130ed61209c565b90506130f9848461146a565b6131d0576001815f015f8681526020019081526020015f205f015f8573ffffffffffffffffffffffffffffffffffffffff1673ffffffffffffffffffffffffffffffffffffffff1681526020019081526020015f205f6101000a81548160ff02191690831515021790555061316c612696565b73ffffffffffffffffffffffffffffffffffffffff168373ffffffffffffffffffffffffffffffffffffffff16857f2f8788117e7eff1d82e926ec794901d17c78024a50270940304540a733656f0d60405160405180910390a460019150506131d5565b5f9150505b92915050565b5f5f6131e561209c565b90506131f1848461146a565b156132c8575f815f015f8681526020019081526020015f205f015f8573ffffffffffffffffffffffffffffffffffffffff1673ffffffffffffffffffffffffffffffffffffffff1681526020019081526020015f205f6101000a81548160ff021916908315150217905550613264612696565b73ffffffffffffffffffffffffffffffffffffffff168373ffffffffffffffffffffffffffffffffffffffff16857ff6391f5c32d9c69d2a47ea670b442974b53935d1edc7fd64eb21e047a839171b60405160405180910390a460019150506132cd565b5f9150505b92915050565b5f819050919050565b5f8173ffffffffffffffffffffffffffffffffffffffff163b0361333757806040517f4c9c8ce300000000000000000000000000000000000000000000000000000000815260040161332e9190613a8a565b60405180910390fd5b806133637f360894a13ba1a3210667c828492db98dca3e2076cc3735a920a3ca505d382bbc5f1b6132d3565b5f015f6101000a81548173ffffffffffffffffffffffffffffffffffffffff021916908373ffffffffffffffffffffffffffffffffffffffff16021790555050565b60605f5f8473ffffffffffffffffffffffffffffffffffffffff16846040516133ce91906143d8565b5f60405180830381855af49150503d805f8114613406576040519150601f19603f3d011682016040523d82523d5f602084013e61340b565b606091505b509150915061341b858383613495565b9250505092915050565b5f34111561345f576040517fb398979f00000000000000000000000000000000000000000000000000000000815260040160405180910390fd5b565b5f61346f8284108484613522565b905092915050565b5f613480612651565b5f0160089054906101000a900460ff16905090565b6060826134aa576134a58261353b565b61351a565b5f82511480156134d057505f8473ffffffffffffffffffffffffffffffffffffffff163b145b1561351257836040517f9996b3150000000000000000000000000000000000000000000000000000000081526004016135099190613a8a565b60405180910390fd5b81905061351b565b5b9392505050565b5f61352c8461357e565b82841802821890509392505050565b5f8151111561354c57805160208201fd5b6040517fd6bda27500000000000000000000000000000000000000000000000000000000815260040160405180910390fd5b5f8115159050919050565b5f604051905090565b5f5ffd5b5f5ffd5b5f7fffffffff0000000000000000000000000000000000000000000000000000000082169050919050565b6135ce8161359a565b81146135d8575f5ffd5b50565b5f813590506135e9816135c5565b92915050565b5f6020828403121561360457613603613592565b5b5f613611848285016135db565b91505092915050565b5f8115159050919050565b61362e8161361a565b82525050565b5f6020820190506136475f830184613625565b92915050565b5f65ffffffffffff82169050919050565b6136678161364d565b82525050565b5f6020820190506136805f83018461365e565b92915050565b5f73ffffffffffffffffffffffffffffffffffffffff82169050919050565b5f6136af82613686565b9050919050565b6136bf816136a5565b81146136c9575f5ffd5b50565b5f813590506136da816136b6565b92915050565b5f819050919050565b6136f2816136e0565b81146136fc575f5ffd5b50565b5f8135905061370d816136e9565b92915050565b5f5f6040838503121561372957613728613592565b5b5f613736858286016136cc565b9250506020613747858286016136ff565b9150509250929050565b5f819050919050565b61376381613751565b811461376d575f5ffd5b50565b5f8135905061377e8161375a565b92915050565b5f6020828403121561379957613798613592565b5b5f6137a684828501613770565b91505092915050565b6137b881613751565b82525050565b5f6020820190506137d15f8301846137af565b92915050565b5f602082840312156137ec576137eb613592565b5b5f6137f9848285016136cc565b91505092915050565b5f5f6040838503121561381857613817613592565b5b5f61382585828601613770565b9250506020613836858286016136cc565b9150509250929050565b5f5ffd5b5f5ffd5b5f601f19601f8301169050919050565b7f4e487b71000000000000000000000000000000000000000000000000000000005f52604160045260245ffd5b61388e82613848565b810181811067ffffffffffffffff821117156138ad576138ac613858565b5b80604052505050565b5f6138bf613589565b90506138cb8282613885565b919050565b5f67ffffffffffffffff8211156138ea576138e9613858565b5b6138f382613848565b9050602081019050919050565b828183375f83830152505050565b5f61392061391b846138d0565b6138b6565b90508281526020810184848401111561393c5761393b613844565b5b613947848285613900565b509392505050565b5f82601f83011261396357613962613840565b5b813561397384826020860161390e565b91505092915050565b5f5f6040838503121561399257613991613592565b5b5f61399f858286016136cc565b925050602083013567ffffffffffffffff8111156139c0576139bf613596565b5b6139cc8582860161394f565b9150509250929050565b5f5f5f606084860312156139ed576139ec613592565b5b5f6139fa868287016136cc565b9350506020613a0b868287016136ff565b9250506040613a1c868287016136cc565b9150509250925092565b613a2f8161364d565b8114613a39575f5ffd5b50565b5f81359050613a4a81613a26565b92915050565b5f60208284031215613a6557613a64613592565b5b5f613a7284828501613a3c565b91505092915050565b613a84816136a5565b82525050565b5f602082019050613a9d5f830184613a7b565b92915050565b5f604082019050613ab65f83018561365e565b613ac3602083018461365e565b9392505050565b5f819050919050565b5f613aed613ae8613ae384613686565b613aca565b613686565b9050919050565b5f613afe82613ad3565b9050919050565b5f613b0f82613af4565b9050919050565b613b1f81613b05565b82525050565b5f602082019050613b385f830184613b16565b92915050565b5f81519050919050565b5f82825260208201905092915050565b8281835e5f83830152505050565b5f613b7082613b3e565b613b7a8185613b48565b9350613b8a818560208601613b58565b613b9381613848565b840191505092915050565b5f6020820190508181035f830152613bb68184613b66565b905092915050565b5f81519050919050565b5f82825260208201905092915050565b5f819050602082019050919050565b613bf0816136a5565b82525050565b5f613c018383613be7565b60208301905092915050565b5f602082019050919050565b5f613c2382613bbe565b613c2d8185613bc8565b9350613c3883613bd8565b805f5b83811015613c68578151613c4f8882613bf6565b9750613c5a83613c0d565b925050600181019050613c3b565b5085935050505092915050565b5f6020820190508181035f830152613c8d8184613c19565b905092915050565b5f5f5f60608486031215613cac57613cab613592565b5b5f613cb9868287016136cc565b9350506020613cca868287016136cc565b9250506040613cdb868287016136cc565b9150509250925092565b5f604082019050613cf85f830185613a7b565b613d05602083018461365e565b9392505050565b613d15816136e0565b82525050565b5f602082019050613d2e5f830184613d0c565b92915050565b5f81519050613d42816136e9565b92915050565b5f60208284031215613d5d57613d5c613592565b5b5f613d6a84828501613d34565b91505092915050565b5f606082019050613d865f830186613a7b565b613d936020830185613d0c565b613da06040830184613d0c565b949350505050565b5f604082019050613dbb5f830185613a7b565b613dc86020830184613d0c565b9392505050565b5f604082019050613de25f830185613d0c565b613def6020830184613d0c565b9392505050565b5f60ff82169050919050565b613e0b81613df6565b8114613e15575f5ffd5b50565b5f81519050613e2681613e02565b92915050565b5f60208284031215613e4157613e40613592565b5b5f613e4e84828501613e18565b91505092915050565b613e6081613df6565b82525050565b5f604082019050613e795f830185613a7b565b613e866020830184613e57565b9392505050565b5f819050919050565b5f67ffffffffffffffff82169050919050565b5f613ec3613ebe613eb984613e8d565b613aca565b613e96565b9050919050565b613ed381613ea9565b82525050565b5f602082019050613eec5f830184613eca565b92915050565b7f4e487b71000000000000000000000000000000000000000000000000000000005f52601160045260245ffd5b5f613f2982613df6565b9150613f3483613df6565b9250828203905060ff811115613f4d57613f4c613ef2565b5b92915050565b5f8160011c9050919050565b5f5f8291508390505b6001851115613fa857808604811115613f8457613f83613ef2565b5b6001851615613f935780820291505b8081029050613fa185613f53565b9450613f68565b94509492505050565b5f82613fc0576001905061407b565b81613fcd575f905061407b565b8160018114613fe35760028114613fed5761401c565b600191505061407b565b60ff841115613fff57613ffe613ef2565b5b8360020a91508482111561401657614015613ef2565b5b5061407b565b5060208310610133831016604e8410600b84101617156140515782820a90508381111561404c5761404b613ef2565b5b61407b565b61405e8484846001613f5f565b9250905081840481111561407557614074613ef2565b5b81810290505b9392505050565b5f61408c826136e0565b915061409783613df6565b92506140c47fffffffffffffffffffffffffffffffffffffffffffffffffffffffffffffffff8484613fb1565b905092915050565b7f4e487b71000000000000000000000000000000000000000000000000000000005f52601260045260245ffd5b5f614103826136e0565b915061410e836136e0565b92508261411e5761411d6140cc565b5b828206905092915050565b5f614133826136e0565b915061413e836136e0565b92508261414e5761414d6140cc565b5b828204905092915050565b5f60608201905061416c5f830186613a7b565b6141796020830185613a7b565b6141866040830184613d0c565b949350505050565b5f614198826136e0565b91506141a3836136e0565b92508282026141b1816136e0565b915082820484148315176141c8576141c7613ef2565b5b5092915050565b5f815190506141dd8161375a565b92915050565b5f602082840312156141f8576141f7613592565b5b5f614205848285016141cf565b91505092915050565b5f6142188261364d565b91506142238361364d565b9250828201905065ffffffffffff81111561424157614240613ef2565b5b92915050565b5f60408201905061425a5f830185613a7b565b61426760208301846137af565b9392505050565b5f819050919050565b5f61429161428c6142878461426e565b613aca565b613df6565b9050919050565b6142a181614277565b82525050565b5f6040820190506142ba5f830185614298565b6142c76020830184613d0c565b9392505050565b5f6142d88261364d565b91506142e38361364d565b9250828203905065ffffffffffff81111561430157614300613ef2565b5b92915050565b5f614311826136e0565b915061431c836136e0565b925082820390508181111561433457614333613ef2565b5b92915050565b7f4e487b71000000000000000000000000000000000000000000000000000000005f52603260045260245ffd5b7f4e487b71000000000000000000000000000000000000000000000000000000005f52603160045260245ffd5b5f81519050919050565b5f81905092915050565b5f6143b282614394565b6143bc818561439e565b93506143cc818560208601613b58565b80840191505092915050565b5f6143e382846143a8565b91508190509291505056fea264697066735822122004a688fab715e31e0d102791a2dd974d967264a10fa5869c096dc6f40d77292364736f6c634300081c0033",
  "linkReferences": {},
  "deployedLinkReferences": {},
  "immutableReferences": {
    "1500": [
      {
        "length": 32,
        "start": 8844
      },
      {
        "length": 32,
        "start": 8929
      },
      {
        "length": 32,
        "start": 9376
      }
    ]
  },
  "inputSourceName": "project/contracts/Minter.sol",
  "buildInfoId": "solc-0_8_28-7d1d3035daa4d044949e87838a73a1988cc8a69e"
}