{
  "_format": "hh3-artifact-1",
  "contractName": "StableToken",
  "sourceName": "contracts/StableToken.sol",
  "abi": [
    {
      "inputs": [],
      "stateMutability": "nonpayable",
      "type": "constructor"
    },
    {
      "inputs": [],
      "name": "AccessControlBadConfirmation",
      "type": "error"
    },
    {
      "inputs": [
        {
          "internalType": "uint48",
          "name": "schedule",
          "type": "uint48"
        }
      ],
      "name": "AccessControlEnforcedDefaultAdminDelay",
      "type": "error"
    },
    {
      "inputs": [],
      "name": "AccessControlEnforcedDefaultAdminRules",
      "type": "error"
    },
    {
      "inputs": [
        {
          "internalType": "address",
          "name": "defaultAdmin",
          "type": "address"
        }
      ],
      "name": "AccessControlInvalidDefaultAdmin",
      "type": "error"
    },
    {
      "inputs": [
        {
          "internalType": "address",
          "name": "account",
          "type": "address"
        },
        {
          "internalType": "bytes32",
          "name": "neededRole",
          "type": "bytes32"
        }
      ],
      "name": "AccessControlUnauthorizedAccount",
      "type": "error"
    },
    {
      "inputs": [
        {
          "internalType": "address",
          "name": "target",
          "type": "address"
        }
      ],
      "name": "AddressEmptyCode",
      "type": "error"
    },
    {
      "inputs": [],
      "name": "ECDSAInvalidSignature",
      "type": "error"
    },
    {
      "inputs": [
        {
          "internalType": "uint256",
          "name": "length",
          "type": "uint256"
        }
      ],
      "name": "ECDSAInvalidSignatureLength",
      "type": "error"
    },
    {
      "inputs": [
        {
          "internalType": "bytes32",
          "name": "s",
          "type": "bytes32"
        }
      ],
      "name": "ECDSAInvalidSignatureS",
      "type": "error"
    },
    {
      "inputs": [
        {
          "internalType": "address",
          "name": "implementation",
          "type": "address"
        }
      ],
      "name": "ERC1967InvalidImplementation",
      "type": "error"
    },
    {
      "inputs": [],
      "name": "ERC1967NonPayable",
      "type": "error"
    },
    {
      "inputs": [
        {
          "internalType": "address",
          "name": "spender",
          "type": "address"
        },
        {
          "internalType": "uint256",
          "name": "allowance",
          "type": "uint256"
        },
        {
          "internalType": "uint256",
          "name": "needed",
          "type": "uint256"
        }
      ],
      "name": "ERC20InsufficientAllowance",
      "type": "error"
    },
    {
      "inputs": [
        {
          "internalType": "address",
          "name": "sender",
          "type": "address"
        },
        {
          "internalType": "uint256",
          "name": "balance",
          "type": "uint256"
        },
        {
          "internalType": "uint256",
          "name": "needed",
          "type": "uint256"
        }
      ],
      "name": "ERC20InsufficientBalance",
      "type": "error"
    },
    {
      "inputs": [
        {
          "internalType": "address",
          "name": "approver",
          "type": "address"
        }
      ],
      "name": "ERC20InvalidApprover",
      "type": "error"
    },
    {
      "inputs": [
        {
          "internalType": "address",
          "name": "receiver",
          "type": "address"
        }
      ],
      "name": "ERC20InvalidReceiver",
      "type": "error"
    },
    {
      "inputs": [
        {
          "internalType": "address",
          "name": "sender",
          "type": "address"
        }
      ],
      "name": "ERC20InvalidSender",
      "type": "error"
    },
    {
      "inputs": [
        {
          "internalType": "address",
          "name": "spender",
          "type": "address"
        }
      ],
      "name": "ERC20InvalidSpender",
      "type": "error"
    },
    {
      "inputs": [
        {
          "internalType": "uint256",
          "name": "deadline",
          "type": "uint256"
        }
      ],
      "name": "ERC2612ExpiredSignature",
      "type": "error"
    },
    {
      "inputs": [
        {
          "internalType": "address",
          "name": "signer",
          "type": "address"
        },
        {
          "internalType": "address",
          "name": "owner",
          "type": "address"
        }
      ],
      "name": "ERC2612InvalidSigner",
      "type": "error"
    },
    {
      "inputs": [
        {
          "internalType": "uint256",
          "name": "requested",
          "type": "uint256"
        },
        {
          "internalType": "uint256",
          "name": "available",
          "type": "uint256"
        }
      ],
      "name": "ExceedsDailyRewardCap",
      "type": "error"
    },
    {
      "inputs": [
        {
          "internalType": "uint256",
          "name": "capBps",
          "type": "uint256"
        },
        {
          "internalType": "uint256",
          "name": "maxCapBps",
          "type": "uint256"
        }
      ],
      "name": "ExcessiveRewardCap",
      "type": "error"
    },
    {
      "inputs": [],
      "name": "FailedCall",
      "type": "error"
    },
    {
      "inputs": [
        {
          "internalType": "address",
          "name": "account",
          "type": "address"
        },
        {
          "internalType": "uint256",
          "name": "currentNonce",
          "type": "uint256"
        }
      ],
      "name": "InvalidAccountNonce",
      "type": "error"
    },
    {
      "inputs": [],
      "name": "InvalidInitialization",
      "type": "error"
    },
    {
      "inputs": [],
      "name": "InvalidRewardRecipient",
      "type": "error"
    },
    {
      "inputs": [],
      "name": "NotInitializing",
      "type": "error"
    },
    {
      "inputs": [
        {
          "internalType": "uint8",
          "name": "bits",
          "type": "uint8"
        },
        {
          "internalType": "uint256",
          "name": "value",
          "type": "uint256"
        }
      ],
      "name": "SafeCastOverflowedUintDowncast",
      "type": "error"
    },
    {
      "inputs": [],
      "name": "UUPSUnauthorizedCallContext",
      "type": "error"
    },
    {
      "inputs": [
        {
          "internalType": "bytes32",
          "name": "slot",
          "type": "bytes32"
        }
      ],
      "name": "UUPSUnsupportedProxiableUUID",
      "type": "error"
    },
    {
      "inputs": [],
      "name": "ZeroRewardAmount",
      "type": "error"
    },
    {
      "anonymous": false,
      "inputs": [
        {
          "indexed": true,
          "internalType": "address",
          "name": "owner",
          "type": "address"
        },
        {
          "indexed": true,
          "internalType": "address",
          "name": "spender",
          "type": "address"
        },
        {
          "indexed": false,
          "internalType": "uint256",
          "name": "value",
          "type": "uint256"
        }
      ],
      "name": "Approval",
      "type": "event"
    },
    {
      "anonymous": false,
      "inputs": [
        {
          "indexed": false,
          "internalType": "uint256",
          "name": "oldCapBps",
          "type": "uint256"
        },
        {
          "indexed": false,
          "internalType": "uint256",
          "name": "newCapBps",
          "type": "uint256"
        }
      ],
      "name": "DailyRewardCapUpdated",
      "type": "event"
    },
    {
      "anonymous": false,
      "inputs": [],
      "name": "DefaultAdminDelayChangeCanceled",
      "type": "event"
    },
    {
      "anonymous": false,
      "inputs": [
        {
          "indexed": false,
          "internalType": "uint48",
          "name": "newDelay",
          "type": "uint48"
        },
        {
          "indexed": false,
          "internalType": "uint48",
          "name": "effectSchedule",
          "type": "uint48"
        }
      ],
      "name": "DefaultAdminDelayChangeScheduled",
      "type": "event"
    },
    {
      "anonymous": false,
      "inputs": [],
      "name": "DefaultAdminTransferCanceled",
      "type": "event"
    },
    {
      "anonymous": false,
      "inputs": [
        {
          "indexed": true,
          "internalType": "address",
          "name": "newAdmin",
          "type": "address"
        },
        {
          "indexed": false,
          "internalType": "uint48",
          "name": "acceptSchedule",
          "type": "uint48"
        }
      ],
      "name": "DefaultAdminTransferScheduled",
      "type": "event"
    },
    {
      "anonymous": false,
      "inputs": [],
      "name": "EIP712DomainChanged",
      "type": "event"
    },
    {
      "anonymous": false,
      "inputs": [
        {
          "indexed": false,
          "internalType": "uint64",
          "name": "version",
          "type": "uint64"
        }
      ],
      "name": "Initialized",
      "type": "event"
    },
    {
      "anonymous": false,
      "inputs": [
        {
          "indexed": true,
          "internalType": "address",
          "name": "recipient",
          "type": "address"
        },
        {
          "indexed": false,
          "internalType": "uint256",
          "name": "amount",
          "type": "uint256"
        }
      ],
      "name": "RewardMinted",
      "type": "event"
    },
    {
      "anonymous": false,
      "inputs": [
        {
          "indexed": true,
          "internalType": "address",
          "name": "oldRecipient",
          "type": "address"
        },
        {
          "indexed": true,
          "internalType": "address",
          "name": "newRecipient",
          "type": "address"
        }
      ],
      "name": "RewardRecipientUpdated",
      "type": "event"
    },
    {
      "anonymous": false,
      "inputs": [
        {
          "indexed": true,
          "internalType": "bytes32",
          "name": "role",
          "type": "bytes32"
        },
        {
          "indexed": true,
          "internalType": "bytes32",
          "name": "previousAdminRole",
          "type": "bytes32"
        },
        {
          "indexed": true,
          "internalType": "bytes32",
          "name": "newAdminRole",
          "type": "bytes32"
        }
      ],
      "name": "RoleAdminChanged",
      "type": "event"
    },
    {
      "anonymous": false,
      "inputs": [
        {
          "indexed": true,
          "internalType": "bytes32",
          "name": "role",
          "type": "bytes32"
        },
        {
          "indexed": true,
          "internalType": "address",
          "name": "account",
          "type": "address"
        },
        {
          "indexed": true,
          "internalType": "address",
          "name": "sender",
          "type": "address"
        }
      ],
      "name": "RoleGranted",
      "type": "event"
    },
    {
      "anonymous": false,
      "inputs": [
        {
          "indexed": true,
          "internalType": "bytes32",
          "name": "role",
          "type": "bytes32"
        },
        {
          "indexed": true,
          "internalType": "address",
          "name": "account",
          "type": "address"
        },
        {
          "indexed": true,
          "internalType": "address",
          "name": "sender",
          "type": "address"
        }
      ],
      "name": "RoleRevoked",
      "type": "event"
    },
    {
      "anonymous": false,
      "inputs": [
        {
          "indexed": true,
          "internalType": "address",
          "name": "from",
          "type": "address"
        },
        {
          "indexed": true,
          "internalType": "address",
          "name": "to",
          "type": "address"
        },
        {
          "indexed": false,
          "internalType": "uint256",
          "name": "value",
          "type": "uint256"
        }
      ],
      "name": "Transfer",
      "type": "event"
    },
    {
      "anonymous": false,
      "inputs": [
        {
          "indexed": true,
          "internalType": "address",
          "name": "implementation",
          "type": "address"
        }
      ],
      "name": "Upgraded",
      "type": "event"
    },
    {
      "inputs": [],
      "name": "DEFAULT_ADMIN_ROLE",
      "outputs": [
        {
          "internalType": "bytes32",
          "name": "",
          "type": "bytes32"
        }
      ],
      "stateMutability": "view",
      "type": "function"
    },
    {
      "inputs": [],
      "name": "DOMAIN_SEPARATOR",
      "outputs": [
        {
          "internalType": "bytes32",
          "name": "",
          "type": "bytes32"
        }
      ],
      "stateMutability": "view",
      "type": "function"
    },
    {
      "inputs": [],
      "name": "MAX_DAILY_REWARD_CAP_BPS",
      "outputs": [
        {
          "internalType": "uint256",
          "name": "",
          "type": "uint256"
        }
      ],
      "stateMutability": "view",
      "type": "function"
    },
    {
      "inputs": [],
      "name": "MINTER_ROLE",
      "outputs": [
        {
          "internalType": "bytes32",
          "name": "",
          "type": "bytes32"
        }
      ],
      "stateMutability": "view",
      "type": "function"
    },
    {
      "inputs": [],
      "name": "REWARD_DISTRIBUTOR_ROLE",
      "outputs": [
        {
          "internalType": "bytes32",
          "name": "",
          "type": "bytes32"
        }
      ],
      "stateMutability": "view",
      "type": "function"
    },
    {
      "inputs": [],
      "name": "UPGRADE_INTERFACE_VERSION",
      "outputs": [
        {
          "internalType": "string",
          "name": "",
          "type": "string"
        }
      ],
      "stateMutability": "view",
      "type": "function"
    },
    {
      "inputs": [],
      "name": "acceptDefaultAdminTransfer",
      "outputs": [],
      "stateMutability": "nonpayable",
      "type": "function"
    },
    {
      "inputs": [
        {
          "internalType": "address",
          "name": "owner",
          "type": "address"
        },
        {
          "internalType": "address",
          "name": "spender",
          "type": "address"
        }
      ],
      "name": "allowance",
      "outputs": [
        {
          "internalType": "uint256",
          "name": "",
          "type": "uint256"
        }
      ],
      "stateMutability": "view",
      "type": "function"
    },
    {
      "inputs": [
        {
          "internalType": "address",
          "name": "spender",
          "type": "address"
        },
        {
          "internalType": "uint256",
          "name": "value",
          "type": "uint256"
        }
      ],
      "name": "approve",
      "outputs": [
        {
          "internalType": "bool",
          "name": "",
          "type": "bool"
        }
      ],
      "stateMutability": "nonpayable",
      "type": "function"
    },
    {
      "inputs": [],
      "name": "availableRewardMint",
      "outputs": [
        {
          "internalType": "uint256",
          "name": "",
          "type": "uint256"
        }
      ],
      "stateMutability": "view",
      "type": "function"
    },
    {
      "inputs": [
        {
          "internalType": "address",
          "name": "account",
          "type": "address"
        }
      ],
      "name": "balanceOf",
      "outputs": [
        {
          "internalType": "uint256",
          "name": "",
          "type": "uint256"
        }
      ],
      "stateMutability": "view",
      "type": "function"
    },
    {
      "inputs": [
        {
          "internalType": "address",
          "name": "newAdmin",
          "type": "address"
        }
      ],
      "name": "beginDefaultAdminTransfer",
      "outputs": [],
      "stateMutability": "nonpayable",
      "type": "function"
    },
    {
      "inputs": [
        {
          "internalType": "address",
          "name": "from",
          "type": "address"
        },
        {
          "internalType": "uint256",
          "name": "amount",
          "type": "uint256"
        }
      ],
      "name": "burn",
      "outputs": [],
      "stateMutability": "nonpayable",
      "type": "function"
    },
    {
      "inputs": [],
      "name": "cancelDefaultAdminTransfer",
      "outputs": [],
      "stateMutability": "nonpayable",
      "type": "function"
    },
    {
      "inputs": [
        {
          "internalType": "uint48",
          "name": "newDelay",
          "type": "uint48"
        }
      ],
      "name": "changeDefaultAdminDelay",
      "outputs": [],
      "stateMutability": "nonpayable",
      "type": "function"
    },
    {
      "inputs": [],
      "name": "dailyRewardCapBps",
      "outputs": [
        {
          "internalType": "uint256",
          "name": "",
          "type": "uint256"
        }
      ],
      "stateMutability": "view",
      "type": "function"
    },
    {
      "inputs": [],
      "name": "decimals",
      "outputs": [
        {
          "internalType": "uint8",
          "name": "",
          "type": "uint8"
        }
      ],
      "stateMutability": "view",
      "type": "function"
    },
    {
      "inputs": [],
      "name": "defaultAdmin",
      "outputs": [
        {
          "internalType": "address",
          "name": "",
          "type": "address"
        }
      ],
      "stateMutability": "view",
      "type": "function"
    },
    {
      "inputs": [],
      "name": "defaultAdminDelay",
      "outputs": [
        {
          "internalType": "uint48",
          "name": "",
          "type": "uint48"
        }
      ],
      "stateMutability": "view",
      "type": "function"
    },
    {
      "inputs": [],
      "name": "defaultAdminDelayIncreaseWait",
      "outputs": [
        {
          "internalType": "uint48",
          "name": "",
          "type": "uint48"
        }
      ],
      "stateMutability": "view",
      "type": "function"
    },
    {
      "inputs": [],
      "name": "eip712Domain",
      "outputs": [
        {
          "internalType": "bytes1",
          "name": "fields",
          "type": "bytes1"
        },
        {
          "internalType": "string",
          "name": "name",
          "type": "string"
        },
        {
          "internalType": "string",
          "name": "version",
          "type": "string"
        },
        {
          "internalType": "uint256",
          "name": "chainId",
          "type": "uint256"
        },
        {
          "internalType": "address",
          "name": "verifyingContract",
          "type": "address"
        },
        {
          "internalType": "bytes32",
          "name": "salt",
          "type": "bytes32"
        },
        {
          "internalType": "uint256[]",
          "name": "extensions",
          "type": "uint256[]"
        }
      ],
      "stateMutability": "view",
      "type": "function"
    },
    {
      "inputs": [
        {
          "internalType": "bytes32",
          "name": "role",
          "type": "bytes32"
        }
      ],
      "name": "getRoleAdmin",
      "outputs": [
        {
          "internalType": "bytes32",
          "name": "",
          "type": "bytes32"
        }
      ],
      "stateMutability": "view",
      "type": "function"
    },
    {
      "inputs": [
        {
          "internalType": "bytes32",
          "name": "role",
          "type": "bytes32"
        },
        {
          "internalType": "address",
          "name": "account",
          "type": "address"
        }
      ],
      "name": "grantRole",
      "outputs": [],
      "stateMutability": "nonpayable",
      "type": "function"
    },
    {
      "inputs": [
        {
          "internalType": "bytes32",
          "name": "role",
          "type": "bytes32"
        },
        {
          "internalType": "address",
          "name": "account",
          "type": "address"
        }
      ],
      "name": "hasRole",
      "outputs": [
        {
          "internalType": "bool",
          "name": "",
          "type": "bool"
        }
      ],
      "stateMutability": "view",
      "type": "function"
    },
    {
      "inputs": [
        {
          "internalType": "address",
          "name": "admin",
          "type": "address"
        },
        {
          "internalType": "uint256",
          "name": "dailyRewardCapBps_",
          "type": "uint256"
        }
      ],
      "name": "initialize",
      "outputs": [],
      "stateMutability": "nonpayable",
      "type": "function"
    },
    {
      "inputs": [],
      "name": "lastMintDay",
      "outputs": [
        {
          "internalType": "uint256",
          "name": "",
          "type": "uint256"
        }
      ],
      "stateMutability": "view",
      "type": "function"
    },
    {
      "inputs": [
        {
          "internalType": "address",
          "name": "to",
          "type": "address"
        },
        {
          "internalType": "uint256",
          "name": "amount",
          "type": "uint256"
        }
      ],
      "name": "mint",
      "outputs": [],
      "stateMutability": "nonpayable",
      "type": "function"
    },
    {
      "inputs": [
        {
          "internalType": "uint256",
          "name": "amount",
          "type": "uint256"
        }
      ],
      "name": "mintReward",
      "outputs": [],
      "stateMutability": "nonpayable",
      "type": "function"
    },
    {
      "inputs": [],
      "name": "mintedInCurrentPeriod",
      "outputs": [
        {
          "internalType": "uint256",
          "name": "",
          "type": "uint256"
        }
      ],
      "stateMutability": "view",
      "type": "function"
    },
    {
      "inputs": [],
      "name": "name",
      "outputs": [
        {
          "internalType": "string",
          "name": "",
          "type": "string"
        }
      ],
      "stateMutability": "view",
      "type": "function"
    },
    {
      "inputs": [
        {
          "internalType": "address",
          "name": "owner",
          "type": "address"
        }
      ],
      "name": "nonces",
      "outputs": [
        {
          "internalType": "uint256",
          "name": "",
          "type": "uint256"
        }
      ],
      "stateMutability": "view",
      "type": "function"
    },
    {
      "inputs": [],
      "name": "owner",
      "outputs": [
        {
          "internalType": "address",
          "name": "",
          "type": "address"
        }
      ],
      "stateMutability": "view",
      "type": "function"
    },
    {
      "inputs": [],
      "name": "pendingDefaultAdmin",
      "outputs": [
        {
          "internalType": "address",
          "name": "newAdmin",
          "type": "address"
        },
        {
          "internalType": "uint48",
          "name": "schedule",
          "type": "uint48"
        }
      ],
      "stateMutability": "view",
      "type": "function"
    },
    {
      "inputs": [],
      "name": "pendingDefaultAdminDelay",
      "outputs": [
        {
          "internalType": "uint48",
          "name": "newDelay",
          "type": "uint48"
        },
        {
          "internalType": "uint48",
          "name": "schedule",
          "type": "uint48"
        }
      ],
      "stateMutability": "view",
      "type": "function"
    },
    {
      "inputs": [
        {
          "internalType": "address",
          "name": "owner",
          "type": "address"
        },
        {
          "internalType": "address",
          "name": "spender",
          "type": "address"
        },
        {
          "internalType": "uint256",
          "name": "value",
          "type": "uint256"
        },
        {
          "internalType": "uint256",
          "name": "deadline",
          "type": "uint256"
        },
        {
          "internalType": "uint8",
          "name": "v",
          "type": "uint8"
        },
        {
          "internalType": "bytes32",
          "name": "r",
          "type": "bytes32"
        },
        {
          "internalType": "bytes32",
          "name": "s",
          "type": "bytes32"
        }
      ],
      "name": "permit",
      "outputs": [],
      "stateMutability": "nonpayable",
      "type": "function"
    },
    {
      "inputs": [],
      "name": "proxiableUUID",
      "outputs": [
        {
          "internalType": "bytes32",
          "name": "",
          "type": "bytes32"
        }
      ],
      "stateMutability": "view",
      "type": "function"
    },
    {
      "inputs": [
        {
          "internalType": "bytes32",
          "name": "role",
          "type": "bytes32"
        },
        {
          "internalType": "address",
          "name": "account",
          "type": "address"
        }
      ],
      "name": "renounceRole",
      "outputs": [],
      "stateMutability": "nonpayable",
      "type": "function"
    },
    {
      "inputs": [
        {
          "internalType": "bytes32",
          "name": "role",
          "type": "bytes32"
        },
        {
          "internalType": "address",
          "name": "account",
          "type": "address"
        }
      ],
      "name": "revokeRole",
      "outputs": [],
      "stateMutability": "nonpayable",
      "type": "function"
    },
    {
      "inputs": [],
      "name": "rewardRecipient",
      "outputs": [
        {
          "internalType": "address",
          "name": "",
          "type": "address"
        }
      ],
      "stateMutability": "view",
      "type": "function"
    },
    {
      "inputs": [],
      "name": "rollbackDefaultAdminDelay",
      "outputs": [],
      "stateMutability": "nonpayable",
      "type": "function"
    },
    {
      "inputs": [
        {
          "internalType": "uint256",
          "name": "capBps",
          "type": "uint256"
        }
      ],
      "name": "setDailyRewardCap",
      "outputs": [],
      "stateMutability": "nonpayable",
      "type": "function"
    },
    {
      "inputs": [
        {
          "internalType": "address",
          "name": "recipient",
          "type": "address"
        }
      ],
      "name": "setRewardRecipient",
      "outputs": [],
      "stateMutability": "nonpayable",
      "type": "function"
    },
    {
      "inputs": [
        {
          "internalType": "bytes4",
          "name": "interfaceId",
          "type": "bytes4"
        }
      ],
      "name": "supportsInterface",
      "outputs": [
        {
          "internalType": "bool",
          "name": "",
          "type": "bool"
        }
      ],
      "stateMutability": "view",
      "type": "function"
    },
    {
      "inputs": [],
      "name": "symbol",
      "outputs": [
        {
          "internalType": "string",
          "name": "",
          "type": "string"
        }
      ],
      "stateMutability": "view",
      "type": "function"
    },
    {
      "inputs": [],
      "name": "totalSupply",
      "outputs": [
        {
          "internalType": "uint256",
          "name": "",
          "type": "uint256"
        }
      ],
      "stateMutability": "view",
      "type": "function"
    },
    {
      "inputs": [
        {
          "internalType": "address",
          "name": "to",
          "type": "address"
        },
        {
          "internalType": "uint256",
          "name": "value",
          "type": "uint256"
        }
      ],
      "name": "transfer",
      "outputs": [
        {
          "internalType": "bool",
          "name": "",
          "type": "bool"
        }
      ],
      "stateMutability": "nonpayable",
      "type": "function"
    },
    {
      "inputs": [
        {
          "internalType": "address",
          "name": "from",
          "type": "address"
        },
        {
          "internalType": "address",
          "name": "to",
          "type": "address"
        },
        {
          "internalType": "uint256",
          "name": "value",
          "type": "uint256"
        }
      ],
      "name": "transferFrom",
      "outputs": [
        {
          "internalType": "bool",
          "name": "",
          "type": "bool"
        }
      ],
      "stateMutability": "nonpayable",
      "type": "function"
    },
    {
      "inputs": [
        {
          "internalType": "address",
          "name": "newImplementation",
          "type": "address"
        },
        {
          "internalType": "bytes",
          "name": "data",
          "type": "bytes"
        }
      ],
      "name": "upgradeToAndCall",
      "outputs": [],
      "stateMutability": "payable",
      "type": "function"
    }
  ],
  "bytecode": "0x60a06040523073ffffffffffffffffffffffffffffffffffffffff1660809073ffffffffffffffffffffffffffffffffffffffff16815250348015610042575f5ffd5b5061005161005660201b60201c565b6101d1565b5f61006561015460201b60201c565b9050805f0160089054906101000a900460ff16156100af576040517ff92ee8a900000000000000000000000000000000000000000000000000000000815260040160405180910390fd5b67ffffffffffffffff8016815f015f9054906101000a900467ffffffffffffffff1667ffffffffffffffff16146101515767ffffffffffffffff815f015f6101000a81548167ffffffffffffffff021916908367ffffffffffffffff1602179055507fc7f505b2f371ae2175ee4913f4499e1f2633a7b5936321eed1cdaeb6115181d267ffffffffffffffff60405161014891906101b8565b60405180910390a15b50565b5f5f61016461016d60201b60201c565b90508091505090565b5f7ff0c57e16840df040f15088dc2f81fe391c3923bec73e23a9662efc9c229c6a005f1b905090565b5f67ffffffffffffffff82169050919050565b6101b281610196565b82525050565b5f6020820190506101cb5f8301846101a9565b92915050565b608051614e916101f75f395f8181612196015281816121eb01526123aa0152614e915ff3fe608060405260043610610292575f3560e01c806384ef8ffc11610159578063cc8463c8116100c0578063d547741f11610079578063d547741f146109c8578063d602b9fd146109f0578063dd62ed3e14610a06578063e27cafb914610a42578063e521136f14610a6c578063fbc81fc914610a9457610292565b8063cc8463c8146108e3578063cd6dc6871461090d578063cefc142914610935578063cf6eefb71461094b578063d505accf14610976578063d53913931461099e57610292565b80639dc29fac116101125780639dc29fac146107d8578063a1eda53c14610800578063a217fddf1461082b578063a2ab8a9314610855578063a9059cbb1461087d578063ad3cb1cc146108b957610292565b806384ef8ffc146106cc5780638da5cb5b146106f657806390aac79b1461072057806391c0aabf1461074a57806391d148541461077257806395d89b41146107ae57610292565b806332e4bb0a116101fd57806353bf516d116101b657806353bf516d146105aa578063634e93da146105d4578063649a5ec7146105fc57806370a08231146106245780637ecebe001461066057806384b0196e1461069c57610292565b806332e4bb0a146104c05780633644e515146104ea57806336568abe1461051457806340c10f191461053c5780634f1ef2861461056457806352d1902d1461058057610292565b806318160ddd1161024f57806318160ddd146103a257806323b872dd146103cc578063248a9ca3146104085780632b71865b146104445780632f2ff15d1461046e578063313ce5671461049657610292565b806301ffc9a714610296578063022d63fb146102d257806306fdde03146102fc578063095ea7b3146103265780630aa6220b1461036257806317f3334014610378575b5f5ffd5b3480156102a1575f5ffd5b506102bc60048036038101906102b79190613ddb565b610abe565b6040516102c99190613e20565b60405180910390f35b3480156102dd575f5ffd5b506102e6610b37565b6040516102f39190613e59565b60405180910390f35b348015610307575f5ffd5b50610310610b41565b60405161031d9190613ee2565b60405180910390f35b348015610331575f5ffd5b5061034c60048036038101906103479190613f8f565b610bdf565b6040516103599190613e20565b60405180910390f35b34801561036d575f5ffd5b50610376610c01565b005b348015610383575f5ffd5b5061038c610c18565b6040516103999190613fdc565b60405180910390f35b3480156103ad575f5ffd5b506103b6610c3c565b6040516103c39190614004565b60405180910390f35b3480156103d7575f5ffd5b506103f260048036038101906103ed919061401d565b610c53565b6040516103ff9190613e20565b60405180910390f35b348015610413575f5ffd5b5061042e600480360381019061042991906140a0565b610c81565b60405161043b91906140da565b60405180910390f35b34801561044f575f5ffd5b50610458610cab565b6040516104659190614004565b60405180910390f35b348015610479575f5ffd5b50610494600480360381019061048f91906140f3565b610cb0565b005b3480156104a1575f5ffd5b506104aa610cf9565b6040516104b7919061414c565b60405180910390f35b3480156104cb575f5ffd5b506104d4610d01565b6040516104e191906140da565b60405180910390f35b3480156104f5575f5ffd5b506104fe610d25565b60405161050b91906140da565b60405180910390f35b34801561051f575f5ffd5b5061053a600480360381019061053591906140f3565b610d33565b005b348015610547575f5ffd5b50610562600480360381019061055d9190613f8f565b610e52565b005b61057e60048036038101906105799190614291565b610e8b565b005b34801561058b575f5ffd5b50610594610eaa565b6040516105a191906140da565b60405180910390f35b3480156105b5575f5ffd5b506105be610edb565b6040516105cb9190614004565b60405180910390f35b3480156105df575f5ffd5b506105fa60048036038101906105f591906142eb565b610ee1565b005b348015610607575f5ffd5b50610622600480360381019061061d9190614340565b610efa565b005b34801561062f575f5ffd5b5061064a600480360381019061064591906142eb565b610f13565b6040516106579190614004565b60405180910390f35b34801561066b575f5ffd5b50610686600480360381019061068191906142eb565b610f66565b6040516106939190614004565b60405180910390f35b3480156106a7575f5ffd5b506106b0610f77565b6040516106c3979695949392919061445c565b60405180910390f35b3480156106d7575f5ffd5b506106e0611080565b6040516106ed9190613fdc565b60405180910390f35b348015610701575f5ffd5b5061070a6110b6565b6040516107179190613fdc565b60405180910390f35b34801561072b575f5ffd5b506107346110c4565b6040516107419190614004565b60405180910390f35b348015610755575f5ffd5b50610770600480360381019061076b91906144de565b6110ca565b005b34801561077d575f5ffd5b50610798600480360381019061079391906140f3565b61130c565b6040516107a59190613e20565b60405180910390f35b3480156107b9575f5ffd5b506107c261137d565b6040516107cf9190613ee2565b60405180910390f35b3480156107e3575f5ffd5b506107fe60048036038101906107f99190613f8f565b61141b565b005b34801561080b575f5ffd5b50610814611454565b604051610822929190614509565b60405180910390f35b348015610836575f5ffd5b5061083f6114c2565b60405161084c91906140da565b60405180910390f35b348015610860575f5ffd5b5061087b600480360381019061087691906144de565b6114c8565b005b348015610888575f5ffd5b506108a3600480360381019061089e9190613f8f565b611568565b6040516108b09190613e20565b60405180910390f35b3480156108c4575f5ffd5b506108cd61158a565b6040516108da9190613ee2565b60405180910390f35b3480156108ee575f5ffd5b506108f76115c3565b6040516109049190613e59565b60405180910390f35b348015610918575f5ffd5b50610933600480360381019061092e9190613f8f565b611641565b005b348015610940575f5ffd5b506109496118d1565b005b348015610956575f5ffd5b5061095f611966565b60405161096d929190614530565b60405180910390f35b348015610981575f5ffd5b5061099c60048036038101906109979190614581565b6119b5565b005b3480156109a9575f5ffd5b506109b2611afa565b6040516109bf91906140da565b60405180910390f35b3480156109d3575f5ffd5b506109ee60048036038101906109e991906140f3565b611b1e565b005b3480156109fb575f5ffd5b50610a04611b67565b005b348015610a11575f5ffd5b50610a2c6004803603810190610a27919061461e565b611b7e565b604051610a399190614004565b60405180910390f35b348015610a4d575f5ffd5b50610a56611c0e565b604051610a639190614004565b60405180910390f35b348015610a77575f5ffd5b50610a926004803603810190610a8d91906142eb565b611c14565b005b348015610a9f575f5ffd5b50610aa8611d47565b604051610ab59190614004565b60405180910390f35b5f7f31498786000000000000000000000000000000000000000000000000000000007bffffffffffffffffffffffffffffffffffffffffffffffffffffffff1916827bffffffffffffffffffffffffffffffffffffffffffffffffffffffff19161480610b305750610b2f82611d99565b5b9050919050565b5f62069780905090565b60605f610b4c611e12565b9050806003018054610b5d90614689565b80601f0160208091040260200160405190810160405280929190818152602001828054610b8990614689565b8015610bd45780601f10610bab57610100808354040283529160200191610bd4565b820191905f5260205f20905b815481529060010190602001808311610bb757829003601f168201915b505050505091505090565b5f5f610be9611e39565b9050610bf6818585611e40565b600191505092915050565b5f5f1b610c0d81611e52565b610c15611e66565b50565b5f5f9054906101000a900473ffffffffffffffffffffffffffffffffffffffff1681565b5f5f610c46611e12565b9050806002015491505090565b5f5f610c5d611e39565b9050610c6a858285611e72565b610c75858585611f05565b60019150509392505050565b5f5f610c8b611ff5565b9050805f015f8481526020019081526020015f2060010154915050919050565b606481565b5f5f1b8203610ceb576040517f3fc3c27a00000000000000000000000000000000000000000000000000000000815260040160405180910390fd5b610cf5828261201c565b5050565b5f6012905090565b7fb814ff4a26ea3ec5cd1fa579daad86324826254265f3acfec78303a19845b44981565b5f610d2e61203e565b905090565b5f610d3c61204c565b90505f5f1b83148015610d815750610d52611080565b73ffffffffffffffffffffffffffffffffffffffff168273ffffffffffffffffffffffffffffffffffffffff16145b15610e43575f5f610d90611966565b915091505f73ffffffffffffffffffffffffffffffffffffffff168273ffffffffffffffffffffffffffffffffffffffff16141580610dd55750610dd381612073565b155b80610de65750610de481612087565b155b15610e2857806040517f19ca5ebb000000000000000000000000000000000000000000000000000000008152600401610e1f9190613e59565b60405180910390fd5b825f0160146101000a81549065ffffffffffff021916905550505b610e4d838361209a565b505050565b7f9f2df0fed2c77648de5860a4cc508cd0818c85b8b8a1ab4ceeef8d981c8956a6610e7c81611e52565b610e868383612115565b505050565b610e93612194565b610e9c8261227a565b610ea6828261228a565b5050565b5f610eb36123a8565b7f360894a13ba1a3210667c828492db98dca3e2076cc3735a920a3ca505d382bbc5f1b905090565b60025481565b5f5f1b610eed81611e52565b610ef68261242f565b5050565b5f5f1b610f0681611e52565b610f0f826124a9565b5050565b5f5f610f1d611e12565b9050805f015f8473ffffffffffffffffffffffffffffffffffffffff1673ffffffffffffffffffffffffffffffffffffffff1681526020019081526020015f2054915050919050565b5f610f708261250f565b9050919050565b5f6060805f5f5f60605f610f89612562565b90505f5f1b815f0154148015610fa457505f5f1b8160010154145b610fe3576040517f08c379a0000000000000000000000000000000000000000000000000000000008152600401610fda90614703565b60405180910390fd5b610feb612589565b610ff3612627565b46305f5f1b5f67ffffffffffffffff8111156110125761101161416d565b5b6040519080825280602002602001820160405280156110405781602001602082028036833780820191505090505b507f0f0000000000000000000000000000000000000000000000000000000000000095949392919097509750975097509750975097505090919293949596565b5f5f61108a61204c565b9050806001015f9054906101000a900473ffffffffffffffffffffffffffffffffffffffff1691505090565b5f6110bf611080565b905090565b60015481565b7fb814ff4a26ea3ec5cd1fa579daad86324826254265f3acfec78303a19845b4496110f481611e52565b5f820361112d576040517fea1083a700000000000000000000000000000000000000000000000000000000815260040160405180910390fd5b5f73ffffffffffffffffffffffffffffffffffffffff165f5f9054906101000a900473ffffffffffffffffffffffffffffffffffffffff1673ffffffffffffffffffffffffffffffffffffffff16036111b2576040517f90bb71c900000000000000000000000000000000000000000000000000000000815260040160405180910390fd5b5f6111bb6126c5565b90505f6127106001546111cc610c3c565b6111d6919061474e565b6111e091906147bc565b90505f8282116111f0575f6111fd565b82826111fc91906147ec565b5b9050808511156112465784816040517f82b5eb6e00000000000000000000000000000000000000000000000000000000815260040161123d92919061481f565b60405180910390fd5b84836112529190614846565b600281905550620151804261126791906147bc565b6003819055506112975f5f9054906101000a900473ffffffffffffffffffffffffffffffffffffffff1686612115565b5f5f9054906101000a900473ffffffffffffffffffffffffffffffffffffffff1673ffffffffffffffffffffffffffffffffffffffff167fe8ea3d4dd0a2eaaf3f7532ad391255544f8a4bcf78f850bbff61d5bac9f77552866040516112fd9190614004565b60405180910390a25050505050565b5f5f611316611ff5565b9050805f015f8581526020019081526020015f205f015f8473ffffffffffffffffffffffffffffffffffffffff1673ffffffffffffffffffffffffffffffffffffffff1681526020019081526020015f205f9054906101000a900460ff1691505092915050565b60605f611388611e12565b905080600401805461139990614689565b80601f01602080910402602001604051908101604052809291908181526020018280546113c590614689565b80156114105780601f106113e757610100808354040283529160200191611410565b820191905f5260205f20905b8154815290600101906020018083116113f357829003601f168201915b505050505091505090565b7f9f2df0fed2c77648de5860a4cc508cd0818c85b8b8a1ab4ceeef8d981c8956a661144581611e52565b61144f83836126f4565b505050565b5f5f5f61145f61204c565b905080600101601a9054906101000a900465ffffffffffff16915061148382612073565b8015611495575061149382612087565b155b6114a0575f5f6114b9565b8060010160149054906101000a900465ffffffffffff16825b92509250509091565b5f5f1b81565b5f5f1b6114d481611e52565b606482111561151d578160646040517fd256cbab00000000000000000000000000000000000000000000000000000000815260040161151492919061481f565b60405180910390fd5b5f6001549050826001819055507ff60ce759b9e0d2f7b0df39bd258140ff91f3405ca049b50b64fe2903a17baf3c818460405161155b92919061481f565b60405180910390a1505050565b5f5f611572611e39565b905061157f818585611f05565b600191505092915050565b6040518060400160405280600581526020017f352e302e3000000000000000000000000000000000000000000000000000000081525081565b5f5f6115cd61204c565b90505f81600101601a9054906101000a900465ffffffffffff1690506115f281612073565b8015611603575061160281612087565b5b61162257815f01601a9054906101000a900465ffffffffffff1661163a565b8160010160149054906101000a900465ffffffffffff165b9250505090565b5f61164a612773565b90505f815f0160089054906101000a900460ff161590505f825f015f9054906101000a900467ffffffffffffffff1690505f5f8267ffffffffffffffff161480156116925750825b90505f60018367ffffffffffffffff161480156116c557505f3073ffffffffffffffffffffffffffffffffffffffff163b145b9050811580156116d3575080155b1561170a576040517ff92ee8a900000000000000000000000000000000000000000000000000000000815260040160405180910390fd5b6001855f015f6101000a81548167ffffffffffffffff021916908367ffffffffffffffff1602179055508315611757576001855f0160086101000a81548160ff0219169083151502179055505b6117cb6040518060400160405280600b81526020017f537461626c65546f6b656e0000000000000000000000000000000000000000008152506040518060400160405280600481526020017f5354424c00000000000000000000000000000000000000000000000000000000815250612786565b6118096040518060400160405280600b81526020017f537461626c65546f6b656e00000000000000000000000000000000000000000081525061279c565b61181662015180886127e6565b61181e6127fc565b6064861115611867578560646040517fd256cbab00000000000000000000000000000000000000000000000000000000815260040161185e92919061481f565b60405180910390fd5b8560018190555083156118c8575f855f0160086101000a81548160ff0219169083151502179055507fc7f505b2f371ae2175ee4913f4499e1f2633a7b5936321eed1cdaeb6115181d260016040516118bf91906148ce565b60405180910390a15b50505050505050565b5f6118da611966565b5090508073ffffffffffffffffffffffffffffffffffffffff166118fc611e39565b73ffffffffffffffffffffffffffffffffffffffff161461195b5761191f611e39565b6040517fc22c80220000000000000000000000000000000000000000000000000000000081526004016119529190613fdc565b60405180910390fd5b611963612806565b50565b5f5f5f61197161204c565b9050805f015f9054906101000a900473ffffffffffffffffffffffffffffffffffffffff16815f0160149054906101000a900465ffffffffffff1692509250509091565b834211156119fa57836040517f627913020000000000000000000000000000000000000000000000000000000081526004016119f19190614004565b60405180910390fd5b5f7f6e71edae12b1b97f4d1f60370fef10105fa2faae0126114a169c64845d6126c9888888611a288c6128df565b89604051602001611a3e969594939291906148e7565b6040516020818303038152906040528051906020012090505f611a608261293f565b90505f611a6f82878787612958565b90508973ffffffffffffffffffffffffffffffffffffffff168173ffffffffffffffffffffffffffffffffffffffff1614611ae357808a6040517f4b800e46000000000000000000000000000000000000000000000000000000008152600401611ada929190614946565b60405180910390fd5b611aee8a8a8a611e40565b50505050505050505050565b7f9f2df0fed2c77648de5860a4cc508cd0818c85b8b8a1ab4ceeef8d981c8956a681565b5f5f1b8203611b59576040517f3fc3c27a00000000000000000000000000000000000000000000000000000000815260040160405180910390fd5b611b638282612986565b5050565b5f5f1b611b7381611e52565b611b7b6129a8565b50565b5f5f611b88611e12565b9050806001015f8573ffffffffffffffffffffffffffffffffffffffff1673ffffffffffffffffffffffffffffffffffffffff1681526020019081526020015f205f8473ffffffffffffffffffffffffffffffffffffffff1673ffffffffffffffffffffffffffffffffffffffff1681526020019081526020015f205491505092915050565b60035481565b5f5f1b611c2081611e52565b5f73ffffffffffffffffffffffffffffffffffffffff168273ffffffffffffffffffffffffffffffffffffffff1603611c85576040517f90bb71c900000000000000000000000000000000000000000000000000000000815260040160405180910390fd5b5f5f5f9054906101000a900473ffffffffffffffffffffffffffffffffffffffff169050825f5f6101000a81548173ffffffffffffffffffffffffffffffffffffffff021916908373ffffffffffffffffffffffffffffffffffffffff1602179055508273ffffffffffffffffffffffffffffffffffffffff168173ffffffffffffffffffffffffffffffffffffffff167fc8c11bb97ac2ffa10ce2e2a98f4c1fd8df84cfa2e1a15e013ed2383ab1f527ad60405160405180910390a3505050565b5f5f611d516126c5565b90505f612710600154611d62610c3c565b611d6c919061474e565b611d7691906147bc565b9050818111611d85575f611d92565b8181611d9191906147ec565b5b9250505090565b5f7f7965db0b000000000000000000000000000000000000000000000000000000007bffffffffffffffffffffffffffffffffffffffffffffffffffffffff1916827bffffffffffffffffffffffffffffffffffffffffffffffffffffffff19161480611e0b5750611e0a826129b4565b5b9050919050565b5f7f52c63247e1f47db19d5ce0460030c497f067ca4cebf71ba98eeadabe20bace00905090565b5f33905090565b611e4d8383836001612a1d565b505050565b611e6381611e5e611e39565b612bfa565b50565b611e705f5f612c4b565b565b5f611e7d8484611b7e565b90507fffffffffffffffffffffffffffffffffffffffffffffffffffffffffffffffff811015611eff5781811015611ef0578281836040517ffb8f41b2000000000000000000000000000000000000000000000000000000008152600401611ee79392919061496d565b60405180910390fd5b611efe84848484035f612a1d565b5b50505050565b5f73ffffffffffffffffffffffffffffffffffffffff168373ffffffffffffffffffffffffffffffffffffffff1603611f75575f6040517f96c6fd1e000000000000000000000000000000000000000000000000000000008152600401611f6c9190613fdc565b60405180910390fd5b5f73ffffffffffffffffffffffffffffffffffffffff168273ffffffffffffffffffffffffffffffffffffffff1603611fe5575f6040517fec442f05000000000000000000000000000000000000000000000000000000008152600401611fdc9190613fdc565b60405180910390fd5b611ff0838383612d4f565b505050565b5f7f02dd7bc7dec4dceedda775e58dd541e08a116c6c53815c0bd028192f7b626800905090565b61202582610c81565b61202e81611e52565b6120388383612f7e565b50505050565b5f612047613055565b905090565b5f7feef3dac4538c82c8ace4063ab0acd2d15cdb5883aa1dff7c2673abb3d8698400905090565b5f5f8265ffffffffffff1614159050919050565b5f428265ffffffffffff16109050919050565b6120a2611e39565b73ffffffffffffffffffffffffffffffffffffffff168173ffffffffffffffffffffffffffffffffffffffff1614612106576040517f6697b23200000000000000000000000000000000000000000000000000000000815260040160405180910390fd5b61211082826130b8565b505050565b5f73ffffffffffffffffffffffffffffffffffffffff168273ffffffffffffffffffffffffffffffffffffffff1603612185575f6040517fec442f0500000000000000000000000000000000000000000000000000000000815260040161217c9190613fdc565b60405180910390fd5b6121905f8383612d4f565b5050565b7f000000000000000000000000000000000000000000000000000000000000000073ffffffffffffffffffffffffffffffffffffffff163073ffffffffffffffffffffffffffffffffffffffff16148061224157507f000000000000000000000000000000000000000000000000000000000000000073ffffffffffffffffffffffffffffffffffffffff16612228613146565b73ffffffffffffffffffffffffffffffffffffffff1614155b15612278576040517fe07c8dba00000000000000000000000000000000000000000000000000000000815260040160405180910390fd5b565b5f5f1b61228681611e52565b5050565b8173ffffffffffffffffffffffffffffffffffffffff166352d1902d6040518163ffffffff1660e01b8152600401602060405180830381865afa9250505080156122f257506040513d601f19601f820116820180604052508101906122ef91906149b6565b60015b61233357816040517f4c9c8ce300000000000000000000000000000000000000000000000000000000815260040161232a9190613fdc565b60405180910390fd5b7f360894a13ba1a3210667c828492db98dca3e2076cc3735a920a3ca505d382bbc5f1b811461239957806040517faa1d49a400000000000000000000000000000000000000000000000000000000815260040161239091906140da565b60405180910390fd5b6123a38383613199565b505050565b7f000000000000000000000000000000000000000000000000000000000000000073ffffffffffffffffffffffffffffffffffffffff163073ffffffffffffffffffffffffffffffffffffffff161461242d576040517fe07c8dba00000000000000000000000000000000000000000000000000000000815260040160405180910390fd5b565b5f6124386115c3565b6124414261320b565b61244b91906149e1565b90506124578282613264565b8173ffffffffffffffffffffffffffffffffffffffff167f3377dc44241e779dd06afab5b788a35ca5f3b778836e2990bdb26a2a4b2e5ed68260405161249d9190613e59565b60405180910390a25050565b5f6124b382613323565b6124bc4261320b565b6124c691906149e1565b90506124d28282612c4b565b7ff1038c18cf84a56e432fdbfaf746924b7ea511dfe03a6506a0ceba4888788d9b8282604051612503929190614509565b60405180910390a15050565b5f5f612519613381565b9050805f015f8473ffffffffffffffffffffffffffffffffffffffff1673ffffffffffffffffffffffffffffffffffffffff1681526020019081526020015f2054915050919050565b5f7fa16a46d94261c7517cc8ff89f61c0ce93598e3c849801011dee649a6a557d100905090565b60605f612594612562565b90508060020180546125a590614689565b80601f01602080910402602001604051908101604052809291908181526020018280546125d190614689565b801561261c5780601f106125f35761010080835404028352916020019161261c565b820191905f5260205f20905b8154815290600101906020018083116125ff57829003601f168201915b505050505091505090565b60605f612632612562565b905080600301805461264390614689565b80601f016020809104026020016040519081016040528092919081815260200182805461266f90614689565b80156126ba5780601f10612691576101008083540402835291602001916126ba565b820191905f5260205f20905b81548152906001019060200180831161269d57829003601f168201915b505050505091505090565b5f5f62015180426126d691906147bc565b905060035481146126ea575f9150506126f1565b6002549150505b90565b5f73ffffffffffffffffffffffffffffffffffffffff168273ffffffffffffffffffffffffffffffffffffffff1603612764575f6040517f96c6fd1e00000000000000000000000000000000000000000000000000000000815260040161275b9190613fdc565b60405180910390fd5b61276f825f83612d4f565b5050565b5f5f61277d6133a8565b90508091505090565b61278e6133d1565b6127988282613411565b5050565b6127a46133d1565b6127e3816040518060400160405280600181526020017f310000000000000000000000000000000000000000000000000000000000000081525061344d565b50565b6127ee6133d1565b6127f8828261349e565b5050565b6128046133d1565b565b5f61280f61204c565b90505f5f61281b611966565b9150915061282881612073565b158061283a575061283881612087565b155b1561287c57806040517f19ca5ebb0000000000000000000000000000000000000000000000000000000081526004016128739190613e59565b60405180910390fd5b61288f5f5f1b61288a611080565b6130b8565b5061289c5f5f1b83612f7e565b50825f015f6101000a81549073ffffffffffffffffffffffffffffffffffffffff0219169055825f0160146101000a81549065ffffffffffff0219169055505050565b5f5f6128e9613381565b9050805f015f8473ffffffffffffffffffffffffffffffffffffffff1673ffffffffffffffffffffffffffffffffffffffff1681526020019081526020015f205f81548092919060010191905055915050919050565b5f61295161294b61203e565b83613559565b9050919050565b5f5f5f5f61296888888888613599565b9250925092506129788282613680565b829350505050949350505050565b61298f82610c81565b61299881611e52565b6129a283836130b8565b50505050565b6129b25f5f613264565b565b5f7f01ffc9a7000000000000000000000000000000000000000000000000000000007bffffffffffffffffffffffffffffffffffffffffffffffffffffffff1916827bffffffffffffffffffffffffffffffffffffffffffffffffffffffff1916149050919050565b5f612a26611e12565b90505f73ffffffffffffffffffffffffffffffffffffffff168573ffffffffffffffffffffffffffffffffffffffff1603612a98575f6040517fe602df05000000000000000000000000000000000000000000000000000000008152600401612a8f9190613fdc565b60405180910390fd5b5f73ffffffffffffffffffffffffffffffffffffffff168473ffffffffffffffffffffffffffffffffffffffff1603612b08575f6040517f94280d62000000000000000000000000000000000000000000000000000000008152600401612aff9190613fdc565b60405180910390fd5b82816001015f8773ffffffffffffffffffffffffffffffffffffffff1673ffffffffffffffffffffffffffffffffffffffff1681526020019081526020015f205f8673ffffffffffffffffffffffffffffffffffffffff1673ffffffffffffffffffffffffffffffffffffffff1681526020019081526020015f20819055508115612bf3578373ffffffffffffffffffffffffffffffffffffffff168573ffffffffffffffffffffffffffffffffffffffff167f8c5be1e5ebec7d5bd14f71427d1e84f3dd0314c0f7b2291e5b200ac8c7c3b92585604051612bea9190614004565b60405180910390a35b5050505050565b612c04828261130c565b612c475780826040517fe2517d3f000000000000000000000000000000000000000000000000000000008152600401612c3e929190614a1a565b60405180910390fd5b5050565b5f612c5461204c565b90505f81600101601a9054906101000a900465ffffffffffff169050612c7981612073565b15612cfb57612c8781612087565b15612ccd578160010160149054906101000a900465ffffffffffff16825f01601a6101000a81548165ffffffffffff021916908365ffffffffffff160217905550612cfa565b7f2b1fa2edafe6f7b9e97c1a9e0c3660e645beb2dcaa2d45bdbf9beaf5472e1ec560405160405180910390a15b5b838260010160146101000a81548165ffffffffffff021916908365ffffffffffff1602179055508282600101601a6101000a81548165ffffffffffff021916908365ffffffffffff16021790555050505050565b5f612d58611e12565b90505f73ffffffffffffffffffffffffffffffffffffffff168473ffffffffffffffffffffffffffffffffffffffff1603612dac5781816002015f828254612da09190614846565b92505081905550612e7e565b5f815f015f8673ffffffffffffffffffffffffffffffffffffffff1673ffffffffffffffffffffffffffffffffffffffff1681526020019081526020015f2054905082811015612e37578481846040517fe450d38c000000000000000000000000000000000000000000000000000000008152600401612e2e9392919061496d565b60405180910390fd5b828103825f015f8773ffffffffffffffffffffffffffffffffffffffff1673ffffffffffffffffffffffffffffffffffffffff1681526020019081526020015f2081905550505b5f73ffffffffffffffffffffffffffffffffffffffff168373ffffffffffffffffffffffffffffffffffffffff1603612ec75781816002015f8282540392505081905550612f13565b81815f015f8573ffffffffffffffffffffffffffffffffffffffff1673ffffffffffffffffffffffffffffffffffffffff1681526020019081526020015f205f82825401925050819055505b8273ffffffffffffffffffffffffffffffffffffffff168473ffffffffffffffffffffffffffffffffffffffff167fddf252ad1be2c89b69c2b068fc378daa952ba7f163c4a11628f55a4df523b3ef84604051612f709190614004565b60405180910390a350505050565b5f5f612f8861204c565b90505f5f1b8403613042575f73ffffffffffffffffffffffffffffffffffffffff16612fb2611080565b73ffffffffffffffffffffffffffffffffffffffff1614612fff576040517f3fc3c27a00000000000000000000000000000000000000000000000000000000815260040160405180910390fd5b82816001015f6101000a81548173ffffffffffffffffffffffffffffffffffffffff021916908373ffffffffffffffffffffffffffffffffffffffff1602179055505b61304c84846137e2565b91505092915050565b5f7f8b73c3c69bb8fe3d512ecc4cf759cc79239f7b179b0ffacaa9a75d522b39400f61307f6138da565b613087613950565b463060405160200161309d959493929190614a41565b60405160208183030381529060405280519060200120905090565b5f5f6130c261204c565b90505f5f1b8414801561310757506130d8611080565b73ffffffffffffffffffffffffffffffffffffffff168373ffffffffffffffffffffffffffffffffffffffff16145b1561313357806001015f6101000a81549073ffffffffffffffffffffffffffffffffffffffff02191690555b61313d84846139c7565b91505092915050565b5f6131727f360894a13ba1a3210667c828492db98dca3e2076cc3735a920a3ca505d382bbc5f1b613abf565b5f015f9054906101000a900473ffffffffffffffffffffffffffffffffffffffff16905090565b6131a282613ac8565b8173ffffffffffffffffffffffffffffffffffffffff167fbc7cd75a20ee27fd9adebab32041f755214dbc6bffa90cc0225b39da2e5c2d3b60405160405180910390a25f815111156131fe576131f88282613b91565b50613207565b613206613c11565b5b5050565b5f65ffffffffffff801682111561325c576030826040517f6dfcc650000000000000000000000000000000000000000000000000000000008152600401613253929190614acb565b60405180910390fd5b819050919050565b5f61326d61204c565b90505f613278611966565b91505083825f015f6101000a81548173ffffffffffffffffffffffffffffffffffffffff021916908373ffffffffffffffffffffffffffffffffffffffff16021790555082825f0160146101000a81548165ffffffffffff021916908365ffffffffffff1602179055506132eb81612073565b1561331d577f8886ebfc4259abdbc16601dd8fb5678e54878f47b3c34836cfc51154a960510960405160405180910390a15b50505050565b5f5f61332d6115c3565b90508065ffffffffffff168365ffffffffffff16116133575782816133529190614af2565b613379565b6133788365ffffffffffff1661336b610b37565b65ffffffffffff16613c4d565b5b915050919050565b5f7f5ab42ced628888259c08ac98db1eb0cf702fc1501344311d8b100cd1bfe4bb00905090565b5f7ff0c57e16840df040f15088dc2f81fe391c3923bec73e23a9662efc9c229c6a005f1b905090565b6133d9613c63565b61340f576040517fd7e6bcf800000000000000000000000000000000000000000000000000000000815260040160405180910390fd5b565b6134196133d1565b5f613422611e12565b9050828160030190816134359190614cc2565b50818160040190816134479190614cc2565b50505050565b6134556133d1565b5f61345e612562565b9050828160020190816134719190614cc2565b50818160030190816134839190614cc2565b505f5f1b815f01819055505f5f1b8160010181905550505050565b6134a66133d1565b5f6134af61204c565b90505f73ffffffffffffffffffffffffffffffffffffffff168273ffffffffffffffffffffffffffffffffffffffff1603613521575f6040517fc22c80220000000000000000000000000000000000000000000000000000000081526004016135189190613fdc565b60405180910390fd5b82815f01601a6101000a81548165ffffffffffff021916908365ffffffffffff1602179055506135535f5f1b83612f7e565b50505050565b5f6040517f190100000000000000000000000000000000000000000000000000000000000081528360028201528260228201526042812091505092915050565b5f5f5f7f7fffffffffffffffffffffffffffffff5d576e7357a4501ddfe92f46681b20a0845f1c11156135d5575f600385925092509250613676565b5f6001888888886040515f81526020016040526040516135f89493929190614d91565b6020604051602081039080840390855afa158015613618573d5f5f3e3d5ffd5b5050506020604051035190505f73ffffffffffffffffffffffffffffffffffffffff168173ffffffffffffffffffffffffffffffffffffffff1603613669575f60015f5f1b93509350935050613676565b805f5f5f1b935093509350505b9450945094915050565b5f600381111561369357613692614dd4565b5b8260038111156136a6576136a5614dd4565b5b03156137de57600160038111156136c0576136bf614dd4565b5b8260038111156136d3576136d2614dd4565b5b0361370a576040517ff645eedf00000000000000000000000000000000000000000000000000000000815260040160405180910390fd5b6002600381111561371e5761371d614dd4565b5b82600381111561373157613730614dd4565b5b0361377557805f1c6040517ffce698f700000000000000000000000000000000000000000000000000000000815260040161376c9190614004565b60405180910390fd5b60038081111561378857613787614dd4565b5b82600381111561379b5761379a614dd4565b5b036137dd57806040517fd78bce0c0000000000000000000000000000000000000000000000000000000081526004016137d491906140da565b60405180910390fd5b5b5050565b5f5f6137ec611ff5565b90506137f8848461130c565b6138cf576001815f015f8681526020019081526020015f205f015f8573ffffffffffffffffffffffffffffffffffffffff1673ffffffffffffffffffffffffffffffffffffffff1681526020019081526020015f205f6101000a81548160ff02191690831515021790555061386b611e39565b73ffffffffffffffffffffffffffffffffffffffff168373ffffffffffffffffffffffffffffffffffffffff16857f2f8788117e7eff1d82e926ec794901d17c78024a50270940304540a733656f0d60405160405180910390a460019150506138d4565b5f9150505b92915050565b5f5f6138e4612562565b90505f6138ef612589565b90505f8151111561390b5780805190602001209250505061394d565b5f825f015490505f5f1b81146139265780935050505061394d565b7fc5d2460186f7233c927e7db2dcc703c0e500b653ca82273b7bfad8045d85a47093505050505b90565b5f5f61395a612562565b90505f613965612627565b90505f81511115613981578080519060200120925050506139c4565b5f826001015490505f5f1b811461399d578093505050506139c4565b7fc5d2460186f7233c927e7db2dcc703c0e500b653ca82273b7bfad8045d85a47093505050505b90565b5f5f6139d1611ff5565b90506139dd848461130c565b15613ab4575f815f015f8681526020019081526020015f205f015f8573ffffffffffffffffffffffffffffffffffffffff1673ffffffffffffffffffffffffffffffffffffffff1681526020019081526020015f205f6101000a81548160ff021916908315150217905550613a50611e39565b73ffffffffffffffffffffffffffffffffffffffff168373ffffffffffffffffffffffffffffffffffffffff16857ff6391f5c32d9c69d2a47ea670b442974b53935d1edc7fd64eb21e047a839171b60405160405180910390a46001915050613ab9565b5f9150505b92915050565b5f819050919050565b5f8173ffffffffffffffffffffffffffffffffffffffff163b03613b2357806040517f4c9c8ce3000000000000000000000000000000000000000000000000000000008152600401613b1a9190613fdc565b60405180910390fd5b80613b4f7f360894a13ba1a3210667c828492db98dca3e2076cc3735a920a3ca505d382bbc5f1b613abf565b5f015f6101000a81548173ffffffffffffffffffffffffffffffffffffffff021916908373ffffffffffffffffffffffffffffffffffffffff16021790555050565b60605f5f8473ffffffffffffffffffffffffffffffffffffffff1684604051613bba9190614e45565b5f60405180830381855af49150503d805f8114613bf2576040519150601f19603f3d011682016040523d82523d5f602084013e613bf7565b606091505b5091509150613c07858383613c81565b9250505092915050565b5f341115613c4b576040517fb398979f00000000000000000000000000000000000000000000000000000000815260040160405180910390fd5b565b5f613c5b8284108484613d0e565b905092915050565b5f613c6c612773565b5f0160089054906101000a900460ff16905090565b606082613c9657613c9182613d27565b613d06565b5f8251148015613cbc57505f8473ffffffffffffffffffffffffffffffffffffffff163b145b15613cfe57836040517f9996b315000000000000000000000000000000000000000000000000000000008152600401613cf59190613fdc565b60405180910390fd5b819050613d07565b5b9392505050565b5f613d1884613d6a565b82841802821890509392505050565b5f81511115613d3857805160208201fd5b6040517fd6bda27500000000000000000000000000000000000000000000000000000000815260040160405180910390fd5b5f8115159050919050565b5f604051905090565b5f5ffd5b5f5ffd5b5f7fffffffff0000000000000000000000000000000000000000000000000000000082169050919050565b613dba81613d86565b8114613dc4575f5ffd5b50565b5f81359050613dd581613db1565b92915050565b5f60208284031215613df057613def613d7e565b5b5f613dfd84828501613dc7565b91505092915050565b5f8115159050919050565b613e1a81613e06565b82525050565b5f602082019050613e335f830184613e11565b92915050565b5f65ffffffffffff82169050919050565b613e5381613e39565b82525050565b5f602082019050613e6c5f830184613e4a565b92915050565b5f81519050919050565b5f82825260208201905092915050565b8281835e5f83830152505050565b5f601f19601f8301169050919050565b5f613eb482613e72565b613ebe8185613e7c565b9350613ece818560208601613e8c565b613ed781613e9a565b840191505092915050565b5f6020820190508181035f830152613efa8184613eaa565b905092915050565b5f73ffffffffffffffffffffffffffffffffffffffff82169050919050565b5f613f2b82613f02565b9050919050565b613f3b81613f21565b8114613f45575f5ffd5b50565b5f81359050613f5681613f32565b92915050565b5f819050919050565b613f6e81613f5c565b8114613f78575f5ffd5b50565b5f81359050613f8981613f65565b92915050565b5f5f60408385031215613fa557613fa4613d7e565b5b5f613fb285828601613f48565b9250506020613fc385828601613f7b565b9150509250929050565b613fd681613f21565b82525050565b5f602082019050613fef5f830184613fcd565b92915050565b613ffe81613f5c565b82525050565b5f6020820190506140175f830184613ff5565b92915050565b5f5f5f6060848603121561403457614033613d7e565b5b5f61404186828701613f48565b935050602061405286828701613f48565b925050604061406386828701613f7b565b9150509250925092565b5f819050919050565b61407f8161406d565b8114614089575f5ffd5b50565b5f8135905061409a81614076565b92915050565b5f602082840312156140b5576140b4613d7e565b5b5f6140c28482850161408c565b91505092915050565b6140d48161406d565b82525050565b5f6020820190506140ed5f8301846140cb565b92915050565b5f5f6040838503121561410957614108613d7e565b5b5f6141168582860161408c565b925050602061412785828601613f48565b9150509250929050565b5f60ff82169050919050565b61414681614131565b82525050565b5f60208201905061415f5f83018461413d565b92915050565b5f5ffd5b5f5ffd5b7f4e487b71000000000000000000000000000000000000000000000000000000005f52604160045260245ffd5b6141a382613e9a565b810181811067ffffffffffffffff821117156141c2576141c161416d565b5b80604052505050565b5f6141d4613d75565b90506141e0828261419a565b919050565b5f67ffffffffffffffff8211156141ff576141fe61416d565b5b61420882613e9a565b9050602081019050919050565b828183375f83830152505050565b5f614235614230846141e5565b6141cb565b90508281526020810184848401111561425157614250614169565b5b61425c848285614215565b509392505050565b5f82601f83011261427857614277614165565b5b8135614288848260208601614223565b91505092915050565b5f5f604083850312156142a7576142a6613d7e565b5b5f6142b485828601613f48565b925050602083013567ffffffffffffffff8111156142d5576142d4613d82565b5b6142e185828601614264565b9150509250929050565b5f60208284031215614300576142ff613d7e565b5b5f61430d84828501613f48565b91505092915050565b61431f81613e39565b8114614329575f5ffd5b50565b5f8135905061433a81614316565b92915050565b5f6020828403121561435557614354613d7e565b5b5f6143628482850161432c565b91505092915050565b5f7fff0000000000000000000000000000000000000000000000000000000000000082169050919050565b61439f8161436b565b82525050565b5f81519050919050565b5f82825260208201905092915050565b5f819050602082019050919050565b6143d781613f5c565b82525050565b5f6143e883836143ce565b60208301905092915050565b5f602082019050919050565b5f61440a826143a5565b61441481856143af565b935061441f836143bf565b805f5b8381101561444f57815161443688826143dd565b9750614441836143f4565b925050600181019050614422565b5085935050505092915050565b5f60e08201905061446f5f83018a614396565b81810360208301526144818189613eaa565b905081810360408301526144958188613eaa565b90506144a46060830187613ff5565b6144b16080830186613fcd565b6144be60a08301856140cb565b81810360c08301526144d08184614400565b905098975050505050505050565b5f602082840312156144f3576144f2613d7e565b5b5f61450084828501613f7b565b91505092915050565b5f60408201905061451c5f830185613e4a565b6145296020830184613e4a565b9392505050565b5f6040820190506145435f830185613fcd565b6145506020830184613e4a565b9392505050565b61456081614131565b811461456a575f5ffd5b50565b5f8135905061457b81614557565b92915050565b5f5f5f5f5f5f5f60e0888a03121561459c5761459b613d7e565b5b5f6145a98a828b01613f48565b97505060206145ba8a828b01613f48565b96505060406145cb8a828b01613f7b565b95505060606145dc8a828b01613f7b565b94505060806145ed8a828b0161456d565b93505060a06145fe8a828b0161408c565b92505060c061460f8a828b0161408c565b91505092959891949750929550565b5f5f6040838503121561463457614633613d7e565b5b5f61464185828601613f48565b925050602061465285828601613f48565b9150509250929050565b7f4e487b71000000000000000000000000000000000000000000000000000000005f52602260045260245ffd5b5f60028204905060018216806146a057607f821691505b6020821081036146b3576146b261465c565b5b50919050565b7f4549503731323a20556e696e697469616c697a656400000000000000000000005f82015250565b5f6146ed601583613e7c565b91506146f8826146b9565b602082019050919050565b5f6020820190508181035f83015261471a816146e1565b9050919050565b7f4e487b71000000000000000000000000000000000000000000000000000000005f52601160045260245ffd5b5f61475882613f5c565b915061476383613f5c565b925082820261477181613f5c565b9150828204841483151761478857614787614721565b5b5092915050565b7f4e487b71000000000000000000000000000000000000000000000000000000005f52601260045260245ffd5b5f6147c682613f5c565b91506147d183613f5c565b9250826147e1576147e061478f565b5b828204905092915050565b5f6147f682613f5c565b915061480183613f5c565b925082820390508181111561481957614818614721565b5b92915050565b5f6040820190506148325f830185613ff5565b61483f6020830184613ff5565b9392505050565b5f61485082613f5c565b915061485b83613f5c565b925082820190508082111561487357614872614721565b5b92915050565b5f819050919050565b5f67ffffffffffffffff82169050919050565b5f819050919050565b5f6148b86148b36148ae84614879565b614895565b614882565b9050919050565b6148c88161489e565b82525050565b5f6020820190506148e15f8301846148bf565b92915050565b5f60c0820190506148fa5f8301896140cb565b6149076020830188613fcd565b6149146040830187613fcd565b6149216060830186613ff5565b61492e6080830185613ff5565b61493b60a0830184613ff5565b979650505050505050565b5f6040820190506149595f830185613fcd565b6149666020830184613fcd565b9392505050565b5f6060820190506149805f830186613fcd565b61498d6020830185613ff5565b61499a6040830184613ff5565b949350505050565b5f815190506149b081614076565b92915050565b5f602082840312156149cb576149ca613d7e565b5b5f6149d8848285016149a2565b91505092915050565b5f6149eb82613e39565b91506149f683613e39565b9250828201905065ffffffffffff811115614a1457614a13614721565b5b92915050565b5f604082019050614a2d5f830185613fcd565b614a3a60208301846140cb565b9392505050565b5f60a082019050614a545f8301886140cb565b614a6160208301876140cb565b614a6e60408301866140cb565b614a7b6060830185613ff5565b614a886080830184613fcd565b9695505050505050565b5f819050919050565b5f614ab5614ab0614aab84614a92565b614895565b614131565b9050919050565b614ac581614a9b565b82525050565b5f604082019050614ade5f830185614abc565b614aeb6020830184613ff5565b9392505050565b5f614afc82613e39565b9150614b0783613e39565b9250828203905065ffffffffffff811115614b2557614b24614721565b5b92915050565b5f819050815f5260205f209050919050565b5f6020601f8301049050919050565b5f82821b905092915050565b5f60088302614b877fffffffffffffffffffffffffffffffffffffffffffffffffffffffffffffffff82614b4c565b614b918683614b4c565b95508019841693508086168417925050509392505050565b5f614bc3614bbe614bb984613f5c565b614895565b613f5c565b9050919050565b5f819050919050565b614bdc83614ba9565b614bf0614be882614bca565b848454614b58565b825550505050565b5f5f905090565b614c07614bf8565b614c12818484614bd3565b505050565b5b81811015614c3557614c2a5f82614bff565b600181019050614c18565b5050565b601f821115614c7a57614c4b81614b2b565b614c5484614b3d565b81016020851015614c63578190505b614c77614c6f85614b3d565b830182614c17565b50505b505050565b5f82821c905092915050565b5f614c9a5f1984600802614c7f565b1980831691505092915050565b5f614cb28383614c8b565b9150826002028217905092915050565b614ccb82613e72565b67ffffffffffffffff811115614ce457614ce361416d565b5b614cee8254614689565b614cf9828285614c39565b5f60209050601f831160018114614d2a575f8415614d18578287015190505b614d228582614ca7565b865550614d89565b601f198416614d3886614b2b565b5f5b82811015614d5f57848901518255600182019150602085019450602081019050614d3a565b86831015614d7c5784890151614d78601f891682614c8b565b8355505b6001600288020188555050505b505050505050565b5f608082019050614da45f8301876140cb565b614db1602083018661413d565b614dbe60408301856140cb565b614dcb60608301846140cb565b95945050505050565b7f4e487b71000000000000000000000000000000000000000000000000000000005f52602160045260245ffd5b5f81519050919050565b5f81905092915050565b5f614e1f82614e01565b614e298185614e0b565b9350614e39818560208601613e8c565b80840191505092915050565b5f614e508284614e15565b91508190509291505056fea2646970667358221220e006e7f24f474d80a7cc0f0a05082e0c1ba2ab4b12346df2c3309e3537bbdeba64736f6c634300081c0033",
  "linkReferences": {},
  "deployedLinkReferences": {},
  "immutableReferences": {
    "1500": [
      {
        "length": 32,
        "start": 8598
      },
      {
        "length": 32,
        "start": 8683
      },
      {
        "length": 32,
        "start": 9130
      }
    ]
  },
  "inputSourceName": "project/contracts/StableToken.sol",
  "buildInfoId": "solc-0_8_28-1781996ed53822e0485aeee19985c5b25d16e4b9"
}