{
  "_format": "hh3-artifact-1",
  "contractName": "StakingVault",
  "sourceName": "contracts/StakingVault.sol",
  "abi": [
    {
      "inputs": [],
      "stateMutability": "nonpayable",
      "type": "constructor"
    },
    {
      "inputs": [],
      "name": "AccessControlBadConfirmation",
      "type": "error"
    },
    {
      "inputs": [
        {
          "internalType": "uint48",
          "name": "schedule",
          "type": "uint48"
        }
      ],
      "name": "AccessControlEnforcedDefaultAdminDelay",
      "type": "error"
    },
    {
      "inputs": [],
      "name": "AccessControlEnforcedDefaultAdminRules",
      "type": "error"
    },
    {
      "inputs": [
        {
          "internalType": "address",
          "name": "defaultAdmin",
          "type": "address"
        }
      ],
      "name": "AccessControlInvalidDefaultAdmin",
      "type": "error"
    },
    {
      "inputs": [
        {
          "internalType": "address",
          "name": "account",
          "type": "address"
        },
        {
          "internalType": "bytes32",
          "name": "neededRole",
          "type": "bytes32"
        }
      ],
      "name": "AccessControlUnauthorizedAccount",
      "type": "error"
    },
    {
      "inputs": [
        {
          "internalType": "address",
          "name": "target",
          "type": "address"
        }
      ],
      "name": "AddressEmptyCode",
      "type": "error"
    },
    {
      "inputs": [],
      "name": "BelowMinimumDeposit",
      "type": "error"
    },
    {
      "inputs": [],
      "name": "DepositsPaused",
      "type": "error"
    },
    {
      "inputs": [],
      "name": "ECDSAInvalidSignature",
      "type": "error"
    },
    {
      "inputs": [
        {
          "internalType": "uint256",
          "name": "length",
          "type": "uint256"
        }
      ],
      "name": "ECDSAInvalidSignatureLength",
      "type": "error"
    },
    {
      "inputs": [
        {
          "internalType": "bytes32",
          "name": "s",
          "type": "bytes32"
        }
      ],
      "name": "ECDSAInvalidSignatureS",
      "type": "error"
    },
    {
      "inputs": [
        {
          "internalType": "address",
          "name": "implementation",
          "type": "address"
        }
      ],
      "name": "ERC1967InvalidImplementation",
      "type": "error"
    },
    {
      "inputs": [],
      "name": "ERC1967NonPayable",
      "type": "error"
    },
    {
      "inputs": [
        {
          "internalType": "address",
          "name": "spender",
          "type": "address"
        },
        {
          "internalType": "uint256",
          "name": "allowance",
          "type": "uint256"
        },
        {
          "internalType": "uint256",
          "name": "needed",
          "type": "uint256"
        }
      ],
      "name": "ERC20InsufficientAllowance",
      "type": "error"
    },
    {
      "inputs": [
        {
          "internalType": "address",
          "name": "sender",
          "type": "address"
        },
        {
          "internalType": "uint256",
          "name": "balance",
          "type": "uint256"
        },
        {
          "internalType": "uint256",
          "name": "needed",
          "type": "uint256"
        }
      ],
      "name": "ERC20InsufficientBalance",
      "type": "error"
    },
    {
      "inputs": [
        {
          "internalType": "address",
          "name": "approver",
          "type": "address"
        }
      ],
      "name": "ERC20InvalidApprover",
      "type": "error"
    },
    {
      "inputs": [
        {
          "internalType": "address",
          "name": "receiver",
          "type": "address"
        }
      ],
      "name": "ERC20InvalidReceiver",
      "type": "error"
    },
    {
      "inputs": [
        {
          "internalType": "address",
          "name": "sender",
          "type": "address"
        }
      ],
      "name": "ERC20InvalidSender",
      "type": "error"
    },
    {
      "inputs": [
        {
          "internalType": "address",
          "name": "spender",
          "type": "address"
        }
      ],
      "name": "ERC20InvalidSpender",
      "type": "error"
    },
    {
      "inputs": [
        {
          "internalType": "uint256",
          "name": "deadline",
          "type": "uint256"
        }
      ],
      "name": "ERC2612ExpiredSignature",
      "type": "error"
    },
    {
      "inputs": [
        {
          "internalType": "address",
          "name": "signer",
          "type": "address"
        },
        {
          "internalType": "address",
          "name": "owner",
          "type": "address"
        }
      ],
      "name": "ERC2612InvalidSigner",
      "type": "error"
    },
    {
      "inputs": [],
      "name": "ExcessiveDelay",
      "type": "error"
    },
    {
      "inputs": [],
      "name": "FailedCall",
      "type": "error"
    },
    {
      "inputs": [],
      "name": "InsufficientBalance",
      "type": "error"
    },
    {
      "inputs": [],
      "name": "InsufficientUnlockedBalance",
      "type": "error"
    },
    {
      "inputs": [
        {
          "internalType": "address",
          "name": "account",
          "type": "address"
        },
        {
          "internalType": "uint256",
          "name": "currentNonce",
          "type": "uint256"
        }
      ],
      "name": "InvalidAccountNonce",
      "type": "error"
    },
    {
      "inputs": [],
      "name": "InvalidInitialization",
      "type": "error"
    },
    {
      "inputs": [],
      "name": "NoRedemptionRequest",
      "type": "error"
    },
    {
      "inputs": [],
      "name": "NotInitializing",
      "type": "error"
    },
    {
      "inputs": [],
      "name": "PendingRedemptionExists",
      "type": "error"
    },
    {
      "inputs": [],
      "name": "RedemptionNotReady",
      "type": "error"
    },
    {
      "inputs": [],
      "name": "RedemptionsPaused",
      "type": "error"
    },
    {
      "inputs": [],
      "name": "ReentrancyGuardReentrantCall",
      "type": "error"
    },
    {
      "inputs": [
        {
          "internalType": "uint8",
          "name": "bits",
          "type": "uint8"
        },
        {
          "internalType": "uint256",
          "name": "value",
          "type": "uint256"
        }
      ],
      "name": "SafeCastOverflowedUintDowncast",
      "type": "error"
    },
    {
      "inputs": [
        {
          "internalType": "address",
          "name": "token",
          "type": "address"
        }
      ],
      "name": "SafeERC20FailedOperation",
      "type": "error"
    },
    {
      "inputs": [],
      "name": "UUPSUnauthorizedCallContext",
      "type": "error"
    },
    {
      "inputs": [
        {
          "internalType": "bytes32",
          "name": "slot",
          "type": "bytes32"
        }
      ],
      "name": "UUPSUnsupportedProxiableUUID",
      "type": "error"
    },
    {
      "inputs": [],
      "name": "ZeroAddress",
      "type": "error"
    },
    {
      "inputs": [],
      "name": "ZeroAmount",
      "type": "error"
    },
    {
      "anonymous": false,
      "inputs": [
        {
          "indexed": true,
          "internalType": "address",
          "name": "owner",
          "type": "address"
        },
        {
          "indexed": true,
          "internalType": "address",
          "name": "spender",
          "type": "address"
        },
        {
          "indexed": false,
          "internalType": "uint256",
          "name": "value",
          "type": "uint256"
        }
      ],
      "name": "Approval",
      "type": "event"
    },
    {
      "anonymous": false,
      "inputs": [],
      "name": "DefaultAdminDelayChangeCanceled",
      "type": "event"
    },
    {
      "anonymous": false,
      "inputs": [
        {
          "indexed": false,
          "internalType": "uint48",
          "name": "newDelay",
          "type": "uint48"
        },
        {
          "indexed": false,
          "internalType": "uint48",
          "name": "effectSchedule",
          "type": "uint48"
        }
      ],
      "name": "DefaultAdminDelayChangeScheduled",
      "type": "event"
    },
    {
      "anonymous": false,
      "inputs": [],
      "name": "DefaultAdminTransferCanceled",
      "type": "event"
    },
    {
      "anonymous": false,
      "inputs": [
        {
          "indexed": true,
          "internalType": "address",
          "name": "newAdmin",
          "type": "address"
        },
        {
          "indexed": false,
          "internalType": "uint48",
          "name": "acceptSchedule",
          "type": "uint48"
        }
      ],
      "name": "DefaultAdminTransferScheduled",
      "type": "event"
    },
    {
      "anonymous": false,
      "inputs": [
        {
          "indexed": true,
          "internalType": "address",
          "name": "user",
          "type": "address"
        },
        {
          "indexed": false,
          "internalType": "uint256",
          "name": "assets",
          "type": "uint256"
        },
        {
          "indexed": false,
          "internalType": "uint256",
          "name": "shares",
          "type": "uint256"
        }
      ],
      "name": "Deposited",
      "type": "event"
    },
    {
      "anonymous": false,
      "inputs": [
        {
          "indexed": false,
          "internalType": "bool",
          "name": "paused",
          "type": "bool"
        }
      ],
      "name": "DepositsPausedUpdated",
      "type": "event"
    },
    {
      "anonymous": false,
      "inputs": [],
      "name": "EIP712DomainChanged",
      "type": "event"
    },
    {
      "anonymous": false,
      "inputs": [
        {
          "indexed": false,
          "internalType": "uint64",
          "name": "version",
          "type": "uint64"
        }
      ],
      "name": "Initialized",
      "type": "event"
    },
    {
      "anonymous": false,
      "inputs": [
        {
          "indexed": true,
          "internalType": "address",
          "name": "user",
          "type": "address"
        },
        {
          "indexed": false,
          "internalType": "uint256",
          "name": "shares",
          "type": "uint256"
        }
      ],
      "name": "RedeemCancelled",
      "type": "event"
    },
    {
      "anonymous": false,
      "inputs": [
        {
          "indexed": true,
          "internalType": "address",
          "name": "user",
          "type": "address"
        },
        {
          "indexed": false,
          "internalType": "uint256",
          "name": "shares",
          "type": "uint256"
        },
        {
          "indexed": false,
          "internalType": "uint256",
          "name": "assets",
          "type": "uint256"
        }
      ],
      "name": "RedeemCompleted",
      "type": "event"
    },
    {
      "anonymous": false,
      "inputs": [
        {
          "indexed": true,
          "internalType": "address",
          "name": "user",
          "type": "address"
        },
        {
          "indexed": false,
          "internalType": "uint256",
          "name": "shares",
          "type": "uint256"
        },
        {
          "indexed": false,
          "internalType": "uint256",
          "name": "unlockTime",
          "type": "uint256"
        }
      ],
      "name": "RedeemRequested",
      "type": "event"
    },
    {
      "anonymous": false,
      "inputs": [
        {
          "indexed": false,
          "internalType": "uint256",
          "name": "oldDelay",
          "type": "uint256"
        },
        {
          "indexed": false,
          "internalType": "uint256",
          "name": "newDelay",
          "type": "uint256"
        }
      ],
      "name": "RedemptionDelayUpdated",
      "type": "event"
    },
    {
      "anonymous": false,
      "inputs": [
        {
          "indexed": false,
          "internalType": "bool",
          "name": "paused",
          "type": "bool"
        }
      ],
      "name": "RedemptionsPausedUpdated",
      "type": "event"
    },
    {
      "anonymous": false,
      "inputs": [
        {
          "indexed": true,
          "internalType": "bytes32",
          "name": "role",
          "type": "bytes32"
        },
        {
          "indexed": true,
          "internalType": "bytes32",
          "name": "previousAdminRole",
          "type": "bytes32"
        },
        {
          "indexed": true,
          "internalType": "bytes32",
          "name": "newAdminRole",
          "type": "bytes32"
        }
      ],
      "name": "RoleAdminChanged",
      "type": "event"
    },
    {
      "anonymous": false,
      "inputs": [
        {
          "indexed": true,
          "internalType": "bytes32",
          "name": "role",
          "type": "bytes32"
        },
        {
          "indexed": true,
          "internalType": "address",
          "name": "account",
          "type": "address"
        },
        {
          "indexed": true,
          "internalType": "address",
          "name": "sender",
          "type": "address"
        }
      ],
      "name": "RoleGranted",
      "type": "event"
    },
    {
      "anonymous": false,
      "inputs": [
        {
          "indexed": true,
          "internalType": "bytes32",
          "name": "role",
          "type": "bytes32"
        },
        {
          "indexed": true,
          "internalType": "address",
          "name": "account",
          "type": "address"
        },
        {
          "indexed": true,
          "internalType": "address",
          "name": "sender",
          "type": "address"
        }
      ],
      "name": "RoleRevoked",
      "type": "event"
    },
    {
      "anonymous": false,
      "inputs": [
        {
          "indexed": true,
          "internalType": "address",
          "name": "from",
          "type": "address"
        },
        {
          "indexed": true,
          "internalType": "address",
          "name": "to",
          "type": "address"
        },
        {
          "indexed": false,
          "internalType": "uint256",
          "name": "value",
          "type": "uint256"
        }
      ],
      "name": "Transfer",
      "type": "event"
    },
    {
      "anonymous": false,
      "inputs": [
        {
          "indexed": true,
          "internalType": "address",
          "name": "implementation",
          "type": "address"
        }
      ],
      "name": "Upgraded",
      "type": "event"
    },
    {
      "inputs": [],
      "name": "DEFAULT_ADMIN_ROLE",
      "outputs": [
        {
          "internalType": "bytes32",
          "name": "",
          "type": "bytes32"
        }
      ],
      "stateMutability": "view",
      "type": "function"
    },
    {
      "inputs": [],
      "name": "DOMAIN_SEPARATOR",
      "outputs": [
        {
          "internalType": "bytes32",
          "name": "",
          "type": "bytes32"
        }
      ],
      "stateMutability": "view",
      "type": "function"
    },
    {
      "inputs": [],
      "name": "MAX_REDEMPTION_DELAY",
      "outputs": [
        {
          "internalType": "uint256",
          "name": "",
          "type": "uint256"
        }
      ],
      "stateMutability": "view",
      "type": "function"
    },
    {
      "inputs": [],
      "name": "PRICE_PRECISION",
      "outputs": [
        {
          "internalType": "uint256",
          "name": "",
          "type": "uint256"
        }
      ],
      "stateMutability": "view",
      "type": "function"
    },
    {
      "inputs": [],
      "name": "UPGRADE_INTERFACE_VERSION",
      "outputs": [
        {
          "internalType": "string",
          "name": "",
          "type": "string"
        }
      ],
      "stateMutability": "view",
      "type": "function"
    },
    {
      "inputs": [],
      "name": "acceptDefaultAdminTransfer",
      "outputs": [],
      "stateMutability": "nonpayable",
      "type": "function"
    },
    {
      "inputs": [
        {
          "internalType": "address",
          "name": "owner",
          "type": "address"
        },
        {
          "internalType": "address",
          "name": "spender",
          "type": "address"
        }
      ],
      "name": "allowance",
      "outputs": [
        {
          "internalType": "uint256",
          "name": "",
          "type": "uint256"
        }
      ],
      "stateMutability": "view",
      "type": "function"
    },
    {
      "inputs": [
        {
          "internalType": "address",
          "name": "spender",
          "type": "address"
        },
        {
          "internalType": "uint256",
          "name": "value",
          "type": "uint256"
        }
      ],
      "name": "approve",
      "outputs": [
        {
          "internalType": "bool",
          "name": "",
          "type": "bool"
        }
      ],
      "stateMutability": "nonpayable",
      "type": "function"
    },
    {
      "inputs": [
        {
          "internalType": "address",
          "name": "account",
          "type": "address"
        }
      ],
      "name": "balanceOf",
      "outputs": [
        {
          "internalType": "uint256",
          "name": "",
          "type": "uint256"
        }
      ],
      "stateMutability": "view",
      "type": "function"
    },
    {
      "inputs": [
        {
          "internalType": "address",
          "name": "newAdmin",
          "type": "address"
        }
      ],
      "name": "beginDefaultAdminTransfer",
      "outputs": [],
      "stateMutability": "nonpayable",
      "type": "function"
    },
    {
      "inputs": [],
      "name": "cancelDefaultAdminTransfer",
      "outputs": [],
      "stateMutability": "nonpayable",
      "type": "function"
    },
    {
      "inputs": [],
      "name": "cancelRedeem",
      "outputs": [],
      "stateMutability": "nonpayable",
      "type": "function"
    },
    {
      "inputs": [
        {
          "internalType": "uint48",
          "name": "newDelay",
          "type": "uint48"
        }
      ],
      "name": "changeDefaultAdminDelay",
      "outputs": [],
      "stateMutability": "nonpayable",
      "type": "function"
    },
    {
      "inputs": [],
      "name": "completeRedeem",
      "outputs": [
        {
          "internalType": "uint256",
          "name": "assets",
          "type": "uint256"
        }
      ],
      "stateMutability": "nonpayable",
      "type": "function"
    },
    {
      "inputs": [],
      "name": "decimals",
      "outputs": [
        {
          "internalType": "uint8",
          "name": "",
          "type": "uint8"
        }
      ],
      "stateMutability": "view",
      "type": "function"
    },
    {
      "inputs": [],
      "name": "defaultAdmin",
      "outputs": [
        {
          "internalType": "address",
          "name": "",
          "type": "address"
        }
      ],
      "stateMutability": "view",
      "type": "function"
    },
    {
      "inputs": [],
      "name": "defaultAdminDelay",
      "outputs": [
        {
          "internalType": "uint48",
          "name": "",
          "type": "uint48"
        }
      ],
      "stateMutability": "view",
      "type": "function"
    },
    {
      "inputs": [],
      "name": "defaultAdminDelayIncreaseWait",
      "outputs": [
        {
          "internalType": "uint48",
          "name": "",
          "type": "uint48"
        }
      ],
      "stateMutability": "view",
      "type": "function"
    },
    {
      "inputs": [
        {
          "internalType": "uint256",
          "name": "assets",
          "type": "uint256"
        }
      ],
      "name": "deposit",
      "outputs": [
        {
          "internalType": "uint256",
          "name": "shares",
          "type": "uint256"
        }
      ],
      "stateMutability": "nonpayable",
      "type": "function"
    },
    {
      "inputs": [],
      "name": "depositsPaused",
      "outputs": [
        {
          "internalType": "bool",
          "name": "",
          "type": "bool"
        }
      ],
      "stateMutability": "view",
      "type": "function"
    },
    {
      "inputs": [],
      "name": "eip712Domain",
      "outputs": [
        {
          "internalType": "bytes1",
          "name": "fields",
          "type": "bytes1"
        },
        {
          "internalType": "string",
          "name": "name",
          "type": "string"
        },
        {
          "internalType": "string",
          "name": "version",
          "type": "string"
        },
        {
          "internalType": "uint256",
          "name": "chainId",
          "type": "uint256"
        },
        {
          "internalType": "address",
          "name": "verifyingContract",
          "type": "address"
        },
        {
          "internalType": "bytes32",
          "name": "salt",
          "type": "bytes32"
        },
        {
          "internalType": "uint256[]",
          "name": "extensions",
          "type": "uint256[]"
        }
      ],
      "stateMutability": "view",
      "type": "function"
    },
    {
      "inputs": [
        {
          "internalType": "address",
          "name": "user",
          "type": "address"
        }
      ],
      "name": "getRedemptionRequest",
      "outputs": [
        {
          "components": [
            {
              "internalType": "uint256",
              "name": "shares",
              "type": "uint256"
            },
            {
              "internalType": "uint256",
              "name": "unlockTime",
              "type": "uint256"
            }
          ],
          "internalType": "struct IStakingVault.RedemptionRequest",
          "name": "",
          "type": "tuple"
        }
      ],
      "stateMutability": "view",
      "type": "function"
    },
    {
      "inputs": [
        {
          "internalType": "bytes32",
          "name": "role",
          "type": "bytes32"
        }
      ],
      "name": "getRoleAdmin",
      "outputs": [
        {
          "internalType": "bytes32",
          "name": "",
          "type": "bytes32"
        }
      ],
      "stateMutability": "view",
      "type": "function"
    },
    {
      "inputs": [
        {
          "internalType": "bytes32",
          "name": "role",
          "type": "bytes32"
        },
        {
          "internalType": "address",
          "name": "account",
          "type": "address"
        }
      ],
      "name": "grantRole",
      "outputs": [],
      "stateMutability": "nonpayable",
      "type": "function"
    },
    {
      "inputs": [
        {
          "internalType": "bytes32",
          "name": "role",
          "type": "bytes32"
        },
        {
          "internalType": "address",
          "name": "account",
          "type": "address"
        }
      ],
      "name": "hasRole",
      "outputs": [
        {
          "internalType": "bool",
          "name": "",
          "type": "bool"
        }
      ],
      "stateMutability": "view",
      "type": "function"
    },
    {
      "inputs": [
        {
          "internalType": "address",
          "name": "stableToken_",
          "type": "address"
        },
        {
          "internalType": "address",
          "name": "admin_",
          "type": "address"
        },
        {
          "internalType": "uint256",
          "name": "redemptionDelay_",
          "type": "uint256"
        }
      ],
      "name": "initialize",
      "outputs": [],
      "stateMutability": "nonpayable",
      "type": "function"
    },
    {
      "inputs": [
        {
          "internalType": "address",
          "name": "",
          "type": "address"
        }
      ],
      "name": "lockedShares",
      "outputs": [
        {
          "internalType": "uint256",
          "name": "",
          "type": "uint256"
        }
      ],
      "stateMutability": "view",
      "type": "function"
    },
    {
      "inputs": [],
      "name": "name",
      "outputs": [
        {
          "internalType": "string",
          "name": "",
          "type": "string"
        }
      ],
      "stateMutability": "view",
      "type": "function"
    },
    {
      "inputs": [
        {
          "internalType": "address",
          "name": "owner",
          "type": "address"
        }
      ],
      "name": "nonces",
      "outputs": [
        {
          "internalType": "uint256",
          "name": "",
          "type": "uint256"
        }
      ],
      "stateMutability": "view",
      "type": "function"
    },
    {
      "inputs": [],
      "name": "owner",
      "outputs": [
        {
          "internalType": "address",
          "name": "",
          "type": "address"
        }
      ],
      "stateMutability": "view",
      "type": "function"
    },
    {
      "inputs": [],
      "name": "pendingDefaultAdmin",
      "outputs": [
        {
          "internalType": "address",
          "name": "newAdmin",
          "type": "address"
        },
        {
          "internalType": "uint48",
          "name": "schedule",
          "type": "uint48"
        }
      ],
      "stateMutability": "view",
      "type": "function"
    },
    {
      "inputs": [],
      "name": "pendingDefaultAdminDelay",
      "outputs": [
        {
          "internalType": "uint48",
          "name": "newDelay",
          "type": "uint48"
        },
        {
          "internalType": "uint48",
          "name": "schedule",
          "type": "uint48"
        }
      ],
      "stateMutability": "view",
      "type": "function"
    },
    {
      "inputs": [
        {
          "internalType": "address",
          "name": "owner",
          "type": "address"
        },
        {
          "internalType": "address",
          "name": "spender",
          "type": "address"
        },
        {
          "internalType": "uint256",
          "name": "value",
          "type": "uint256"
        },
        {
          "internalType": "uint256",
          "name": "deadline",
          "type": "uint256"
        },
        {
          "internalType": "uint8",
          "name": "v",
          "type": "uint8"
        },
        {
          "internalType": "bytes32",
          "name": "r",
          "type": "bytes32"
        },
        {
          "internalType": "bytes32",
          "name": "s",
          "type": "bytes32"
        }
      ],
      "name": "permit",
      "outputs": [],
      "stateMutability": "nonpayable",
      "type": "function"
    },
    {
      "inputs": [
        {
          "internalType": "uint256",
          "name": "assets",
          "type": "uint256"
        }
      ],
      "name": "previewDeposit",
      "outputs": [
        {
          "internalType": "uint256",
          "name": "",
          "type": "uint256"
        }
      ],
      "stateMutability": "view",
      "type": "function"
    },
    {
      "inputs": [
        {
          "internalType": "uint256",
          "name": "shares",
          "type": "uint256"
        }
      ],
      "name": "previewRedeem",
      "outputs": [
        {
          "internalType": "uint256",
          "name": "",
          "type": "uint256"
        }
      ],
      "stateMutability": "view",
      "type": "function"
    },
    {
      "inputs": [],
      "name": "proxiableUUID",
      "outputs": [
        {
          "internalType": "bytes32",
          "name": "",
          "type": "bytes32"
        }
      ],
      "stateMutability": "view",
      "type": "function"
    },
    {
      "inputs": [],
      "name": "redemptionDelay",
      "outputs": [
        {
          "internalType": "uint256",
          "name": "",
          "type": "uint256"
        }
      ],
      "stateMutability": "view",
      "type": "function"
    },
    {
      "inputs": [],
      "name": "redemptionsPaused",
      "outputs": [
        {
          "internalType": "bool",
          "name": "",
          "type": "bool"
        }
      ],
      "stateMutability": "view",
      "type": "function"
    },
    {
      "inputs": [
        {
          "internalType": "bytes32",
          "name": "role",
          "type": "bytes32"
        },
        {
          "internalType": "address",
          "name": "account",
          "type": "address"
        }
      ],
      "name": "renounceRole",
      "outputs": [],
      "stateMutability": "nonpayable",
      "type": "function"
    },
    {
      "inputs": [
        {
          "internalType": "uint256",
          "name": "shares",
          "type": "uint256"
        }
      ],
      "name": "requestRedeem",
      "outputs": [],
      "stateMutability": "nonpayable",
      "type": "function"
    },
    {
      "inputs": [
        {
          "internalType": "bytes32",
          "name": "role",
          "type": "bytes32"
        },
        {
          "internalType": "address",
          "name": "account",
          "type": "address"
        }
      ],
      "name": "revokeRole",
      "outputs": [],
      "stateMutability": "nonpayable",
      "type": "function"
    },
    {
      "inputs": [],
      "name": "rollbackDefaultAdminDelay",
      "outputs": [],
      "stateMutability": "nonpayable",
      "type": "function"
    },
    {
      "inputs": [
        {
          "internalType": "bool",
          "name": "paused",
          "type": "bool"
        }
      ],
      "name": "setDepositsPaused",
      "outputs": [],
      "stateMutability": "nonpayable",
      "type": "function"
    },
    {
      "inputs": [
        {
          "internalType": "uint256",
          "name": "newDelay",
          "type": "uint256"
        }
      ],
      "name": "setRedemptionDelay",
      "outputs": [],
      "stateMutability": "nonpayable",
      "type": "function"
    },
    {
      "inputs": [
        {
          "internalType": "bool",
          "name": "paused",
          "type": "bool"
        }
      ],
      "name": "setRedemptionsPaused",
      "outputs": [],
      "stateMutability": "nonpayable",
      "type": "function"
    },
    {
      "inputs": [],
      "name": "sharePrice",
      "outputs": [
        {
          "internalType": "uint256",
          "name": "",
          "type": "uint256"
        }
      ],
      "stateMutability": "view",
      "type": "function"
    },
    {
      "inputs": [],
      "name": "stableToken",
      "outputs": [
        {
          "internalType": "contract IERC20",
          "name": "",
          "type": "address"
        }
      ],
      "stateMutability": "view",
      "type": "function"
    },
    {
      "inputs": [
        {
          "internalType": "bytes4",
          "name": "interfaceId",
          "type": "bytes4"
        }
      ],
      "name": "supportsInterface",
      "outputs": [
        {
          "internalType": "bool",
          "name": "",
          "type": "bool"
        }
      ],
      "stateMutability": "view",
      "type": "function"
    },
    {
      "inputs": [],
      "name": "symbol",
      "outputs": [
        {
          "internalType": "string",
          "name": "",
          "type": "string"
        }
      ],
      "stateMutability": "view",
      "type": "function"
    },
    {
      "inputs": [],
      "name": "totalAssets",
      "outputs": [
        {
          "internalType": "uint256",
          "name": "",
          "type": "uint256"
        }
      ],
      "stateMutability": "view",
      "type": "function"
    },
    {
      "inputs": [],
      "name": "totalSupply",
      "outputs": [
        {
          "internalType": "uint256",
          "name": "",
          "type": "uint256"
        }
      ],
      "stateMutability": "view",
      "type": "function"
    },
    {
      "inputs": [
        {
          "internalType": "address",
          "name": "to",
          "type": "address"
        },
        {
          "internalType": "uint256",
          "name": "value",
          "type": "uint256"
        }
      ],
      "name": "transfer",
      "outputs": [
        {
          "internalType": "bool",
          "name": "",
          "type": "bool"
        }
      ],
      "stateMutability": "nonpayable",
      "type": "function"
    },
    {
      "inputs": [
        {
          "internalType": "address",
          "name": "from",
          "type": "address"
        },
        {
          "internalType": "address",
          "name": "to",
          "type": "address"
        },
        {
          "internalType": "uint256",
          "name": "value",
          "type": "uint256"
        }
      ],
      "name": "transferFrom",
      "outputs": [
        {
          "internalType": "bool",
          "name": "",
          "type": "bool"
        }
      ],
      "stateMutability": "nonpayable",
      "type": "function"
    },
    {
      "inputs": [
        {
          "internalType": "address",
          "name": "newImplementation",
          "type": "address"
        },
        {
          "internalType": "bytes",
          "name": "data",
          "type": "bytes"
        }
      ],
      "name": "upgradeToAndCall",
      "outputs": [],
      "stateMutability": "payable",
      "type": "function"
    }
  ],
  "bytecode": "0x60a06040523073ffffffffffffffffffffffffffffffffffffffff1660809073ffffffffffffffffffffffffffffffffffffffff16815250348015610042575f5ffd5b5061005161005660201b60201c565b6101d1565b5f61006561015460201b60201c565b9050805f0160089054906101000a900460ff16156100af576040517ff92ee8a900000000000000000000000000000000000000000000000000000000815260040160405180910390fd5b67ffffffffffffffff8016815f015f9054906101000a900467ffffffffffffffff1667ffffffffffffffff16146101515767ffffffffffffffff815f015f6101000a81548167ffffffffffffffff021916908367ffffffffffffffff1602179055507fc7f505b2f371ae2175ee4913f4499e1f2633a7b5936321eed1cdaeb6115181d267ffffffffffffffff60405161014891906101b8565b60405180910390a15b50565b5f5f61016461016d60201b60201c565b90508091505090565b5f7ff0c57e16840df040f15088dc2f81fe391c3923bec73e23a9662efc9c229c6a005f1b905090565b5f67ffffffffffffffff82169050919050565b6101b281610196565b82525050565b5f6020820190506101cb5f8301846101a9565b92915050565b608051615d416101f75f395f8181612b5801528181612bad0152612d6c0152615d415ff3fe608060405260043610610334575f3560e01c80637ecebe00116101aa578063aa2f892d116100f6578063d547741f11610094578063e336ac441161006e578063e336ac4414610bee578063e6a2966614610c2a578063ef8b30f714610c40578063f1a9ee0314610c7c57610334565b8063d547741f14610b74578063d602b9fd14610b9c578063dd62ed3e14610bb257610334565b8063cc8463c8116100d0578063cc8463c814610ae1578063cefc142914610b0b578063cf6eefb714610b21578063d505accf14610b4c57610334565b8063aa2f892d14610a53578063ad3cb1cc14610a7b578063b6b55f2514610aa557610334565b806395082d2511610163578063a1eda53c1161013d578063a1eda53c14610998578063a217fddf146109c3578063a9059cbb146109ed578063a9d75b2b14610a2957610334565b806395082d251461091a57806395d89b41146109445780639b31c3a81461096e57610334565b80637ecebe00146107f457806384b0196e1461083057806384ef8ffc14610860578063872697291461088a5780638da5cb5b146108b457806391d14854146108de57610334565b80632f2ff15d1161028457806352d1902d11610222578063649a5ec7116101fc578063649a5ec71461072a578063695ae07d1461075257806370a082311461077c578063739964f6146107b857610334565b806352d1902d146106ae57806360da3e83146106d8578063634e93da1461070257610334565b806336568abe1161025e57806336568abe14610604578063433ffe181461062c5780634cdad506146106565780634f1ef2861461069257610334565b80632f2ff15d14610588578063313ce567146105b05780633644e515146105da57610334565b80630da254b4116102f15780631c481e2d116102cb5780631c481e2d146104be57806323b872dd146104e6578063248a9ca31461052257806324f2fe241461055e57610334565b80630da254b4146104445780631794bb3c1461046c57806318160ddd1461049457610334565b806301e1d1141461033857806301ffc9a714610362578063022d63fb1461039e57806306fdde03146103c8578063095ea7b3146103f25780630aa6220b1461042e575b5f5ffd5b348015610343575f5ffd5b5061034c610ca4565b6040516103599190614a9c565b60405180910390f35b34801561036d575f5ffd5b5061038860048036038101906103839190614b1b565b610d42565b6040516103959190614b60565b60405180910390f35b3480156103a9575f5ffd5b506103b2610dbb565b6040516103bf9190614b99565b60405180910390f35b3480156103d3575f5ffd5b506103dc610dc5565b6040516103e99190614c22565b60405180910390f35b3480156103fd575f5ffd5b5061041860048036038101906104139190614cc6565b610e63565b6040516104259190614b60565b60405180910390f35b348015610439575f5ffd5b50610442610e85565b005b34801561044f575f5ffd5b5061046a60048036038101906104659190614d2e565b610e9c565b005b348015610477575f5ffd5b50610492600480360381019061048d9190614d59565b610efd565b005b34801561049f575f5ffd5b506104a8611228565b6040516104b59190614a9c565b60405180910390f35b3480156104c9575f5ffd5b506104e460048036038101906104df9190614d2e565b61123f565b005b3480156104f1575f5ffd5b5061050c60048036038101906105079190614d59565b61129f565b6040516105199190614b60565b60405180910390f35b34801561052d575f5ffd5b5061054860048036038101906105439190614ddc565b6112cd565b6040516105559190614e16565b60405180910390f35b348015610569575f5ffd5b506105726112f7565b60405161057f9190614b60565b60405180910390f35b348015610593575f5ffd5b506105ae60048036038101906105a99190614e2f565b61130a565b005b3480156105bb575f5ffd5b506105c4611353565b6040516105d19190614e88565b60405180910390f35b3480156105e5575f5ffd5b506105ee61135b565b6040516105fb9190614e16565b60405180910390f35b34801561060f575f5ffd5b5061062a60048036038101906106259190614e2f565b611369565b005b348015610637575f5ffd5b50610640611488565b60405161064d9190614a9c565b60405180910390f35b348015610661575f5ffd5b5061067c60048036038101906106779190614ea1565b61148f565b6040516106899190614a9c565b60405180910390f35b6106ac60048036038101906106a79190614ff8565b6114a0565b005b3480156106b9575f5ffd5b506106c26114bf565b6040516106cf9190614e16565b60405180910390f35b3480156106e3575f5ffd5b506106ec6114f0565b6040516106f99190614b60565b60405180910390f35b34801561070d575f5ffd5b5061072860048036038101906107239190615052565b611502565b005b348015610735575f5ffd5b50610750600480360381019061074b91906150a7565b61151b565b005b34801561075d575f5ffd5b50610766611534565b6040516107739190614a9c565b60405180910390f35b348015610787575f5ffd5b506107a2600480360381019061079d9190615052565b6117f9565b6040516107af9190614a9c565b60405180910390f35b3480156107c3575f5ffd5b506107de60048036038101906107d99190615052565b61184c565b6040516107eb919061510e565b60405180910390f35b3480156107ff575f5ffd5b5061081a60048036038101906108159190615052565b6118b6565b6040516108279190614a9c565b60405180910390f35b34801561083b575f5ffd5b506108446118c7565b6040516108579796959493929190615218565b60405180910390f35b34801561086b575f5ffd5b506108746119d0565b604051610881919061529a565b60405180910390f35b348015610895575f5ffd5b5061089e611a06565b6040516108ab9190614a9c565b60405180910390f35b3480156108bf575f5ffd5b506108c8611a52565b6040516108d5919061529a565b60405180910390f35b3480156108e9575f5ffd5b5061090460048036038101906108ff9190614e2f565b611a60565b6040516109119190614b60565b60405180910390f35b348015610925575f5ffd5b5061092e611ad1565b60405161093b9190614a9c565b60405180910390f35b34801561094f575f5ffd5b50610958611add565b6040516109659190614c22565b60405180910390f35b348015610979575f5ffd5b50610982611b7b565b60405161098f9190614a9c565b60405180910390f35b3480156109a3575f5ffd5b506109ac611b81565b6040516109ba9291906152b3565b60405180910390f35b3480156109ce575f5ffd5b506109d7611bef565b6040516109e49190614e16565b60405180910390f35b3480156109f8575f5ffd5b50610a136004803603810190610a0e9190614cc6565b611bf5565b604051610a209190614b60565b60405180910390f35b348015610a34575f5ffd5b50610a3d611c17565b604051610a4a9190615335565b60405180910390f35b348015610a5e575f5ffd5b50610a796004803603810190610a749190614ea1565b611c3b565b005b348015610a86575f5ffd5b50610a8f611eec565b604051610a9c9190614c22565b60405180910390f35b348015610ab0575f5ffd5b50610acb6004803603810190610ac69190614ea1565b611f25565b604051610ad89190614a9c565b60405180910390f35b348015610aec575f5ffd5b50610af56120f4565b604051610b029190614b99565b60405180910390f35b348015610b16575f5ffd5b50610b1f612172565b005b348015610b2c575f5ffd5b50610b35612207565b604051610b4392919061534e565b60405180910390f35b348015610b57575f5ffd5b50610b726004803603810190610b6d919061539f565b612256565b005b348015610b7f575f5ffd5b50610b9a6004803603810190610b959190614e2f565b61239b565b005b348015610ba7575f5ffd5b50610bb06123e4565b005b348015610bbd575f5ffd5b50610bd86004803603810190610bd3919061543c565b6123fb565b604051610be59190614a9c565b60405180910390f35b348015610bf9575f5ffd5b50610c146004803603810190610c0f9190615052565b61248b565b604051610c219190614a9c565b60405180910390f35b348015610c35575f5ffd5b50610c3e6124a0565b005b348015610c4b575f5ffd5b50610c666004803603810190610c619190614ea1565b612633565b604051610c739190614a9c565b60405180910390f35b348015610c87575f5ffd5b50610ca26004803603810190610c9d9190614ea1565b612644565b005b5f5f5f9054906101000a900473ffffffffffffffffffffffffffffffffffffffff1673ffffffffffffffffffffffffffffffffffffffff166370a08231306040518263ffffffff1660e01b8152600401610cfe919061529a565b602060405180830381865afa158015610d19573d5f5f3e3d5ffd5b505050506040513d601f19601f82011682018060405250810190610d3d919061548e565b905090565b5f7f31498786000000000000000000000000000000000000000000000000000000007bffffffffffffffffffffffffffffffffffffffffffffffffffffffff1916827bffffffffffffffffffffffffffffffffffffffffffffffffffffffff19161480610db45750610db3826126d8565b5b9050919050565b5f62069780905090565b60605f610dd0612751565b9050806003018054610de1906154e6565b80601f0160208091040260200160405190810160405280929190818152602001828054610e0d906154e6565b8015610e585780601f10610e2f57610100808354040283529160200191610e58565b820191905f5260205f20905b815481529060010190602001808311610e3b57829003601f168201915b505050505091505090565b5f5f610e6d612778565b9050610e7a81858561277f565b600191505092915050565b5f5f1b610e9181612791565b610e996127a5565b50565b5f5f1b610ea881612791565b81600260016101000a81548160ff0219169083151502179055507fee33023b3a1bc74193634f525052be7e01ea6e9f879f0d7aea6dd9fdba10657382604051610ef19190614b60565b60405180910390a15050565b5f610f066127b1565b90505f815f0160089054906101000a900460ff161590505f825f015f9054906101000a900467ffffffffffffffff1690505f5f8267ffffffffffffffff16148015610f4e5750825b90505f60018367ffffffffffffffff16148015610f8157505f3073ffffffffffffffffffffffffffffffffffffffff163b145b905081158015610f8f575080155b15610fc6576040517ff92ee8a900000000000000000000000000000000000000000000000000000000815260040160405180910390fd5b6001855f015f6101000a81548167ffffffffffffffff021916908367ffffffffffffffff1602179055508315611013576001855f0160086101000a81548160ff0219169083151502179055505b5f73ffffffffffffffffffffffffffffffffffffffff168873ffffffffffffffffffffffffffffffffffffffff16148061107857505f73ffffffffffffffffffffffffffffffffffffffff168773ffffffffffffffffffffffffffffffffffffffff16145b156110af576040517fd92e233d00000000000000000000000000000000000000000000000000000000815260040160405180910390fd5b6111236040518060400160405280601281526020017f5374616b656420537461626c65546f6b656e00000000000000000000000000008152506040518060400160405280600581526020017f735354424c0000000000000000000000000000000000000000000000000000008152506127c4565b6111616040518060400160405280601281526020017f5374616b656420537461626c65546f6b656e00000000000000000000000000008152506127da565b61116e6201518088612824565b61117661283a565b61117e61284c565b875f5f6101000a81548173ffffffffffffffffffffffffffffffffffffffff021916908373ffffffffffffffffffffffffffffffffffffffff16021790555085600181905550831561121e575f855f0160086101000a81548160ff0219169083151502179055507fc7f505b2f371ae2175ee4913f4499e1f2633a7b5936321eed1cdaeb6115181d260016040516112159190615562565b60405180910390a15b5050505050505050565b5f5f611232612751565b9050806002015491505090565b5f5f1b61124b81612791565b8160025f6101000a81548160ff0219169083151502179055507f9723f28d4abaff5df0f62bfb2418f2aac4a739b259edf209b8dc9944fa85aa78826040516112939190614b60565b60405180910390a15050565b5f5f6112a9612778565b90506112b6858285612856565b6112c18585856128e9565b60019150509392505050565b5f5f6112d76129d9565b9050805f015f8481526020019081526020015f2060010154915050919050565b600260019054906101000a900460ff1681565b5f5f1b8203611345576040517f3fc3c27a00000000000000000000000000000000000000000000000000000000815260040160405180910390fd5b61134f8282612a00565b5050565b5f6012905090565b5f611364612a22565b905090565b5f611372612a30565b90505f5f1b831480156113b757506113886119d0565b73ffffffffffffffffffffffffffffffffffffffff168273ffffffffffffffffffffffffffffffffffffffff16145b15611479575f5f6113c6612207565b915091505f73ffffffffffffffffffffffffffffffffffffffff168273ffffffffffffffffffffffffffffffffffffffff1614158061140b575061140981612a57565b155b8061141c575061141a81612a6b565b155b1561145e57806040517f19ca5ebb0000000000000000000000000000000000000000000000000000000081526004016114559190614b99565b60405180910390fd5b825f0160146101000a81549065ffffffffffff021916905550505b6114838383612a7e565b505050565b62278d0081565b5f61149982612af9565b9050919050565b6114a8612b56565b6114b182612c3c565b6114bb8282612c4c565b5050565b5f6114c8612d6a565b7f360894a13ba1a3210667c828492db98dca3e2076cc3735a920a3ca505d382bbc5f1b905090565b60025f9054906101000a900460ff1681565b5f5f1b61150e81612791565b61151782612df1565b5050565b5f5f1b61152781612791565b61153082612e6b565b5050565b5f61153d612ed1565b600260019054906101000a900460ff1615611584576040517f0df65d9f00000000000000000000000000000000000000000000000000000000815260040160405180910390fd5b5f60035f3373ffffffffffffffffffffffffffffffffffffffff1673ffffffffffffffffffffffffffffffffffffffff1681526020019081526020015f206040518060400160405290815f820154815260200160018201548152505090505f815f01510361161e576040517f302d029300000000000000000000000000000000000000000000000000000000815260040160405180910390fd5b806020015142101561165c576040517f9aeb1d7a00000000000000000000000000000000000000000000000000000000815260040160405180910390fd5b5f815f0151905061166c81612af9565b92505f83036116a7576040517f1f2a200500000000000000000000000000000000000000000000000000000000815260040160405180910390fd5b60035f3373ffffffffffffffffffffffffffffffffffffffff1673ffffffffffffffffffffffffffffffffffffffff1681526020019081526020015f205f5f82015f9055600182015f905550508060045f3373ffffffffffffffffffffffffffffffffffffffff1673ffffffffffffffffffffffffffffffffffffffff1681526020019081526020015f205f82825461174091906155a8565b925050819055506117513382612f25565b61179c33845f5f9054906101000a900473ffffffffffffffffffffffffffffffffffffffff1673ffffffffffffffffffffffffffffffffffffffff16612fa49092919063ffffffff16565b3373ffffffffffffffffffffffffffffffffffffffff167f10b544e5c8af9abb2818374d4ce252dcaae8e6db53d8009f67db4e889ab29b9282856040516117e49291906155db565b60405180910390a250506117f6613023565b90565b5f5f611803612751565b9050805f015f8473ffffffffffffffffffffffffffffffffffffffff1673ffffffffffffffffffffffffffffffffffffffff1681526020019081526020015f2054915050919050565b611854614a6c565b60035f8373ffffffffffffffffffffffffffffffffffffffff1673ffffffffffffffffffffffffffffffffffffffff1681526020019081526020015f206040518060400160405290815f82015481526020016001820154815250509050919050565b5f6118c08261303a565b9050919050565b5f6060805f5f5f60605f6118d961308d565b90505f5f1b815f01541480156118f457505f5f1b8160010154145b611933576040517f08c379a000000000000000000000000000000000000000000000000000000000815260040161192a9061564c565b60405180910390fd5b61193b6130b4565b611943613152565b46305f5f1b5f67ffffffffffffffff81111561196257611961614ed4565b5b6040519080825280602002602001820160405280156119905781602001602082028036833780820191505090505b507f0f0000000000000000000000000000000000000000000000000000000000000095949392919097509750975097509750975097505090919293949596565b5f5f6119da612a30565b9050806001015f9054906101000a900473ffffffffffffffffffffffffffffffffffffffff1691505090565b5f6103e8611a12611228565b611a1c919061566a565b670de0b6b3a76400006001611a2f610ca4565b611a39919061566a565b611a43919061569d565b611a4d919061570b565b905090565b5f611a5b6119d0565b905090565b5f5f611a6a6129d9565b9050805f015f8581526020019081526020015f205f015f8473ffffffffffffffffffffffffffffffffffffffff1673ffffffffffffffffffffffffffffffffffffffff1681526020019081526020015f205f9054906101000a900460ff1691505092915050565b670de0b6b3a764000081565b60605f611ae8612751565b9050806004018054611af9906154e6565b80601f0160208091040260200160405190810160405280929190818152602001828054611b25906154e6565b8015611b705780601f10611b4757610100808354040283529160200191611b70565b820191905f5260205f20905b815481529060010190602001808311611b5357829003601f168201915b505050505091505090565b60015481565b5f5f5f611b8c612a30565b905080600101601a9054906101000a900465ffffffffffff169150611bb082612a57565b8015611bc25750611bc082612a6b565b155b611bcd575f5f611be6565b8060010160149054906101000a900465ffffffffffff16825b92509250509091565b5f5f1b81565b5f5f611bff612778565b9050611c0c8185856128e9565b600191505092915050565b5f5f9054906101000a900473ffffffffffffffffffffffffffffffffffffffff1681565b611c43612ed1565b5f8103611c7c576040517f1f2a200500000000000000000000000000000000000000000000000000000000815260040160405180910390fd5b600260019054906101000a900460ff1615611cc3576040517f0df65d9f00000000000000000000000000000000000000000000000000000000815260040160405180910390fd5b8060045f3373ffffffffffffffffffffffffffffffffffffffff1673ffffffffffffffffffffffffffffffffffffffff1681526020019081526020015f2054611d0b336117f9565b611d1591906155a8565b1015611d4d576040517ff4d678b800000000000000000000000000000000000000000000000000000000815260040160405180910390fd5b5f60035f3373ffffffffffffffffffffffffffffffffffffffff1673ffffffffffffffffffffffffffffffffffffffff1681526020019081526020015f205f015414611dc5576040517fb0021eb900000000000000000000000000000000000000000000000000000000815260040160405180910390fd5b8060045f3373ffffffffffffffffffffffffffffffffffffffff1673ffffffffffffffffffffffffffffffffffffffff1681526020019081526020015f205f828254611e11919061566a565b925050819055505f60015442611e27919061566a565b905060405180604001604052808381526020018281525060035f3373ffffffffffffffffffffffffffffffffffffffff1673ffffffffffffffffffffffffffffffffffffffff1681526020019081526020015f205f820151815f0155602082015181600101559050503373ffffffffffffffffffffffffffffffffffffffff167f58fe322fc5911ed072ec92f570e517b9793e350eb1ff7be0019fd9f3fade87bc8383604051611ed89291906155db565b60405180910390a250611ee9613023565b50565b6040518060400160405280600581526020017f352e302e3000000000000000000000000000000000000000000000000000000081525081565b5f611f2e612ed1565b5f8203611f67576040517f1f2a200500000000000000000000000000000000000000000000000000000000815260040160405180910390fd5b60025f9054906101000a900460ff1615611fad576040517fdeeb694300000000000000000000000000000000000000000000000000000000815260040160405180910390fd5b5f611fb6611228565b148015611fc55750620f424082105b15611ffc576040517f5bbe862200000000000000000000000000000000000000000000000000000000815260040160405180910390fd5b612005826131f0565b90505f8103612040576040517f1f2a200500000000000000000000000000000000000000000000000000000000815260040160405180910390fd5b61208d3330845f5f9054906101000a900473ffffffffffffffffffffffffffffffffffffffff1673ffffffffffffffffffffffffffffffffffffffff1661324d909392919063ffffffff16565b61209733826132cf565b3373ffffffffffffffffffffffffffffffffffffffff167f73a19dd210f1a7f902193214c0ee91dd35ee5b4d920cba8d519eca65a7b488ca83836040516120df9291906155db565b60405180910390a26120ef613023565b919050565b5f5f6120fe612a30565b90505f81600101601a9054906101000a900465ffffffffffff16905061212381612a57565b8015612134575061213381612a6b565b5b61215357815f01601a9054906101000a900465ffffffffffff1661216b565b8160010160149054906101000a900465ffffffffffff165b9250505090565b5f61217b612207565b5090508073ffffffffffffffffffffffffffffffffffffffff1661219d612778565b73ffffffffffffffffffffffffffffffffffffffff16146121fc576121c0612778565b6040517fc22c80220000000000000000000000000000000000000000000000000000000081526004016121f3919061529a565b60405180910390fd5b61220461334e565b50565b5f5f5f612212612a30565b9050805f015f9054906101000a900473ffffffffffffffffffffffffffffffffffffffff16815f0160149054906101000a900465ffffffffffff1692509250509091565b8342111561229b57836040517f627913020000000000000000000000000000000000000000000000000000000081526004016122929190614a9c565b60405180910390fd5b5f7f6e71edae12b1b97f4d1f60370fef10105fa2faae0126114a169c64845d6126c98888886122c98c613427565b896040516020016122df9695949392919061573b565b6040516020818303038152906040528051906020012090505f61230182613487565b90505f612310828787876134a0565b90508973ffffffffffffffffffffffffffffffffffffffff168173ffffffffffffffffffffffffffffffffffffffff161461238457808a6040517f4b800e4600000000000000000000000000000000000000000000000000000000815260040161237b92919061579a565b60405180910390fd5b61238f8a8a8a61277f565b50505050505050505050565b5f5f1b82036123d6576040517f3fc3c27a00000000000000000000000000000000000000000000000000000000815260040160405180910390fd5b6123e082826134ce565b5050565b5f5f1b6123f081612791565b6123f86134f0565b50565b5f5f612405612751565b9050806001015f8573ffffffffffffffffffffffffffffffffffffffff1673ffffffffffffffffffffffffffffffffffffffff1681526020019081526020015f205f8473ffffffffffffffffffffffffffffffffffffffff1673ffffffffffffffffffffffffffffffffffffffff1681526020019081526020015f205491505092915050565b6004602052805f5260405f205f915090505481565b5f60035f3373ffffffffffffffffffffffffffffffffffffffff1673ffffffffffffffffffffffffffffffffffffffff1681526020019081526020015f206040518060400160405290815f820154815260200160018201548152505090505f815f01510361253a576040517f302d029300000000000000000000000000000000000000000000000000000000815260040160405180910390fd5b5f815f0151905060035f3373ffffffffffffffffffffffffffffffffffffffff1673ffffffffffffffffffffffffffffffffffffffff1681526020019081526020015f205f5f82015f9055600182015f905550508060045f3373ffffffffffffffffffffffffffffffffffffffff1673ffffffffffffffffffffffffffffffffffffffff1681526020019081526020015f205f8282546125da91906155a8565b925050819055503373ffffffffffffffffffffffffffffffffffffffff167f707c112eb875282039fb46815a6f223e231d0c4b757949570ca4214a35de055e826040516126279190614a9c565b60405180910390a25050565b5f61263d826131f0565b9050919050565b5f5f1b61265081612791565b62278d0082111561268d576040517fef88ae6b00000000000000000000000000000000000000000000000000000000815260040160405180910390fd5b5f6001549050826001819055507f35d5f64991849d3a2e56aea3a3fe0a4a67da2d7967a3ec083e0c4311ee0565a481846040516126cb9291906155db565b60405180910390a1505050565b5f7f7965db0b000000000000000000000000000000000000000000000000000000007bffffffffffffffffffffffffffffffffffffffffffffffffffffffff1916827bffffffffffffffffffffffffffffffffffffffffffffffffffffffff1916148061274a5750612749826134fc565b5b9050919050565b5f7f52c63247e1f47db19d5ce0460030c497f067ca4cebf71ba98eeadabe20bace00905090565b5f33905090565b61278c8383836001613565565b505050565b6127a28161279d612778565b613742565b50565b6127af5f5f613793565b565b5f5f6127bb613897565b90508091505090565b6127cc6138c0565b6127d68282613900565b5050565b6127e26138c0565b612821816040518060400160405280600181526020017f310000000000000000000000000000000000000000000000000000000000000081525061393c565b50565b61282c6138c0565b612836828261398d565b5050565b6128426138c0565b61284a613a48565b565b6128546138c0565b565b5f61286184846123fb565b90507fffffffffffffffffffffffffffffffffffffffffffffffffffffffffffffffff8110156128e357818110156128d4578281836040517ffb8f41b20000000000000000000000000000000000000000000000000000000081526004016128cb939291906157c1565b60405180910390fd5b6128e284848484035f613565565b5b50505050565b5f73ffffffffffffffffffffffffffffffffffffffff168373ffffffffffffffffffffffffffffffffffffffff1603612959575f6040517f96c6fd1e000000000000000000000000000000000000000000000000000000008152600401612950919061529a565b60405180910390fd5b5f73ffffffffffffffffffffffffffffffffffffffff168273ffffffffffffffffffffffffffffffffffffffff16036129c9575f6040517fec442f050000000000000000000000000000000000000000000000000000000081526004016129c0919061529a565b60405180910390fd5b6129d4838383613a67565b505050565b5f7f02dd7bc7dec4dceedda775e58dd541e08a116c6c53815c0bd028192f7b626800905090565b612a09826112cd565b612a1281612791565b612a1c8383613b35565b50505050565b5f612a2b613c0c565b905090565b5f7feef3dac4538c82c8ace4063ab0acd2d15cdb5883aa1dff7c2673abb3d8698400905090565b5f5f8265ffffffffffff1614159050919050565b5f428265ffffffffffff16109050919050565b612a86612778565b73ffffffffffffffffffffffffffffffffffffffff168173ffffffffffffffffffffffffffffffffffffffff1614612aea576040517f6697b23200000000000000000000000000000000000000000000000000000000815260040160405180910390fd5b612af48282613c6f565b505050565b5f5f612b03611228565b03612b10575f9050612b51565b6103e8612b1b611228565b612b25919061566a565b6001612b2f610ca4565b612b39919061566a565b83612b44919061569d565b612b4e919061570b565b90505b919050565b7f000000000000000000000000000000000000000000000000000000000000000073ffffffffffffffffffffffffffffffffffffffff163073ffffffffffffffffffffffffffffffffffffffff161480612c0357507f000000000000000000000000000000000000000000000000000000000000000073ffffffffffffffffffffffffffffffffffffffff16612bea613cfd565b73ffffffffffffffffffffffffffffffffffffffff1614155b15612c3a576040517fe07c8dba00000000000000000000000000000000000000000000000000000000815260040160405180910390fd5b565b5f5f1b612c4881612791565b5050565b8173ffffffffffffffffffffffffffffffffffffffff166352d1902d6040518163ffffffff1660e01b8152600401602060405180830381865afa925050508015612cb457506040513d601f19601f82011682018060405250810190612cb1919061580a565b60015b612cf557816040517f4c9c8ce3000000000000000000000000000000000000000000000000000000008152600401612cec919061529a565b60405180910390fd5b7f360894a13ba1a3210667c828492db98dca3e2076cc3735a920a3ca505d382bbc5f1b8114612d5b57806040517faa1d49a4000000000000000000000000000000000000000000000000000000008152600401612d529190614e16565b60405180910390fd5b612d658383613d50565b505050565b7f000000000000000000000000000000000000000000000000000000000000000073ffffffffffffffffffffffffffffffffffffffff163073ffffffffffffffffffffffffffffffffffffffff1614612def576040517fe07c8dba00000000000000000000000000000000000000000000000000000000815260040160405180910390fd5b565b5f612dfa6120f4565b612e0342613dc2565b612e0d9190615835565b9050612e198282613e1b565b8173ffffffffffffffffffffffffffffffffffffffff167f3377dc44241e779dd06afab5b788a35ca5f3b778836e2990bdb26a2a4b2e5ed682604051612e5f9190614b99565b60405180910390a25050565b5f612e7582613eda565b612e7e42613dc2565b612e889190615835565b9050612e948282613793565b7ff1038c18cf84a56e432fdbfaf746924b7ea511dfe03a6506a0ceba4888788d9b8282604051612ec59291906152b3565b60405180910390a15050565b5f612eda613f38565b90506002815f015403612f19576040517f3ee5aeb500000000000000000000000000000000000000000000000000000000815260040160405180910390fd5b6002815f018190555050565b5f73ffffffffffffffffffffffffffffffffffffffff168273ffffffffffffffffffffffffffffffffffffffff1603612f95575f6040517f96c6fd1e000000000000000000000000000000000000000000000000000000008152600401612f8c919061529a565b60405180910390fd5b612fa0825f83613a67565b5050565b61301e838473ffffffffffffffffffffffffffffffffffffffff1663a9059cbb8585604051602401612fd792919061586e565b604051602081830303815290604052915060e01b6020820180517bffffffffffffffffffffffffffffffffffffffffffffffffffffffff8381831617835250505050613f5f565b505050565b5f61302c613f38565b90506001815f018190555050565b5f5f613044613ffa565b9050805f015f8473ffffffffffffffffffffffffffffffffffffffff1673ffffffffffffffffffffffffffffffffffffffff1681526020019081526020015f2054915050919050565b5f7fa16a46d94261c7517cc8ff89f61c0ce93598e3c849801011dee649a6a557d100905090565b60605f6130bf61308d565b90508060020180546130d0906154e6565b80601f01602080910402602001604051908101604052809291908181526020018280546130fc906154e6565b80156131475780601f1061311e57610100808354040283529160200191613147565b820191905f5260205f20905b81548152906001019060200180831161312a57829003601f168201915b505050505091505090565b60605f61315d61308d565b905080600301805461316e906154e6565b80601f016020809104026020016040519081016040528092919081815260200182805461319a906154e6565b80156131e55780601f106131bc576101008083540402835291602001916131e5565b820191905f5260205f20905b8154815290600101906020018083116131c857829003601f168201915b505050505091505090565b5f5f6131fa611228565b0361320757819050613248565b6001613211610ca4565b61321b919061566a565b6103e8613226611228565b613230919061566a565b8361323b919061569d565b613245919061570b565b90505b919050565b6132c9848573ffffffffffffffffffffffffffffffffffffffff166323b872dd86868660405160240161328293929190615895565b604051602081830303815290604052915060e01b6020820180517bffffffffffffffffffffffffffffffffffffffffffffffffffffffff8381831617835250505050613f5f565b50505050565b5f73ffffffffffffffffffffffffffffffffffffffff168273ffffffffffffffffffffffffffffffffffffffff160361333f575f6040517fec442f05000000000000000000000000000000000000000000000000000000008152600401613336919061529a565b60405180910390fd5b61334a5f8383613a67565b5050565b5f613357612a30565b90505f5f613363612207565b9150915061337081612a57565b1580613382575061338081612a6b565b155b156133c457806040517f19ca5ebb0000000000000000000000000000000000000000000000000000000081526004016133bb9190614b99565b60405180910390fd5b6133d75f5f1b6133d26119d0565b613c6f565b506133e45f5f1b83613b35565b50825f015f6101000a81549073ffffffffffffffffffffffffffffffffffffffff0219169055825f0160146101000a81549065ffffffffffff0219169055505050565b5f5f613431613ffa565b9050805f015f8473ffffffffffffffffffffffffffffffffffffffff1673ffffffffffffffffffffffffffffffffffffffff1681526020019081526020015f205f81548092919060010191905055915050919050565b5f613499613493612a22565b83614021565b9050919050565b5f5f5f5f6134b088888888614061565b9250925092506134c08282614148565b829350505050949350505050565b6134d7826112cd565b6134e081612791565b6134ea8383613c6f565b50505050565b6134fa5f5f613e1b565b565b5f7f01ffc9a7000000000000000000000000000000000000000000000000000000007bffffffffffffffffffffffffffffffffffffffffffffffffffffffff1916827bffffffffffffffffffffffffffffffffffffffffffffffffffffffff1916149050919050565b5f61356e612751565b90505f73ffffffffffffffffffffffffffffffffffffffff168573ffffffffffffffffffffffffffffffffffffffff16036135e0575f6040517fe602df050000000000000000000000000000000000000000000000000000000081526004016135d7919061529a565b60405180910390fd5b5f73ffffffffffffffffffffffffffffffffffffffff168473ffffffffffffffffffffffffffffffffffffffff1603613650575f6040517f94280d62000000000000000000000000000000000000000000000000000000008152600401613647919061529a565b60405180910390fd5b82816001015f8773ffffffffffffffffffffffffffffffffffffffff1673ffffffffffffffffffffffffffffffffffffffff1681526020019081526020015f205f8673ffffffffffffffffffffffffffffffffffffffff1673ffffffffffffffffffffffffffffffffffffffff1681526020019081526020015f2081905550811561373b578373ffffffffffffffffffffffffffffffffffffffff168573ffffffffffffffffffffffffffffffffffffffff167f8c5be1e5ebec7d5bd14f71427d1e84f3dd0314c0f7b2291e5b200ac8c7c3b925856040516137329190614a9c565b60405180910390a35b5050505050565b61374c8282611a60565b61378f5780826040517fe2517d3f0000000000000000000000000000000000000000000000000000000081526004016137869291906158ca565b60405180910390fd5b5050565b5f61379c612a30565b90505f81600101601a9054906101000a900465ffffffffffff1690506137c181612a57565b15613843576137cf81612a6b565b15613815578160010160149054906101000a900465ffffffffffff16825f01601a6101000a81548165ffffffffffff021916908365ffffffffffff160217905550613842565b7f2b1fa2edafe6f7b9e97c1a9e0c3660e645beb2dcaa2d45bdbf9beaf5472e1ec560405160405180910390a15b5b838260010160146101000a81548165ffffffffffff021916908365ffffffffffff1602179055508282600101601a6101000a81548165ffffffffffff021916908365ffffffffffff16021790555050505050565b5f7ff0c57e16840df040f15088dc2f81fe391c3923bec73e23a9662efc9c229c6a005f1b905090565b6138c86142aa565b6138fe576040517fd7e6bcf800000000000000000000000000000000000000000000000000000000815260040160405180910390fd5b565b6139086138c0565b5f613911612751565b9050828160030190816139249190615a88565b50818160040190816139369190615a88565b50505050565b6139446138c0565b5f61394d61308d565b9050828160020190816139609190615a88565b50818160030190816139729190615a88565b505f5f1b815f01819055505f5f1b8160010181905550505050565b6139956138c0565b5f61399e612a30565b90505f73ffffffffffffffffffffffffffffffffffffffff168273ffffffffffffffffffffffffffffffffffffffff1603613a10575f6040517fc22c8022000000000000000000000000000000000000000000000000000000008152600401613a07919061529a565b60405180910390fd5b82815f01601a6101000a81548165ffffffffffff021916908365ffffffffffff160217905550613a425f5f1b83613b35565b50505050565b613a506138c0565b5f613a59613f38565b90506001815f018190555050565b5f73ffffffffffffffffffffffffffffffffffffffff168373ffffffffffffffffffffffffffffffffffffffff1614613b25578060045f8573ffffffffffffffffffffffffffffffffffffffff1673ffffffffffffffffffffffffffffffffffffffff1681526020019081526020015f2054613ae2856117f9565b613aec91906155a8565b1015613b24576040517fe201ec7300000000000000000000000000000000000000000000000000000000815260040160405180910390fd5b5b613b308383836142c8565b505050565b5f5f613b3f612a30565b90505f5f1b8403613bf9575f73ffffffffffffffffffffffffffffffffffffffff16613b696119d0565b73ffffffffffffffffffffffffffffffffffffffff1614613bb6576040517f3fc3c27a00000000000000000000000000000000000000000000000000000000815260040160405180910390fd5b82816001015f6101000a81548173ffffffffffffffffffffffffffffffffffffffff021916908373ffffffffffffffffffffffffffffffffffffffff1602179055505b613c0384846144f7565b91505092915050565b5f7f8b73c3c69bb8fe3d512ecc4cf759cc79239f7b179b0ffacaa9a75d522b39400f613c366145ef565b613c3e614665565b4630604051602001613c54959493929190615b57565b60405160208183030381529060405280519060200120905090565b5f5f613c79612a30565b90505f5f1b84148015613cbe5750613c8f6119d0565b73ffffffffffffffffffffffffffffffffffffffff168373ffffffffffffffffffffffffffffffffffffffff16145b15613cea57806001015f6101000a81549073ffffffffffffffffffffffffffffffffffffffff02191690555b613cf484846146dc565b91505092915050565b5f613d297f360894a13ba1a3210667c828492db98dca3e2076cc3735a920a3ca505d382bbc5f1b6147d4565b5f015f9054906101000a900473ffffffffffffffffffffffffffffffffffffffff16905090565b613d59826147dd565b8173ffffffffffffffffffffffffffffffffffffffff167fbc7cd75a20ee27fd9adebab32041f755214dbc6bffa90cc0225b39da2e5c2d3b60405160405180910390a25f81511115613db557613daf82826148a6565b50613dbe565b613dbd614926565b5b5050565b5f65ffffffffffff8016821115613e13576030826040517f6dfcc650000000000000000000000000000000000000000000000000000000008152600401613e0a929190615be1565b60405180910390fd5b819050919050565b5f613e24612a30565b90505f613e2f612207565b91505083825f015f6101000a81548173ffffffffffffffffffffffffffffffffffffffff021916908373ffffffffffffffffffffffffffffffffffffffff16021790555082825f0160146101000a81548165ffffffffffff021916908365ffffffffffff160217905550613ea281612a57565b15613ed4577f8886ebfc4259abdbc16601dd8fb5678e54878f47b3c34836cfc51154a960510960405160405180910390a15b50505050565b5f5f613ee46120f4565b90508065ffffffffffff168365ffffffffffff1611613f0e578281613f099190615c08565b613f30565b613f2f8365ffffffffffff16613f22610dbb565b65ffffffffffff16614962565b5b915050919050565b5f7f9b779b17422d0df92223018b32b4d1fa46e071723d6817e2486d003becc55f00905090565b5f5f60205f8451602086015f885af180613f7e576040513d5f823e3d81fd5b3d92505f519150505f8214613f97576001811415613fb2565b5f8473ffffffffffffffffffffffffffffffffffffffff163b145b15613ff457836040517f5274afe7000000000000000000000000000000000000000000000000000000008152600401613feb919061529a565b60405180910390fd5b50505050565b5f7f5ab42ced628888259c08ac98db1eb0cf702fc1501344311d8b100cd1bfe4bb00905090565b5f6040517f190100000000000000000000000000000000000000000000000000000000000081528360028201528260228201526042812091505092915050565b5f5f5f7f7fffffffffffffffffffffffffffffff5d576e7357a4501ddfe92f46681b20a0845f1c111561409d575f60038592509250925061413e565b5f6001888888886040515f81526020016040526040516140c09493929190615c41565b6020604051602081039080840390855afa1580156140e0573d5f5f3e3d5ffd5b5050506020604051035190505f73ffffffffffffffffffffffffffffffffffffffff168173ffffffffffffffffffffffffffffffffffffffff1603614131575f60015f5f1b9350935093505061413e565b805f5f5f1b935093509350505b9450945094915050565b5f600381111561415b5761415a615c84565b5b82600381111561416e5761416d615c84565b5b03156142a6576001600381111561418857614187615c84565b5b82600381111561419b5761419a615c84565b5b036141d2576040517ff645eedf00000000000000000000000000000000000000000000000000000000815260040160405180910390fd5b600260038111156141e6576141e5615c84565b5b8260038111156141f9576141f8615c84565b5b0361423d57805f1c6040517ffce698f70000000000000000000000000000000000000000000000000000000081526004016142349190614a9c565b60405180910390fd5b6003808111156142505761424f615c84565b5b82600381111561426357614262615c84565b5b036142a557806040517fd78bce0c00000000000000000000000000000000000000000000000000000000815260040161429c9190614e16565b60405180910390fd5b5b5050565b5f6142b36127b1565b5f0160089054906101000a900460ff16905090565b5f6142d1612751565b90505f73ffffffffffffffffffffffffffffffffffffffff168473ffffffffffffffffffffffffffffffffffffffff16036143255781816002015f828254614319919061566a565b925050819055506143f7565b5f815f015f8673ffffffffffffffffffffffffffffffffffffffff1673ffffffffffffffffffffffffffffffffffffffff1681526020019081526020015f20549050828110156143b0578481846040517fe450d38c0000000000000000000000000000000000000000000000000000000081526004016143a7939291906157c1565b60405180910390fd5b828103825f015f8773ffffffffffffffffffffffffffffffffffffffff1673ffffffffffffffffffffffffffffffffffffffff1681526020019081526020015f2081905550505b5f73ffffffffffffffffffffffffffffffffffffffff168373ffffffffffffffffffffffffffffffffffffffff16036144405781816002015f828254039250508190555061448c565b81815f015f8573ffffffffffffffffffffffffffffffffffffffff1673ffffffffffffffffffffffffffffffffffffffff1681526020019081526020015f205f82825401925050819055505b8273ffffffffffffffffffffffffffffffffffffffff168473ffffffffffffffffffffffffffffffffffffffff167fddf252ad1be2c89b69c2b068fc378daa952ba7f163c4a11628f55a4df523b3ef846040516144e99190614a9c565b60405180910390a350505050565b5f5f6145016129d9565b905061450d8484611a60565b6145e4576001815f015f8681526020019081526020015f205f015f8573ffffffffffffffffffffffffffffffffffffffff1673ffffffffffffffffffffffffffffffffffffffff1681526020019081526020015f205f6101000a81548160ff021916908315150217905550614580612778565b73ffffffffffffffffffffffffffffffffffffffff168373ffffffffffffffffffffffffffffffffffffffff16857f2f8788117e7eff1d82e926ec794901d17c78024a50270940304540a733656f0d60405160405180910390a460019150506145e9565b5f9150505b92915050565b5f5f6145f961308d565b90505f6146046130b4565b90505f8151111561462057808051906020012092505050614662565b5f825f015490505f5f1b811461463b57809350505050614662565b7fc5d2460186f7233c927e7db2dcc703c0e500b653ca82273b7bfad8045d85a47093505050505b90565b5f5f61466f61308d565b90505f61467a613152565b90505f81511115614696578080519060200120925050506146d9565b5f826001015490505f5f1b81146146b2578093505050506146d9565b7fc5d2460186f7233c927e7db2dcc703c0e500b653ca82273b7bfad8045d85a47093505050505b90565b5f5f6146e66129d9565b90506146f28484611a60565b156147c9575f815f015f8681526020019081526020015f205f015f8573ffffffffffffffffffffffffffffffffffffffff1673ffffffffffffffffffffffffffffffffffffffff1681526020019081526020015f205f6101000a81548160ff021916908315150217905550614765612778565b73ffffffffffffffffffffffffffffffffffffffff168373ffffffffffffffffffffffffffffffffffffffff16857ff6391f5c32d9c69d2a47ea670b442974b53935d1edc7fd64eb21e047a839171b60405160405180910390a460019150506147ce565b5f9150505b92915050565b5f819050919050565b5f8173ffffffffffffffffffffffffffffffffffffffff163b0361483857806040517f4c9c8ce300000000000000000000000000000000000000000000000000000000815260040161482f919061529a565b60405180910390fd5b806148647f360894a13ba1a3210667c828492db98dca3e2076cc3735a920a3ca505d382bbc5f1b6147d4565b5f015f6101000a81548173ffffffffffffffffffffffffffffffffffffffff021916908373ffffffffffffffffffffffffffffffffffffffff16021790555050565b60605f5f8473ffffffffffffffffffffffffffffffffffffffff16846040516148cf9190615cf5565b5f60405180830381855af49150503d805f8114614907576040519150601f19603f3d011682016040523d82523d5f602084013e61490c565b606091505b509150915061491c858383614978565b9250505092915050565b5f341115614960576040517fb398979f00000000000000000000000000000000000000000000000000000000815260040160405180910390fd5b565b5f6149708284108484614a05565b905092915050565b60608261498d5761498882614a1e565b6149fd565b5f82511480156149b357505f8473ffffffffffffffffffffffffffffffffffffffff163b145b156149f557836040517f9996b3150000000000000000000000000000000000000000000000000000000081526004016149ec919061529a565b60405180910390fd5b8190506149fe565b5b9392505050565b5f614a0f84614a61565b82841802821890509392505050565b5f81511115614a2f57805160208201fd5b6040517fd6bda27500000000000000000000000000000000000000000000000000000000815260040160405180910390fd5b5f8115159050919050565b60405180604001604052805f81526020015f81525090565b5f819050919050565b614a9681614a84565b82525050565b5f602082019050614aaf5f830184614a8d565b92915050565b5f604051905090565b5f5ffd5b5f5ffd5b5f7fffffffff0000000000000000000000000000000000000000000000000000000082169050919050565b614afa81614ac6565b8114614b04575f5ffd5b50565b5f81359050614b1581614af1565b92915050565b5f60208284031215614b3057614b2f614abe565b5b5f614b3d84828501614b07565b91505092915050565b5f8115159050919050565b614b5a81614b46565b82525050565b5f602082019050614b735f830184614b51565b92915050565b5f65ffffffffffff82169050919050565b614b9381614b79565b82525050565b5f602082019050614bac5f830184614b8a565b92915050565b5f81519050919050565b5f82825260208201905092915050565b8281835e5f83830152505050565b5f601f19601f8301169050919050565b5f614bf482614bb2565b614bfe8185614bbc565b9350614c0e818560208601614bcc565b614c1781614bda565b840191505092915050565b5f6020820190508181035f830152614c3a8184614bea565b905092915050565b5f73ffffffffffffffffffffffffffffffffffffffff82169050919050565b5f614c6b82614c42565b9050919050565b614c7b81614c61565b8114614c85575f5ffd5b50565b5f81359050614c9681614c72565b92915050565b614ca581614a84565b8114614caf575f5ffd5b50565b5f81359050614cc081614c9c565b92915050565b5f5f60408385031215614cdc57614cdb614abe565b5b5f614ce985828601614c88565b9250506020614cfa85828601614cb2565b9150509250929050565b614d0d81614b46565b8114614d17575f5ffd5b50565b5f81359050614d2881614d04565b92915050565b5f60208284031215614d4357614d42614abe565b5b5f614d5084828501614d1a565b91505092915050565b5f5f5f60608486031215614d7057614d6f614abe565b5b5f614d7d86828701614c88565b9350506020614d8e86828701614c88565b9250506040614d9f86828701614cb2565b9150509250925092565b5f819050919050565b614dbb81614da9565b8114614dc5575f5ffd5b50565b5f81359050614dd681614db2565b92915050565b5f60208284031215614df157614df0614abe565b5b5f614dfe84828501614dc8565b91505092915050565b614e1081614da9565b82525050565b5f602082019050614e295f830184614e07565b92915050565b5f5f60408385031215614e4557614e44614abe565b5b5f614e5285828601614dc8565b9250506020614e6385828601614c88565b9150509250929050565b5f60ff82169050919050565b614e8281614e6d565b82525050565b5f602082019050614e9b5f830184614e79565b92915050565b5f60208284031215614eb657614eb5614abe565b5b5f614ec384828501614cb2565b91505092915050565b5f5ffd5b5f5ffd5b7f4e487b71000000000000000000000000000000000000000000000000000000005f52604160045260245ffd5b614f0a82614bda565b810181811067ffffffffffffffff82111715614f2957614f28614ed4565b5b80604052505050565b5f614f3b614ab5565b9050614f478282614f01565b919050565b5f67ffffffffffffffff821115614f6657614f65614ed4565b5b614f6f82614bda565b9050602081019050919050565b828183375f83830152505050565b5f614f9c614f9784614f4c565b614f32565b905082815260208101848484011115614fb857614fb7614ed0565b5b614fc3848285614f7c565b509392505050565b5f82601f830112614fdf57614fde614ecc565b5b8135614fef848260208601614f8a565b91505092915050565b5f5f6040838503121561500e5761500d614abe565b5b5f61501b85828601614c88565b925050602083013567ffffffffffffffff81111561503c5761503b614ac2565b5b61504885828601614fcb565b9150509250929050565b5f6020828403121561506757615066614abe565b5b5f61507484828501614c88565b91505092915050565b61508681614b79565b8114615090575f5ffd5b50565b5f813590506150a18161507d565b92915050565b5f602082840312156150bc576150bb614abe565b5b5f6150c984828501615093565b91505092915050565b6150db81614a84565b82525050565b604082015f8201516150f55f8501826150d2565b50602082015161510860208501826150d2565b50505050565b5f6040820190506151215f8301846150e1565b92915050565b5f7fff0000000000000000000000000000000000000000000000000000000000000082169050919050565b61515b81615127565b82525050565b61516a81614c61565b82525050565b5f81519050919050565b5f82825260208201905092915050565b5f819050602082019050919050565b5f6151a483836150d2565b60208301905092915050565b5f602082019050919050565b5f6151c682615170565b6151d0818561517a565b93506151db8361518a565b805f5b8381101561520b5781516151f28882615199565b97506151fd836151b0565b9250506001810190506151de565b5085935050505092915050565b5f60e08201905061522b5f83018a615152565b818103602083015261523d8189614bea565b905081810360408301526152518188614bea565b90506152606060830187614a8d565b61526d6080830186615161565b61527a60a0830185614e07565b81810360c083015261528c81846151bc565b905098975050505050505050565b5f6020820190506152ad5f830184615161565b92915050565b5f6040820190506152c65f830185614b8a565b6152d36020830184614b8a565b9392505050565b5f819050919050565b5f6152fd6152f86152f384614c42565b6152da565b614c42565b9050919050565b5f61530e826152e3565b9050919050565b5f61531f82615304565b9050919050565b61532f81615315565b82525050565b5f6020820190506153485f830184615326565b92915050565b5f6040820190506153615f830185615161565b61536e6020830184614b8a565b9392505050565b61537e81614e6d565b8114615388575f5ffd5b50565b5f8135905061539981615375565b92915050565b5f5f5f5f5f5f5f60e0888a0312156153ba576153b9614abe565b5b5f6153c78a828b01614c88565b97505060206153d88a828b01614c88565b96505060406153e98a828b01614cb2565b95505060606153fa8a828b01614cb2565b945050608061540b8a828b0161538b565b93505060a061541c8a828b01614dc8565b92505060c061542d8a828b01614dc8565b91505092959891949750929550565b5f5f6040838503121561545257615451614abe565b5b5f61545f85828601614c88565b925050602061547085828601614c88565b9150509250929050565b5f8151905061548881614c9c565b92915050565b5f602082840312156154a3576154a2614abe565b5b5f6154b08482850161547a565b91505092915050565b7f4e487b71000000000000000000000000000000000000000000000000000000005f52602260045260245ffd5b5f60028204905060018216806154fd57607f821691505b6020821081036155105761550f6154b9565b5b50919050565b5f819050919050565b5f67ffffffffffffffff82169050919050565b5f61554c61554761554284615516565b6152da565b61551f565b9050919050565b61555c81615532565b82525050565b5f6020820190506155755f830184615553565b92915050565b7f4e487b71000000000000000000000000000000000000000000000000000000005f52601160045260245ffd5b5f6155b282614a84565b91506155bd83614a84565b92508282039050818111156155d5576155d461557b565b5b92915050565b5f6040820190506155ee5f830185614a8d565b6155fb6020830184614a8d565b9392505050565b7f4549503731323a20556e696e697469616c697a656400000000000000000000005f82015250565b5f615636601583614bbc565b915061564182615602565b602082019050919050565b5f6020820190508181035f8301526156638161562a565b9050919050565b5f61567482614a84565b915061567f83614a84565b92508282019050808211156156975761569661557b565b5b92915050565b5f6156a782614a84565b91506156b283614a84565b92508282026156c081614a84565b915082820484148315176156d7576156d661557b565b5b5092915050565b7f4e487b71000000000000000000000000000000000000000000000000000000005f52601260045260245ffd5b5f61571582614a84565b915061572083614a84565b9250826157305761572f6156de565b5b828204905092915050565b5f60c08201905061574e5f830189614e07565b61575b6020830188615161565b6157686040830187615161565b6157756060830186614a8d565b6157826080830185614a8d565b61578f60a0830184614a8d565b979650505050505050565b5f6040820190506157ad5f830185615161565b6157ba6020830184615161565b9392505050565b5f6060820190506157d45f830186615161565b6157e16020830185614a8d565b6157ee6040830184614a8d565b949350505050565b5f8151905061580481614db2565b92915050565b5f6020828403121561581f5761581e614abe565b5b5f61582c848285016157f6565b91505092915050565b5f61583f82614b79565b915061584a83614b79565b9250828201905065ffffffffffff8111156158685761586761557b565b5b92915050565b5f6040820190506158815f830185615161565b61588e6020830184614a8d565b9392505050565b5f6060820190506158a85f830186615161565b6158b56020830185615161565b6158c26040830184614a8d565b949350505050565b5f6040820190506158dd5f830185615161565b6158ea6020830184614e07565b9392505050565b5f819050815f5260205f209050919050565b5f6020601f8301049050919050565b5f82821b905092915050565b5f6008830261594d7fffffffffffffffffffffffffffffffffffffffffffffffffffffffffffffffff82615912565b6159578683615912565b95508019841693508086168417925050509392505050565b5f61598961598461597f84614a84565b6152da565b614a84565b9050919050565b5f819050919050565b6159a28361596f565b6159b66159ae82615990565b84845461591e565b825550505050565b5f5f905090565b6159cd6159be565b6159d8818484615999565b505050565b5b818110156159fb576159f05f826159c5565b6001810190506159de565b5050565b601f821115615a4057615a11816158f1565b615a1a84615903565b81016020851015615a29578190505b615a3d615a3585615903565b8301826159dd565b50505b505050565b5f82821c905092915050565b5f615a605f1984600802615a45565b1980831691505092915050565b5f615a788383615a51565b9150826002028217905092915050565b615a9182614bb2565b67ffffffffffffffff811115615aaa57615aa9614ed4565b5b615ab482546154e6565b615abf8282856159ff565b5f60209050601f831160018114615af0575f8415615ade578287015190505b615ae88582615a6d565b865550615b4f565b601f198416615afe866158f1565b5f5b82811015615b2557848901518255600182019150602085019450602081019050615b00565b86831015615b425784890151615b3e601f891682615a51565b8355505b6001600288020188555050505b505050505050565b5f60a082019050615b6a5f830188614e07565b615b776020830187614e07565b615b846040830186614e07565b615b916060830185614a8d565b615b9e6080830184615161565b9695505050505050565b5f819050919050565b5f615bcb615bc6615bc184615ba8565b6152da565b614e6d565b9050919050565b615bdb81615bb1565b82525050565b5f604082019050615bf45f830185615bd2565b615c016020830184614a8d565b9392505050565b5f615c1282614b79565b9150615c1d83614b79565b9250828203905065ffffffffffff811115615c3b57615c3a61557b565b5b92915050565b5f608082019050615c545f830187614e07565b615c616020830186614e79565b615c6e6040830185614e07565b615c7b6060830184614e07565b95945050505050565b7f4e487b71000000000000000000000000000000000000000000000000000000005f52602160045260245ffd5b5f81519050919050565b5f81905092915050565b5f615ccf82615cb1565b615cd98185615cbb565b9350615ce9818560208601614bcc565b80840191505092915050565b5f615d008284615cc5565b91508190509291505056fea264697066735822122076bb96f6c827a9d5e72545573c5df1c441f44d33efeb29a3c913a7e8fcaf5c1a64736f6c634300081c0033",
  "linkReferences": {},
  "deployedLinkReferences": {},
  "immutableReferences": {
    "1500": [
      {
        "length": 32,
        "start": 11096
      },
      {
        "length": 32,
        "start": 11181
      },
      {
        "length": 32,
        "start": 11628
      }
    ]
  },
  "inputSourceName": "project/contracts/StakingVault.sol",
  "buildInfoId": "solc-0_8_28-c1c13cd2ee17b05ff515249a31f89f5bec2f89de"
}